:100000000C94D9000C9401010C9401010C94010191
:100010000C9401010C9401010C9401010C94010158
:100020000C9401010C9401010C94861D0C940101A7
:100030000C9401010C94191E0C9401010C94010103
:100040000C94A7200C9401010C94A6230C94D823A3
:100050000C9401010C9401010C9401010C94010118
:100060000C9401010C940101CF06D206D506D806E6
:10007000DB06DE06E506E806EB06EE06F106F4060C
:10008000F7066572726F72206F70656E696E672019
:10009000636F6E6669672E7478740020646F657391
:1000A0006E27742065786973742E002065786973F3
:1000B00074732E004E6F20756E6C6F636B206669D3
:1000C0006C6520666F722074686973202300554E3A
:1000D0004C4F434B46494C452050524553454E5496
:1000E0002121004469616C696E672054696D656FF8
:1000F0007574204572726F72006F666620686F6F4C
:100100006B007C3C3E5E2B3D3F2F5B5D3B2C2A22EF
:100110005C0000000008000201000003040700006A
:1001200000000000000001020408102040800102CD
:10013000040810200102040810200404040404042C
:100140000404020202020202030303030303000089
:1001500000002300260029000000000025002800E0
:100160002B0000000000240027002A004E414E49C9
:100170004E495459494E46CDCCCC3D0AD7233C1765
:10018000B7D13877CC2B329595E6241FB14F0A00B2
:100190000020410000C84200401C4620BCBE4CCAA2
:1001A0001B0E5AAEC59D7400F804640CA90FA32061
:1001B000082411241FBECFEFD8E0DEBFCDBF12E070
:1001C000A0E0B1E0E4E4FDE502C005900D92AC3B97
:1001D000B107D9F726E0ACEBB2E001C01D92AC3D0F
:1001E000B207E1F711E0C2EBD1E004C02297FE01B3
:1001F0000E94BA27C83AD107C9F70E9422260C9458
:10020000A02E0C940000CF93DF93CCECD2E0688159
:1002100085E00E940222688187E00E9402226881B4
:1002200088E00E9402226091C6028EE00E940222B3
:100230006091C4028FE00E9402226091C20280E1BC
:100240000E9402226091C00281E10E94022260911C
:10025000BE0282E10E9402226091BC0283E1DF9132
:10026000CF910C94022263E271E089E293E00E9454
:100270009E2068E873E180E090E00E94202160ED1C
:1002800072E089E293E00E949E2087E090E008956A
:1002900063E271E089E293E00E949E2068E873E1E6
:1002A00080E090E00E94202160ED72E089E293E01E
:1002B0000E949E2088E090E008950E940301109221
:1002C0001F0310921E0310921D0310921C0388E05E
:1002D00090E0089510922103109220030E94F120D3
:1002E000609318037093190380931A0390931B0370
:1002F00065E371E089E293E00E949E2069EF70E07F
:1003000089E396E00E94B22483E090E00895809112
:10031000160390911703FC01EE0FFF1FE85FFC4FDF
:1003200020913103309132033183208301969093E1
:1003300017038093160307971CF483E090E0089559
:1003400086E090E00895E8E0F3E01192119283E0F6
:10035000E631F807D1F7089560910A0170910B0119
:1003600080910C0190910D010E9436260E9420215F
:100370008091CE029091CF02059759F461E080916F
:10038000CC029091CD02892B09F060E085E00E94BB
:1003900002228091CE029091CF02079759F461E03A
:1003A0008091CA029091CB02892B09F060E087E02E
:1003B0000E9402228091CE029091CF02089759F4B8
:1003C00061E08091C8029091C902892B09F060E038
:1003D00088E00E9402228091CE029091CF020E9777
:1003E00059F461E08091C6029091C702892B09F00F
:1003F00060E08EE00E9402228091CE029091CF02B6
:100400000F9759F461E08091C4029091C502892B45
:1004100009F060E08FE00E9402228091CE0290916C
:10042000CF02409759F461E08091C2029091C302DB
:10043000892B09F060E080E10E9402228091CE02C7
:100440009091CF02419759F461E08091C002909160
:10045000C102892B09F060E081E10E9402228091B3
:10046000CE029091CF02429759F461E08091BE0292
:100470009091BF02892B09F060E082E10E94022284
:100480008091CE029091CF02439759F461E0809120
:10049000BC029091BD02892B09F060E083E10E94CB
:1004A00002226091060170910701809108019091EC
:1004B00009010E9436260E9420218091CE0290914F
:1004C000CF02059729F46091CC0285E00E940222B8
:1004D0008091CE029091CF02079729F46091CA02D1
:1004E00087E00E9402228091CE029091CF0208976D
:1004F00029F46091C80288E00E9402228091CE0215
:100500009091CF020E9729F46091C6028EE00E946E
:1005100002228091CE029091CF020F9729F4609130
:10052000C4028FE00E9402228091CE029091CF02FD
:10053000409729F46091C20280E10E9402228091DA
:10054000CE029091CF02419729F46091C00281E1DF
:100550000E9402228091CE029091CF02429729F40C
:100560006091BE0282E10E9402228091CE029091AF
:10057000CF02439729F46091BC0283E10E940222DA
:100580001092210310922003109217031092160369
:100590001092FA021092F902109222031092230391
:1005A000109224031092250310921F0310921E0331
:1005B0001092CF021092CE0210920A0110920B01FB
:1005C00010920C0110920D01109206011092070179
:1005D00010920801109209010E94A30182E090E0AC
:1005E00008950F931F930E94F1200091180310911A
:1005F000190320911A0330911B03601B710B820BAE
:10060000930B613375478105910548F063EE70E007
:1006100089E396E00E94B22484E090E013C08BEF5F
:1006200092E00E94341C882359F08BEF92E00E94E4
:100630007F1C909332038093310385E090E002C0E9
:1006400083E090E01F910F91089566E471E089E2E4
:1006500093E00E949E2060EA7FE080E090E00E94AC
:10066000202184E090E008958091F9029091FA02AF
:1006700001969093FA028093F902019731F469E5AB
:1006800071E089E293E00E949E208091F9029091AE
:10069000FA02029731F46AE671E089E293E00E947F
:1006A0009E208091F9029091FA02039791F463E2FF
:1006B00071E089E293E00E949E2068EE73E080E0A2
:1006C00090E00E9420216CE771E089E293E00E94B3
:1006D0009E208091F9029091FA02049731F463E22E
:1006E00071E089E293E00E949E208091F90290914E
:1006F000FA02059731F46DE871E089E293E00E9417
:100700009E208091F9029091FA02069731F460EAF6
:1007100071E089E293E00E949E208091F90290911D
:10072000FA020797B1F463E271E089E293E00E9474
:100730009E2068EE73E080E090E00E94202161EB53
:1007400071E089E293E00E949E201092FA021092DA
:10075000F90288E090E00895EF92FF920F931F93C3
:10076000CF93DF93CDB7DEB7EDB6FEB6FC01448183
:1007700055814F5F5F4F2DB73EB7241B350B0FB62A
:10078000F8943EBF0FBE2DBF0DB71EB70F5F1F4FB2
:1007900020E030E0B8010E94EC25C8010E94C92980
:1007A0000FB6F894FEBE0FBEEDBEDF91CF911F9144
:1007B0000F91FF90EF900895EF92FF920F931F9388
:1007C000CF93DF9300D000D000D0CDB7DEB77C014F
:1007D0008B0161EC71E00E94CD25882339F0C801BE
:1007E0000E9416267093CF026093CE026BEC71E0EC
:1007F000C7010E94CD258823A9F0B801CE0101963A
:100800000E945F25CE0101960E94AC0360930A010D
:1008100070930B0180930C0190930D01CE01019612
:100820000E94C42463ED71E0C7010E94CD25882396
:10083000A9F0B801CE0101960E945F25CE01019674
:100840000E94AC0360930601709307018093080136
:1008500090930901CE0101960E94C4246AED71E0D3
:10086000C7010E94CD25882339F0C8010E941626B1
:100870007093CD026093CC0263EE71E0C7010E94D9
:10088000CD25882339F0C8010E9416267093CB022B
:100890006093CA026CEE71E0C7010E94CD258823E7
:1008A00039F0C8010E9416267093C9026093C802ED
:1008B00065EF71E0C7010E94CD25882339F0C8019A
:1008C0000E9416267093C7026093C6026FEF71E014
:1008D000C7010E94CD25882339F0C8010E94162641
:1008E0007093C5026093C40269E072E0C7010E9480
:1008F000CD25882339F0C8010E9416267093C302C3
:100900006093C20263E172E0C7010E94CD25882393
:1009100039F0C8010E9416267093C1026093C0028C
:100920006DE172E0C7010E94CD25882339F0C8012E
:100930000E9416267093BF026093BE0267E272E0C7
:10094000C7010E94CD25882339F0C8010E941626D0
:100950007093BD026093BC0226960FB6F894DEBF7A
:100960000FBECDBFDF91CF911F910F91FF90EF9000
:1009700008950F931F93CF93DF93082F802F0E942A
:10098000382211E0892B09F410E0C1E0D0E084EFB7
:1009900091E00E945A21802F0E943822212F30E0BE
:1009A0008217930759F7219719F4C2E0D0E0EFCFEF
:1009B000812FDF91CF911F910F91089582E00E94C6
:1009C000B90491E0892708950E94A30189E293E088
:1009D0000E94AD1E10921703109216030E94DE04AF
:1009E000882319F082E090E0089581E090E0089576
:1009F00043E050E066E070E08BEF92E00E94BB1BAA
:100A00008EED92E00C9425091F93CF93DF93CDB721
:100A1000DEB7AD970FB6F894DEBF0FBECDBF6CEA60
:100A200072E0CE0188960E9432256CEA72E0CE0117
:100A300082960E94322521E047ED52E063E373E0A5
:100A4000CE0101960E94CB0B8B819C819093E10299
:100A50008093E0028D819E81AF81B8858093E20210
:100A60009093E302A093E402B093E50289859A850E
:100A7000AB85BC858093E6029093E702A093E802E1
:100A8000B093E9028DE0FE013D96AAEEB2E001903E
:100A90000D928A95E1F78A8D9B8D9093F802809351
:100AA000F7028EED92E00E94B0098823C1F08EED2E
:100AB00092E00E946F09892B71F08EED92E00E9406
:100AC000B708182F8EED92E00E946F09892B81F1F3
:100AD0001B3599F72DC08EED92E00E949E09CE0144
:100AE00082960E94C424CE0188960E94C424AD96AA
:100AF0000FB6F894DEBF0FBECDBFDF91CF911F912F
:100B000008951D33C1F1BE01685D7F4FCE0101968E
:100B10000E945F25612FCE0101960E94BF25BC0176
:100B2000CE0188960E944825CE0101960E94C424D9
:100B30008EED92E00E94B708182F8EED92E00E9491
:100B40006F09892BC1F0DDCF1D3519F1BE016E5D36
:100B50007F4FCE0101960E945F25612FCE01019645
:100B60000E94BF25BC01CE0182960E944825CE017D
:100B700001960E94C4248EED92E00E94B708182FBF
:100B80008EED92E00E946F09892BF1F61D3509F078
:100B90008ECFBE016E5D7F4FCE0101960E945F2514
:100BA000BE01685D7F4FCE014C960E945F25BE015D
:100BB0006F5F7F4FCE014C960E94DC03CE014C96B6
:100BC0000E94C424CE0101960E94C4246CEA72E003
:100BD000CE0188960E9468256CEA72E0CE0182966A
:100BE0000E94682564CF809115038F938091140330
:100BF0008F93809113038F93809112038F93809131
:100C000011038F93809110038F9380910F038F9323
:100C100080910E038F9380910D038F9380910C032D
:100C20008F9380910B038F9380910A038F93809110
:100C300009038F93809108038F9381E392E09F9340
:100C40008F9387ED92E09F938F930E94512A67EDD7
:100C500072E083E393E00E94590C2DB73EB72E5EFD
:100C60003F4F0FB6F8943EBF0FBE2DBF882379F0DB
:100C700081E090E090931F0380931E036EEC70E080
:100C800089E396E00E9489240E9404050AC010921C
:100C90001F0310921E0364EB70E089E396E00E944C
:100CA0008924809115038F93809114038F938091F1
:100CB00013038F93809112038F93809111038F936D
:100CC000809110038F9380910F038F9380910E0377
:100CD0008F9380910D038F9380910C038F9380915C
:100CE0000B038F9380910A038F93809109038F9355
:100CF000809108038F938BE492E09F938F9380ED14
:100D000092E09F938F930E94512A60ED72E083E3FB
:100D100093E00E94590C2DB73EB72E5E3F4F0FB6A1
:100D2000F8943EBF0FBE2DBF60ED72E08823C1F086
:100D300089E396E00E94AC246BEA70E089E396E0D8
:100D40000E94B22481E090E090931D0380931C03E5
:100D500080911E0390911F038130910569F40FC0AB
:100D600089E396E00E94AC246BE970E089E396E0A9
:100D70000E9489248CE006C0892B19F008958AE02E
:100D800001C08BE090E00895E0912703F0912803E3
:100D9000ED30F10590F5EC5CFF4F0C94B82781E045
:100DA00090E027C00E94E40424C00E946A0121C090
:100DB0000E94F1021EC00E9425031BC089E293E03D
:100DC0000E946E1D89E090E014C00E94F30511C0DE
:100DD0000E94AC010EC00E945D010BC00E94870101
:100DE00008C00E94330105C00E94480102C00E9451
:100DF000340390932803809327038BEF92E00E94A3
:100E0000341C8091270390912803019771F00E9470
:100E1000DE0481110AC089E293E00E94AD1E81E0E8
:100E200090E0909328038093270308951F93CF9316
:100E3000DF93CDB7DEB7AD970FB6F894DEBF0FBE28
:100E4000CDBF6CEA72E0CE0188960E9432256CEA32
:100E500072E0CE0182960E94322521E045E652E002
:100E600063E373E0CE0101960E94CB0B8B819C81E2
:100E70009093E1028093E0028D819E81AF81B885DD
:100E80008093E2029093E302A093E402B093E50220
:100E900089859A85AB85BC858093E6029093E702AD
:100EA000A093E802B093E9028DE0FE013D96AAEE20
:100EB000B2E001900D928A95E1F78A8D9B8D909317
:100EC000F8028093F7028EED92E00E94B009882329
:100ED000C9F08EED92E00E946F09892B71F08EEDC2
:100EE00092E00E94B708182F8EED92E00E946F09E1
:100EF000892BB9F11B3599F734C08EED92E00E9431
:100F00009E0906C062E870E089E396E00E94B22480
:100F1000CE0182960E94C424CE0188960E94C424E9
:100F2000AD960FB6F894DEBF0FBECDBFDF91CF9167
:100F30001F9108951D33C1F1BE01685D7F4FCE0141
:100F400001960E945F25612FCE0101960E94BF2568
:100F5000BC01CE0188960E944825CE0101960E94D0
:100F6000C4248EED92E00E94B708182F8EED92E017
:100F70000E946F09892BC1F0DDCF1D3519F1BE012B
:100F80006E5D7F4FCE0101960E945F25612FCE01DD
:100F900001960E94BF25BC01CE0182960E94482581
:100FA000CE0101960E94C4248EED92E00E94B70803
:100FB000182F8EED92E00E946F09892BF1F61D35F6
:100FC00009F087CFBE016E5D7F4FCE0101960E9472
:100FD0005F25BE01685D7F4FCE014C960E945F2564
:100FE000BE016F5F7F4FCE014C960E94DC03CE01A5
:100FF0004C960E94C424CE0101960E94C4246CEA3F
:1010000072E0CE0188960E9468256CEA72E0CE01FB
:1010100082960E9468255DCF8BEF92E00E94C41BF0
:1010200089E08093290326E040E855E260E070E023
:1010300089E396E00E94442310922803109227032C
:1010400081E08093260360E082E00E94C92161E094
:1010500082E00E94022261E085E00E94C92161E0F5
:1010600087E00E94C92161E088E00E94C92161E017
:101070008EE00E94C92161E08FE00E94C92161E0F9
:1010800080E10E94C92161E081E10E94C92161E003
:1010900082E10E94C92161E083E10E94C92164E0EC
:1010A00083E393E00E94B20A882381F00E9416072E
:1010B0000E94030160E772E089E293E00E949E20B3
:1010C00068EE73E080E090E00C9420210895CF93C7
:1010D000DF931F92CDB7DEB76983DC01ED91FC9100
:1010E0000280F381E02D41E050E0BE016F5F7F4F51
:1010F00009950F90DF91CF910895CF93DF93EC0185
:10110000898D9A8D009759F0FC01138212820E94FA
:101110002A15E98DFA8D22813381232B31F081E06C
:1011200090E09B838A8380E090E0DF91CF910895E7
:10113000FC01818D928D009711F00C94CA120895D4
:10114000CF93DF931F92CDB7DEB741E050E0BE01F1
:101150006F5F7F4F0E94DB10019719F4898190E047
:1011600002C08FEF9FEF0F90DF91CF910895FC01A8
:10117000818D928D009711F00C94A0088FEF9FEF56
:1011800008950F931F93CF93DF938C01FC01818D02
:10119000928D0097B9F00E94A008EC018F3FFFEFFD
:1011A0009F0799F0F801818D928DFC01428553854E
:1011B0006485758541505109610971090E942E129B
:1011C000CE0105C080E090E002C08FEF9FEFDF917D
:1011D000CF911F910F910895CF92DF92EF92FF92DE
:1011E0000F931F93CF93DF93EC017B016A011B8266
:1011F0001A8208EE13E020E030E00C831D832E837A
:101200003F8384E892E0998388838DE190E00E9497
:10121000D8279A8F898F009779F02DE1F701DC01AB
:1012200001900D922A95E1F74CE050E0B601CE0115
:101230000C960E942D2A188EDF91CF911F910F914D
:10124000FF90EF90DF90CF900895FC0113821282FF
:1012500048EE53E060E070E0448355836683778313
:1012600084E892E091838083128E118E1486089513
:10127000FC01818D928D009711F00C94DB1080E0C1
:1012800090E00895FC01818D928D009729F00E94D5
:101290002E1291E0811101C090E0892F0895DC01A8
:1012A0005996ED91FC915A97309729F06285738594
:1012B0008485958508956FEF7FEFCB010895DC015C
:1012C0005996ED91FC915A97309729F0638974896A
:1012D00085899689089560E070E0CB010895CF92EA
:1012E000DF92EF92FF92CF93DF93EC01898D9A8D7D
:1012F000892BD9F0CE010E945F096B017C01CE01E0
:101300000E944F09A7019601261B370B480B590B6A
:10131000DA01C901811530E89307A105B10538F05C
:101320008FEF9FE7A0E0B0E002C080E090E0DF91A7
:10133000CF91FF90EF90DF90CF900895CF93DF9300
:10134000EC01898D9A8D009741F00E941113898DCF
:101350009A8D0E9470281A8E198EDF91CF91089570
:10136000DC015996ED91FC915A97309721F081E07C
:101370009581911101C080E008951F93CF93DF9371
:10138000CDB7DEB76D970FB6F894DEBF0FBECDBFF9
:10139000AB011C821B8226E932E03A8329831E823C
:1013A00021E0BC01CE0101960E94451411E081119B
:1013B00002C010E004C0CE0101960E941113812FDB
:1013C0006D960FB6F894DEBF0FBECDBFDF91CF9103
:1013D0001F910895CF93DF93FB0120813181FC01A0
:1013E000E20FF31FE081EF3211F42F5F3F4FDA017C
:1013F000E0E0F0E0EC01C20FD31FC881CF3249F02A
:10140000CC2339F031962F5F3F4FCD93EC30F1056F
:1014100089F7E40FF51F1082FC01E20FF31F4081F2
:101420004F3211F42F5F3F4FFB0131832083FC01CA
:10143000E20FF31F81E09081911101C080E0DF9104
:10144000CF9108954F925F926F927F928F929F9269
:10145000AF92BF92CF92DF92EF92FF920F931F93C2
:10146000CF93DF93CDB7DEB7C954D1090FB6F89447
:10147000DEBF0FBECDBF5C016B013A01490119A26D
:1014800018A286E992E09F8F8E8F1BA21C821B827E
:101490009A8389831E822A961FAE1EAE2A978B01DD
:1014A0007E018EE1E80EF11C44244394AE01455CBC
:1014B0005F4FBE01685B7F4FC5010E94EA09582E4D
:1014C000482F44259401BE01655C7F4FC801F3019C
:1014D0000995811108C00C151D0519F0C8010E945D
:1014E000111380E027C05520B9F021E0AE01455C22
:1014F0005F4FB801C7010E944514582E0C151D05F9
:1015000099F0C8010E941113552059F3902F812F93
:101510008701E92EF82ECACF0C151D0519F0C80158
:101520000E94111381E006C08823D9F28E010F5F5B
:101530001F4FECCFC75BDF4F0FB6F894DEBF0FBE77
:10154000CDBFDF91CF911F910F91FF90EF90DF9072
:10155000CF90BF90AF909F908F907F906F905F9053
:101560004F9008950F931F93CF93DF93EC01462F75
:1015700061E00E94A10D811102C080E01DC08E01BA
:10158000045F1F4F41E0BE01C8010E94711A882309
:1015900059F0B801CE018A960E948B1091E081111A
:1015A00001C090E0892F08C040E0BE01C8010E9440
:1015B000711A882311F3EDCFDF91CF911F910F9115
:1015C0000895FC01DB0112968D919C9113979383F2
:1015D000828386E992E09183808314968C9114979C
:1015E000848315968C911597858316964D915D9100
:1015F0006D917C91199746835783608771871A96FE
:101600004D915D916D917C911D97428753876487C1
:1016100075871E964D915D916D917C91519746878E
:101620005787608B718B52968C915297828B539611
:101630004D915D916D917C915697438B548B658B49
:10164000768B57964D915D916D917C915A97478B12
:10165000508F618F728F5B968D919C915C97948F68
:10166000838F08954F925F926F927F928F929F9295
:10167000AF92BF92CF92DF92EF92FF920F931F93A0
:10168000CF93DF93CDB7DEB7C754D1090FB6F89427
:10169000DEBF0FBECDBF6C014A013901665D7F4FD1
:1016A0005E018EE1A80EB11CC5010E94E10A1C82F8
:1016B0001B8286E992E09A8389831E828401FE015F
:1016C00031967F015A2C4B2C6FE270E0C8010E94CA
:1016D000122A0097E9F1F80120812F3219F40F5FE7
:1016E0001F4FF2CF801B8D3008F08CE0A82EB12C5C
:1016F000A501B801CE01CB960E942D2AEBE3F0E0C4
:10170000EC0FFD1FEA0DFB1D1082C7010E94111393
:1017100021E0AE01455C5F4F652D742DC7010E942D
:101720004514811109C0F6011382128286E992E004
:1017300091838083158216C00A0D1B1D852D942D63
:101740000E941113C2015E2C4F2CE92EF82EBCCF43
:1017500008191909F30111830083652D742DC60141
:101760000E94E10AC601C95BDF4F0FB6F894DEBFE5
:101770000FBECDBFDF91CF911F910F91FF90EF90E2
:10178000DF90CF90BF90AF909F908F907F906F90A1
:101790005F904F9008959F92AF92BF92CF92DF9249
:1017A000EF92FF920F931F93CF93DF93CDB7DEB7E6
:1017B000C955D1090FB6F894DEBF0FBECDBF7C016D
:1017C0006B015A01922E9E01285A3F4FCE01CB96B3
:1017D0000E94320B6A960EAD1FAD6A970A0D1B1D53
:1017E000F801808181110AC0BE01655C7F4FCE0186
:1017F00001960E94E10A40E952E041C019A218A2F4
:1018000086E992E09F8F8E8F1BA221968FAD219744
:10181000811104C0C7010E94250937C0825082305F
:1018200060F4B601665D7F4F292DA801CE014E966A
:101830000E944514811110C0EDCF292DA801BE01D1
:10184000655C7F4FCE014E960E944514882311F3AC
:10185000CE01CB960E941113892D867041F049A9C3
:101860005AA96BA97CA9CE014E960E942E12BE01E8
:10187000625E7F4FCE0101960E94E10AA801BE017F
:101880006F5F7F4FC7010E94EC08C701C75ADF4F47
:101890000FB6F894DEBF0FBECDBFDF91CF911F9181
:1018A0000F91FF90EF90DF90CF90BF90AF909F90FF
:1018B0000895FB01BC01665D7F4F20E030E04DEBF9
:1018C00059E0CF010C94220A109238031092390388
:1018D00010923C0310923E0382E090E0A0E0B0E062
:1018E00080933F0390934003A0934103B09342033E
:1018F000109256031092600310925F0386E992E003
:1019000090935E0380935D031092620308959FB7E6
:10191000F89420918A0580918805213019F48DBBB7
:101920009FBF08958FBF089520918A05222399F0C3
:101930003FB7F89420918A05213059F42DB32093B4
:1019400088054DB320918905209524232DBB3FBFE9
:1019500002C0309388058CBD9DBD08958EBD0000EA
:101960000DB407FEFDCF8EB508958FEF0C94AE0C2D
:1019700061E0FC0184810E94022280917C03882323
:1019800039F010927C0380918A0581110C94870CA8
:101990000895CF93DF93EC0180917C03811109C0FE
:1019A00081E080937C0380917D0390917E030E946F
:1019B000940C60E08C81DF91CF910C940222CF9344
:1019C000DF93EC018E81882389F08F8198859C01BB
:1019D0002F5F3F4F38872F838230924018F40E9448
:1019E000B50CF3CFCE010E94B80C1E82DF91CF91CF
:1019F0000895673028F026E1FC01258380E00895F2
:101A0000623081F030F4662359F06130B1F480E542
:101A100015C0643059F040F0653079F482E50EC0AD
:101A200080E505C081E503C081E508C082E58093BB
:101A30007D0381E080937E03089583E580937D0399
:101A400010927E0381E008950F931F93CF93DF934D
:101A5000EB010E94F1208B010E94B50C8F3F49F0F1
:101A60000E94F120601B710B6C177D07A8F380E0CA
:101A700001C081E0DF91CF911F910F910895CF9226
:101A8000DF92FF920F931F93CF93DF9300D000D08C
:101A9000CDB7DEB76C01F62E29833A834B835C8386
:101AA0000E94DF0CC6010E94C90C6CE271E0C60105
:101AB0000E94240D8F2D80640E94AE0C08E110E07E
:101AC0005C814B813A812981DA01C901002E04C071
:101AD000B695A795979587950A94D2F729833A8367
:101AE0004B835C830E94AE0C0850110929813A8116
:101AF0004B815C81083F8FEF180731F7FF2029F0F9
:101B0000E8E0FE1621F08FEF03C085E901C087E809
:101B10000E94AE0C10E00E94B50CF601828787FF90
:101B200004C01F3F11F01F5FF6CF0F900F900F9072
:101B30000F90DF91CF911F910F91FF90DF90CF9089
:101B40000895BF92CF92DF92EF92FF920F931F936F
:101B5000CF93DF93EC01B62E1B8619861E821D8261
:101B60004C830E94F1208B0161E08C810E94C9218D
:101B700061E08C810E9402220E94851B82E5809395
:101B80007D0310927E0380917D0390917E030E94DD
:101B9000940C2AE0F22E8FEF0E94AE0CFA94D9F743
:101BA00080918A0581110E94870CCE010E94C90C88
:101BB00020E030E0A90160E0CE010E943F0DF82E48
:101BC0008A8781E0F81649F00E94F120601B710BB2
:101BD000613D774068F381E04BC02AEA31E040E0A4
:101BE00050E068E0CE010E943F0D82FF02C0FB86FC
:101BF0000DC094E0F92E0E94B50C8A87FA94D9F7AB
:101C00008A3A11F082E034C082E08B878B85823083
:101C100031F4C12CD12CE12C80E4F82E03C0C12C6E
:101C2000D12C760120E030E0A90167E3CE010E94CB
:101C30003F0DA701960169E2CE010E943F0D8A8700
:101C4000882349F00E94F120601B710B613D7740B1
:101C500048F388E00DC08B85823031F520E030E01C
:101C6000A9016AE3CE010E943F0D882381F086E03E
:101C70008D83CE010E94B80C80E0DF91CF911F913F
:101C80000F91FF90EF90DF90CF90BF9008950E944A
:101C9000B50C807C803C11F483E08B870E94B50CEE
:101CA0000E94B50C0E94B50CCE010E94B80C6B2DA1
:101CB000CE01DF91CF911F910F91FF90EF90DF90B8
:101CC000CF90BF900C94F90C0F931F93CF93DF9399
:101CD000EC010E94F1208B010E94B50C8A878F3F96
:101CE00049F40E94F120601B710B6D327140A0F32A
:101CF0008FE003C08E3F39F08DE08D83CE010E94CE
:101D0000B80C80E001C081E0DF91CF911F910F916D
:101D10000895CF92DF92EF92FF920F931F93CF938C
:101D2000DF93EC0169010115110509F462C0C801D6
:101D3000820F931F8130924008F05DC08E8188230E
:101D400071F088819981AA81BB81481759076A0778
:101D50007B0729F48F819885C816D90610F548832A
:101D600059836A837B838B85833039F039E0440F54
:101D7000551F661F771F3A95D1F79A01AB0161E1B4
:101D8000CE010E943F0D882319F083E08D8333C07C
:101D9000CE010E94640E882371F118861F8281E0B3
:101DA0008E838F8198858C159D0540F40E94B50C1B
:101DB0008F819885019698878F83F3CF6701E00E16
:101DC000F11ECE14DF0431F00E94B50CF6018193B0
:101DD0006F01F7CF8F819885800F911F98878F8330
:101DE0002985222319F08115924018F0CE010E9416
:101DF000DF0C81E004C0CE010E94B80C80E0DF91CE
:101E0000CF911F910F91FF90EF90DF90CF900895A9
:101E1000EF92FF920F931F93790100E012E020E010
:101E200030E00E94890E1F910F91FF90EF9008956E
:101E3000CF92DF92EF92FF920F931F93CF93DF9396
:101E400000D0CDB7DEB78C01862F49835A830E941C
:101E5000AE0C4981C42E5A81D52EE12CF12CF6010D
:101E600081916F010E94AE0CFFEFEF1AFF0AE1149F
:101E700082E0F806A1F78FEF0E94AE0C8FEF0E9470
:101E8000AE0C0E94B50CF80182878F71853039F055
:101E900081E18583C8010E94B80C80E001C081E027
:101EA0000F900F90DF91CF911F910F91FF90EF90C6
:101EB000DF90CF9008950F931F93CF93DF93EC01A2
:101EC0008901411551056105710511F482E132C0A6
:101ED0008B85833039F089E0440F551F661F771FCB
:101EE0008A95D1F79A01AB0168E1CE010E943F0DBE
:101EF000882311F084E01EC0A8016EEFCE010E947D
:101F0000180F8823C1F068E572E0CE010E94240D0D
:101F1000811102C085E10EC020E030E0A9016DE032
:101F2000CE010E943F0D811104C00E94B50C882390
:101F300039F084E18D83CE010E94B80C80E004C0AA
:101F4000CE010E94B80C81E0DF91CF911F910F91DB
:101F5000089580E580937D0310927E030895CF93CA
:101F6000DF93EC019C012A5F3F4F41E050E060E0CD
:101F700070E08B8D9C8D0E9406198823A1F04F89FB
:101F8000588D698D7A8D452B462B472B71F44E81E8
:101F90005F81688579854F8B588F698F7A8F8C81A7
:101FA00080688C8302C080E001C081E0DF91CF9126
:101FB0000895CF92DF92EF92FF921F93CF93DF931A
:101FC000EC010E94AF0F811102C080E04BC0EB8D8D
:101FD000FC8DCE80DF80E884F98482E0C81AD108C5
:101FE000E108F108058404C0CC0CDD1CEE1CFF1CCC
:101FF0000A94D2F74685578560897189C40ED51E2B
:10200000E61EF71E148181E0C81AD108E108F10824
:10201000112361F0C701B601610F711D811D911D72
:102020000E945017882389F21150F2CFEB8DFC8D5E
:10203000C12C82E0D82EE12CF12C058404C0CC0CFC
:10204000DD1CEE1CFF1C0A94D2F74B895C896D895C
:102050007E894C0D5D1D6E1D7F1D4B8B5C8B6D8BCA
:102060007E8B81E0DF91CF911F91FF90EF90DF9009
:10207000CF900895CF93DF93EC01462F6E857F8537
:10208000888999890E941517882341F08A8920E25E
:10209000829FC001112488579C4F02C080E090E0CD
:1020A000DF91CF910895282FFB018BE030E231932F
:1020B0008150E9F7A22FB92F20E037E09D919923B5
:1020C00019F19E3219F0E2E0F1E008C03A3011F166
:1020D00028E03AE0F3CF31964917E1F044914111FD
:1020E000FACF3217B8F04FED490F4E3598F441E072
:1020F000420FFB01E20FF11D2FE9290F2A3108F4ED
:1021000090529083242FDACF81E0FB0190819032AE
:1021100009F480E008950F931F93CF93DF93EC01B0
:102120008B018D81882311F080E040C0FB018789FD
:102130008031B1F482E08D831F8A188E198E1A8E39
:10214000408D518D60E070E095E0440F551F661F93
:10215000771F9A95D1F74B8B5C8B6D8B7E8B15C05F
:10216000803211F783E08D83FB01428D538D648DA6
:10217000758D4F8B588F698F7A8F9E012D5E3F4FE3
:10218000C8010E94FA17882379F21C8F0B8F81E017
:102190008C831E821F82188619861A861B861C86CF
:1021A0001D861E861F86188A198A1A8ADF91CF918A
:1021B0001F910F9108952F923F924F925F926F92CD
:1021C0007F928F929F92AF92BF92CF92DF92EF92C7
:1021D000FF920F931F93CF93DF93EC016B015A0192
:1021E0008D81811103C08FEF9FEFDAC08C8180FF5A
:1021F000FACF4B895C896D897E898A859B85AC8500
:10220000BD852501612C712C8A019B01081B190BCE
:102210002A0B3B0B041515052605370518F45A0142
:10222000A81AB90A25011E0126E0220E311C41140C
:10223000510409F47BC04A855B856C857D854A0124
:1022400081E09822ED818A019B01F9E0369527957E
:1022500017950795FA95D1F78B8D9C8DE23051F447
:10226000FC01628D738D848D958D600F711F821FAF
:10227000931F3EC0FC0174807A94702281149104F3
:10228000C9F4711017C0452B462B472B49F48F8991
:10229000988DA98DBA8D8E839F83A887B9870AC030
:1022A0004E815F816885798591010E947617882328
:1022B00009F499CFEB8DFC8D6E817F81888599859E
:1022C0006250710981099109058404C0660F771F66
:1022D000881F991F0A94D2F70685178520893189AE
:1022E000600F711F821F931F670D711D811D911D4E
:1022F00020E032E02819390932012415350508F4A7
:1023000039012C8126FD04C06114F2E07F06A1F59D
:1023100000910E0110910F012091100130911101D7
:10232000601771078207930719F426C0C50138C0EA
:10233000760183019401AB01BC01809186039091E9
:1023400087030E94890E882309F44DCFC60CD71C41
:1023500004C0E81BF90BCE0EDF1E8A859B85AC8579
:10236000BD85860D971DA11DB11D8A879B87AC87F2
:10237000BD87461857085BCF40E00E941517882399
:1023800009F431CFC40188579C4FD6019C01260D1A
:10239000371DFC01E217F307E1F241914D93FACFAB
:1023A000DF91CF911F910F91FF90EF90DF90CF9031
:1023B000BF90AF909F908F907F906F905F904F9065
:1023C0003F902F900895FF920F931F93CF93DF9329
:1023D0001F92CDB7DEB78C01FC018581823018F4E5
:1023E00080E090E034C0F8014285538564857585AE
:1023F000A5E07695679557954795AA95D1F7F42F5F
:10240000FF70FF2E41E050E0BE016F5F7F4FC801BB
:102410000E94DB10019719F4298130E002C02FEFF0
:102420003FEF2F3F3F4FE1F2F8014285538564852E
:102430007585415E5F4F6F4F7F4F4287538764873B
:102440007587F0E2FF9EC001112488579C4F0F90C2
:10245000DF91CF911F910F91FF9008954F925F925E
:102460006F927F92AF92BF92CF92DF92EF92FF92E4
:102470000F931F93CF93DF93EC016A017B012D81B2
:10248000222309F457C08B899C89AD89BE898417A2
:102490009507A607B70708F44DC04EC08A859B85EF
:1024A000AC85BD85EB8DFC8DE585F0E03996AC0102
:1024B000BD0141505109610971090E2E04C0769584
:1024C0006795579547950A94D2F797018601015071
:1024D00011092109310904C03695279517950795EB
:1024E000EA95D2F70417150726073707B0F58F8945
:1024F000988DA98DBA8D8E839F83A887B98728016F
:1025000039015E0186E0A80EB11C4114510461043A
:10251000710461F14E815F816885798595018B8DAC
:102520009C8D0E94761791E0491A51086108710844
:102530008111EBCF80E01FC02230C1F0C114D10463
:10254000E104F10409F0AACF1E821F8218861986C1
:102550001A861B861C861D860DC0892B8A2B8B2B09
:1025600031F2041B150B260B370BC9CFCA86DB864D
:10257000EC86FD8681E0DF91CF911F910F91FF9056
:10258000EF90DF90CF90BF90AF907F906F905F9073
:102590004F9008950F931F93CF93DF93EC018D819C
:1025A0008823C9F18C8187FF30C061E0CE010E9491
:1025B0003A108C01009779F18D81823048F44B8973
:1025C0005C896D897E89F801448F558F668F778F7E
:1025D0004F89588D698D7A8DF801538F428F758B95
:1025E000648BE0917F03F0918003309759F0B8013C
:1025F0006A5E7F4FC80148960995F801808D918DDC
:10260000938B828B8C818F778C83DF91CF911F91FD
:102610000F910C94DA1680E0DF91CF911F910F910A
:102620000895CF93DF93EC010E94CA12882319F01A
:102630001D8281E001C080E0DF91CF9108954F922B
:102640005F926F927F92AF92BF92CF92DF92EF92A2
:10265000FF920F931F93CF93DF9300D000D0CDB79D
:10266000DEB75C016A017B01FC0185818130F1F4F8
:10267000848181FF1BC0F50183899489A589B6896E
:1026800084179507A607B70788F0892B8A2B8B2B11
:1026900009F479C0F5014284538464847584B701D8
:1026A000A601C5010E942E12811102C080E06CC0FB
:1026B000F501838D948DC114D104E104F10471F40A
:1026C0004789508D618D728D0E941B1A882371F38A
:1026D000F501178A108E118E128E3AC0F5014681CF
:1026E0005781608571859E012F5F3F4F0E9476174D
:1026F0008823E1F249815A816B817C81F501838DC8
:10270000948DFC012789203129F408EF1FEF20E088
:1027100030E004C008EF1FEF2FEF3FE040175107F4
:1027200062077307A8F40E941B1A882309F4BECF1E
:10273000F50146815781608571850FEF1FEF2FEFFF
:102740003FE0838D948D0E946518882309F4AECFF5
:10275000F501C38AD48AE58AF68A848180688483F5
:10276000C5010E94CA12882309F4A0CFB701A601AF
:102770004C145D046E047F0410F4B301A201C50182
:102780000E942E1201C081E00F900F900F900F90C9
:10279000DF91CF911F910F91FF90EF90DF90CF903D
:1027A000BF90AF907F906F905F904F900895FF9291
:1027B0000F931F93CF93DF93EC01F42E80E2689F79
:1027C000F0011124E857FC4F8385817129F0842F93
:1027D000827411F080E053C06A8B80910E01909159
:1027E0000F01A0911001B09111018E879F87A88BD6
:1027F000B98B4489558960E070E0BA0155274427B8
:10280000028D138D20E030E0402B512B622B732B77
:102810004F8B588F698F7A8F8385887151F4048D1F
:10282000158D268D378D0B8B1C8B2D8B3E8B81E070
:102830000CC0803179F69E012D5E3F4F8B8D9C8DB3
:102840000E94FA17882331F284E08D838F2D8F70D8
:102850008C831E821F82188619861A861B861C8608
:102860001D86F6FE0BC040E050E0BA01CE01DF91BC
:10287000CF911F910F91FF900C941F1381E0DF9176
:10288000CF911F910F91FF900895AF92BF92CF9279
:10289000DF92EF92FF920F931F93CF93DF93CDB709
:1028A000DEB72B970FB6F894DEBF0FBECDBF7C010D
:1028B0006B01CA01B22EF70125812111B9C0BE01F9
:1028C0006F5F7F4F0E945310882309F4B1C0F60157
:1028D000838D948DF701948F838FF6011682178272
:1028E000108611861286138614861586A12CF60191
:1028F000028513852485358583899489A589B689C0
:10290000081719072A073B07E8F545E0369527958C
:10291000179507954A95D1F70F70C6010E94E311EC
:10292000009709F485C0FC012081222311F0253E87
:10293000B9F4A1100EC0F701028B40910E01509125
:102940000F01609110017091110146875787608BCC
:10295000718BFC018081AA24A3948111C8CF12C07D
:102960004BE050E0BC01CE0101960E94FC29892B6E
:1029700009F0BDCF8B2D8073803309F459C04B2DE6
:10298000602F52C08B2D8271823109F051C0AA2074
:1029900041F061E0C7010E943A108C01009779F480
:1029A00047C0F6018581823009F442C0C6010E9409
:1029B000D90F8823E9F1F701128A08E813E080E2D1
:1029C000F80111928A95E9F78BE0FE013196D80162
:1029D00001900D928A95E1F7E0917F03F0918003D9
:1029E000309739F0B801625F7F4FC8014096099572
:1029F00009C081E298E2F801918B808B80E098E039
:102A000097878687F80180899189938B828B918F34
:102A1000808F86859785978B868B0E94DA16882310
:102A200039F04B2DF7016289C7010E94D71301C00D
:102A300080E02B960FB6F894DEBF0FBECDBFDF91BE
:102A4000CF911F910F91FF90EF90DF90CF90BF90AB
:102A5000AF9008952F923F924F925F926F927F9224
:102A60008F929F92AF92BF92CF92DF92EF92FF929E
:102A70000F931F93CF93DF9300D000D01F92CDB759
:102A8000DEB78C017B013A01DC0115968C9115971C
:102A90008130C9F414968C9181FF15C082FF1BC050
:102AA000F801438954896589768982859385A4854F
:102AB000B58584179507A607B70769F0C8010E9476
:102AC0002E12811108C081E090E0F8019383828387
:102AD00080E090E046C1630180C0D8015B968D9193
:102AE0009C915C97FC01F481F150B501A40129E0AF
:102AF00076956795579547952A95D1F7F423FD83E9
:102B000021E09222FF2309F474C080E092E088194A
:102B1000990956018C159D0508F45C01D8015B9656
:102B2000ED91FC915C9716962D903D904D905C90A8
:102B30001997B2E02B1A310841085108058404C0E6
:102B4000220C331C441C551C0A94D2F786859785A9
:102B5000A089B189280E391E4A1E5B1EED812E0EFA
:102B6000311C411C511CA114F2E0BF0609F088C0C1
:102B700080910E0190910F01A0911001B09111016F
:102B800082159305A405B50559F48FEF9FEFDC017D
:102B900080930E0190930F01A0931001B093110147
:102BA0009701B201A10180918603909187030E9451
:102BB0005B0F882309F487CF9EEFF91ACA18DB0848
:102BC000F80182859385A485B5858A0D9B1DA11D7D
:102BD000B11D82879387A487B587D8011A968D90F7
:102BE0009D90AD90BC901D97C114D10409F075CF94
:102BF0008AC08114910409F088CF16964D915D9199
:102C00006D917C911997411551056105710559F434
:102C100057968D919D910D90BC91A02D0097A10587
:102C2000B10541F521C09E012F5F3F4F0E947617ED
:102C3000882309F44ECF89819A81AB81BC81F80148
:102C4000238D348DF9012789203129F448EF5FEF76
:102C500060E070E004C048EF5FEF6FEF7FE0841743
:102C60009507A607B70730F0C8010E94AF0F811182
:102C70004CCF29CFF80186839783A087B18745CFB2
:102C80008114910429F5D8011A964D915D916D91A9
:102C90007C911D9753968D919D910D90BC91A02D87
:102CA000481759076A077B0798F00E94DA168823AD
:102CB00009F409CF20920E0130920F0140921001C9
:102CC000509211018091850381608093850308C033
:102CD00041E0C201B1010E941517882309F4F3CE27
:102CE000C40188579C4FD7019C012A0D3B1DFC0154
:102CF000E217F30719F04D914193FACFE81BF90B56
:102D0000EE0EFF1E5BCF53968D919D910D90BC9161
:102D1000A02DF801248188159905AA05BB0538F472
:102D2000838A948AA58AB68A206824830CC08091FD
:102D30007F0390918003892B31F06114710419F0A5
:102D40002068F8012483D80114968C9183FD02C079
:102D5000C30107C0C8010E94CA12882309F4B3CE78
:102D6000F7CF0F900F900F900F900F90DF91CF91B2
:102D70001F910F91FF90EF90DF90CF90BF90AF9099
:102D80009F908F907F906F905F904F903F902F908B
:102D90000895CF93DF931F92CDB7DEB7698341E0EB
:102DA00050E0BE016F5F7F4F0E942A150F90DF91A8
:102DB000CF91089580918503882399F140910E0168
:102DC00050910F01609110017091110128E833E0DA
:102DD00080918603909187030E945B0F882319F1ED
:102DE0004091810350918203609183037091840329
:102DF000411551056105710591F028E833E0809196
:102E00008603909187030E945B0F882361F01092E4
:102E10008103109282031092830310928403109214
:102E2000850381E0089580E00895CF92DF92EF92CC
:102E3000FF92CF936B017C01C42F80910E01909182
:102E40000F01A0911001B09111018C159D05AE05E7
:102E5000BF05D1F00E94DA16811102C080E01AC0CD
:102E600028E833E0B701A60180918603909187039B
:102E70000E94080F882391F3C0920E01D0920F0197
:102E8000E0921001F0921101809185038C2B8093C8
:102E9000850381E0CF91FF90EF90DF90CF90089570
:102EA000CF92DF92EF92FF926B017C010E94DA16C3
:102EB0008823B1F0E8E8F3E0119285E0E838F807FC
:102EC000D9F7C0920E01D0920F01E0921001F0925A
:102ED00011018091850381608093850381E001C0A9
:102EE00080E0FF90EF90DF90CF9008958F929F92B7
:102EF000AF92BF92CF92DF92EF92FF920F931F9308
:102F0000CF93DF938C016A017B01E901FC0181858C
:102F10009285A385B4850196A11DB11D84179507DF
:102F2000A607B70710F480E058C0F8014389548918
:102F3000658976898789803129F4BB27AF2D9E2D3D
:102F40008D2D09C0D701C60127E0B695A7959795A5
:102F500087952A95D1F74C015D01840E951EA61E1A
:102F6000B71EC501B40180900E0190900F01A09092
:102F70001001B0901101681579058A059B0589F447
:102F8000F8018789803199F4DD24EE24FF24F601CD
:102F9000EE0FFF1FE857FC4F80819181A0E0B0E069
:102FA00017C040E00E9415178111EACFBCCFE8940A
:102FB000C7F8DD24EE24FF24F601EE0FFF1FEE0F0D
:102FC000FF1FE857FC4F80819181A281B381BF70C0
:102FD00088839983AA83BB8381E0DF91CF911F917E
:102FE0000F91FF90EF90DF90CF90BF90AF909F90A8
:102FF0008F9008954F925F926F927F92AF92BF929F
:10300000CF92DF92EF92FF920F931F93CF93DF93B4
:1030100000D000D0CDB7DEB78C0149835A836B83D3
:103020007C835901C12CD12C7601412C42E0542ED5
:10303000612C712C49815A816B817C819E012F5FAB
:103040003F4FC8010E947617882359F1D301C2016E
:10305000F801058404C0880F991FAA1FBB1F0A949A
:10306000D2F7C80ED91EEA1EFB1E49815A816B8118
:103070007C818789803129F488EF9FEFA0E0B0E060
:1030800004C088EF9FEFAFEFBFE0481759076A070A
:103090007B0780F2F501C082D182E282F38281E077
:1030A00001C080E00F900F900F900F90DF91CF91B3
:1030B0001F910F91FF90EF90DF90CF90BF90AF9056
:1030C0007F906F905F904F9008954F925F926F92B4
:1030D0007F928F929F92AF92BF92CF92DF92EF92A8
:1030E000FF920F931F93CF93DF93EC016A017B0153
:1030F00028013901423051056105710508F474C099
:1031000049855A856B857C854F5F5F4F6F4F7F4F39
:103110004C155D056E057F0508F466C08B889C889C
:10312000AD88BE888F89803129F477276F2D5E2D79
:103130004D2D09C0B701A601E7E076956795579533
:103140004795EA95D1F7840E951EA61EB71E4091AD
:103150000E0150910F0160911001709111018416C0
:103160009506A606B70671F48F89803199F4DD249F
:10317000EE24FF24F601EE0FFF1FE857FC4F5182AB
:10318000408218C040E0C501B4010E9415178111AA
:10319000EBCF2AC0E894C7F8DD24EE24FF24F60123
:1031A000EE0FFF1FEE0FFF1FE857FC4F40825182CA
:1031B00062827382809185038160809385038A890E
:1031C000823080F08D819E81AF81B885880D991DF8
:1031D000AA1DBB1D8093810390938203A093830358
:1031E000B093840381E001C080E0DF91CF911F9113
:1031F0000F91FF90EF90DF90CF90BF90AF909F9096
:103200008F907F906F905F904F9008952F923F9294
:103210004F925F926F927F929F92AF92BF92CF92A6
:10322000DF92EF92FF920F931F93CF93DF93CDB76F
:10323000DEB760970FB6F894DEBF0FBECDBF5C015E
:103240004D875E876F87788B1901D9014D905D900E
:103250006D907C90411451046104710431F0BFEF12
:103260004B1A5B0A6B0A7B0A10C0FC01408051803C
:1032700062807380992493940D851E852F853889EB
:10328000013011052105310509F0912CD501199660
:103290002D913D914D915C911C972F5F3F4F4F4F6A
:1032A0005F4F29873A874B875C87730162011D82D4
:1032B0001E821F821886F50181859285A385B485BB
:1032C0000D811E812F813885081719072A073B07B2
:1032D00008F056C029853A854B855C852C153D053F
:1032E0004E055F0550F4A2E0CA2ED12CE12CF12C42
:1032F000B2E04B2E512C612C712C9E012F5F3F4F61
:10330000B701A601C5010E9476178823C9F149813A
:103310005A816B817C81D701C6010196A11DB11D27
:10332000452B462B472B19F02C013D010FC0AC015A
:10333000BD0144195509660977090D851E852F853C
:103340003889401751076207730779F02D813E8154
:103350004F8158852F5F3F4F4F4F5F4F2D833E83E7
:103360004F8358876C017D01A6CF0FEF1FEF2FEF22
:103370003FE0B701A601C5010E946518811118C080
:1033800080E041C0D701C6010197A109B1098D8331
:103390009E83AF83B88797018601AC01BD01C5014B
:1033A0000E946518882361F3CD80DE80EF80F88469
:1033B0004C145D046E047F0428F3D1014D915D919E
:1033C0006D917C91411551056105710599F4F101EB
:1033D00040825182628273829920A1F0FFEF4F1ADE
:1033E0005F0A6F0A7F0AD5014D925D926D927C92C1
:1033F000139708C093018201C5010E9465188111CD
:10340000E6CFBECF81E060960FB6F894DEBF0FBE68
:10341000CDBFDF91CF911F910F91FF90EF90DF9083
:10342000CF90BF90AF909F907F906F905F904F90A4
:103430003F902F900895AF92BF92CF92DF92EF927C
:10344000FF920F931F93CF93DF9300D000D0CDB79F
:10345000DEB75C016A017B0182E090E0A0E0B0E0B1
:10346000F50180839183A283B3839E012F5F3F4F39
:10347000B701A601C5010E947617882311F100E06B
:1034800010E09801B701A601C5010E9465188823C4
:10349000C1F0C980DA80EB80FC80F501878980313A
:1034A00029F488EF9FEFA0E0B0E004C088EF9FEF21
:1034B000AFEFBFE0C816D906EA06FB06B0F281E01E
:1034C00001C080E00F900F900F900F90DF91CF918F
:1034D0001F910F91FF90EF90DF90CF90BF90AF9032
:1034E00008958F929F92AF92BF92CF92DF92EF9208
:1034F000FF920F931F93CF93DF93EC01142F7093E0
:10350000870360938603442341F1453010F080E047
:10351000EFC040E060E070E0CB010E941517882307
:10352000B1F320E1129FF0011124EA5CFA4F80818F
:103530008F7769F784859585A685B785843691054B
:10354000A105B10520F3C084D184E284F384C114C1
:10355000D104E104F10421F4DACFC12CD12C76019D
:1035600040E0C701B6010E941517882381F28091BF
:103570009303909194038115924049F630919803FA
:10358000332329F28091960390919703892B09F4B4
:10359000BECF20919503222309F4B9CF3A8B2C8317
:1035A0001D8630E041E050E06D85062FCA01062EF1
:1035B00002C0880F991F0A94E2F72817390731F0E3
:1035C00081E0860F8D87683078F3A1CF20919E032C
:1035D00030919F032115310519F040E050E008C0FB
:1035E0002091AC033091AD034091AE035091AF03F5
:1035F0002D833E834F835887809196039091970344
:1036000046015701880E991EA11CB11C8B8A9C8A09
:10361000AD8ABE8AE0919903F0919A03F98FE88F01
:10362000A0919803B0E00E94BE27680D791D8A1D05
:103630009B1D6A8F7B8F8C8F9D8F15E0EE0FFF1F78
:103640001A95E1F7E150FE4FEF2FFF27E695DC01D9
:10365000CB018E0F9F1FA11DB11D8E879F87A88B49
:10366000B98B80909B0390909C038114910419F076
:10367000A12CB12C08C08090A8039090A903A09021
:10368000AA03B090AB03A7019601281B390B4A0B84
:103690005B0BDA01C901880D991DAA1DBB1D04C071
:1036A000B695A795979587950A95D2F789879A87B2
:1036B000AB87BC87853F3FE09307A105B10510F4B8
:1036C0008CE014C0853F9F4FA105B10510F480E147
:1036D0000DC08091B4039091B503A091B603B09151
:1036E000B7038A8F9B8FAC8FBD8F80E28F8B81E079
:1036F000DF91CF911F910F91FF90EF90DF90CF90CE
:10370000BF90AF909F908F900895CF93CFB7F894CC
:1037100080918B05811127C0E4E4F1E08491E0E31E
:10372000F1E09491E82FF0E0EE0FFF1FEE59FE4F0D
:10373000A591B4918C91892321F461E08AE00E94E3
:10374000022261E08AE00E94C9218CB580618CBDB3
:103750008CB580648CBD61E08DE00E94C92161E080
:103760008BE00E94C92180918B058F5F80938B0530
:10377000CFBFCF910895FC0171836083538342834F
:103780001482108617820895CF93DF93EC0160E0D6
:1037900088810E94C92160E08A810E94C92161E07C
:1037A00088810E94022261E08A810E9402220E9496
:1037B000F12069877A878B879C87DF91CF91089565
:1037C000CF92DF92EF92FF920F931F93CF93DF93ED
:1037D000EC018B010E94F120C984DA84EB84FC8423
:1037E0006C157D058E059F0528F469877A878B8780
:1037F0009C8716C09B01AC012C193D094E095F093D
:1038000069017A0130E1C316D104E104F10440F00A
:1038100018870F8369877A878B879C8781E001C02F
:1038200080E0DF91CF911F910F91FF90EF90DF909B
:10383000CF900895CF93DF93EC0160E070E00E9499
:10384000E01B882371F08D819E819C0121503109FC
:103850002A30310530F40A9711F41E821D8281E06E
:103860008C83DF91CF9108950F931F93CF93DF93B4
:10387000EC0188810E9438228C018A810E943822C2
:103880002F8138852130310579F022303105D9F08A
:10389000232B29F5012B19F561E070E0CE010E9480
:1038A000E01B811122C01BC00130110521F4CE01A3
:1038B0000E941A1C14C0019791F462E070E0CE01DE
:1038C0000E94E01B0CC00130110589F3892B39F4EB
:1038D00061E070E0CE010E94E01B81110AC08C8182
:1038E000DF91CF911F910F9108951C821E821D823E
:1038F000F6CF8D819E8101969E838D83F0CFFC0152
:103900008481882321F014828581968108958FEF28
:103910009FEF08952091A80530E0220F331FF90191
:10392000E75EFE4F0190F081E02DDC0115968D9150
:103930009C91169791838083F901E15EFE4F01907F
:10394000F081E02D82EB8083E091A805F0E0EE0F9E
:10395000FF1FE35EFE4F0190F081E02D89E180833F
:103960000895CF93DF93EB012A813B81FC013383E0
:1039700022834C815D816E817F8144835583668380
:103980007783488559856A857B854087518762871B
:1039900073872DE0FE013C96DC011C9601900D9290
:1039A0002A95E1F7298D3A8DFC01328F218FDF9125
:1039B000CF9108958CE895E00C9442098CE895E04D
:1039C0000E94B009882311F081E008950895CF92F4
:1039D000DF92EF92FF920F931F93CF93DF93CDB7B8
:1039E000DEB76B970FB6F894DEBF0FBECDBF8C016C
:1039F000AB0121E063E373E0CE0101960E94CB0BA3
:103A0000BE016F5F7F4F8CE895E00E94B11CC8013A
:103A10000E94DE1C882309F451C048E050E060E0B9
:103A200070E0C8010E94DA1C87E5898381E48A83FB
:103A300086E58B8385E48C83CE0101967C016E0143
:103A400095E0C90ED11C8CE895E00E94B708F701FB
:103A500021917F01332727FD30958217930719F4B1
:103A6000EC15FD0581F748E150E060E070E0C80129
:103A70000E94DA1C8CE895E00E94B708F801948354
:103A800083838CE895E00E94B70820E030E0382F6F
:103A9000F80183819481822B932B948383834CE25E
:103AA00050E060E070E0C8010E94DA1C80E490E021
:103AB00090932F0680932E0681E001C080E06B96E4
:103AC0000FB6F894DEBF0FBECDBFDF91CF911F912F
:103AD0000F91FF90EF90DF90CF90089510922C06F9
:103AE000E091A805F0E0EE0FFF1FEF5DFE4F0190A3
:103AF000F081E02D20812E7D20830E94DE1C882312
:103B000021F08CE895E00C949E0908951F920F9285
:103B10000FB60F9211242F933F934F935F936F93A0
:103B20007F938F939F93AF93BF93EF93FF93E09116
:103B30002D0691E0E927F0E0ED5EFE4F80818823BD
:103B400009F466C080912D06892780932B06E091A9
:103B5000A805F0E0EE0FFF1FEF5DFE4F0190F08132
:103B6000E02D80818F7D808378948CE895E00E94A1
:103B70006F0920912E0630912F062817390738F14A
:103B80008091120183FF09C04CE250E060E070E0D8
:103B90008CE895E00E9442092EC0E091A805F0E073
:103BA000EE0FFF1FEF5DFE4F0190F081E02D808151
:103BB0008E7D80838CE895E00E94B009882321F0F7
:103BC0008CE895E00E949E0910922C0621C060911D
:103BD0002B0680E4689FB001112465557A4F40E4BC
:103BE00050E08CE895E00E943809E0912B06F0E067
:103BF000ED5EFE4F1082E091A805F0E0EE0FFF1F92
:103C0000EF5DFE4F0190F081E02D80818062808326
:103C1000FF91EF91BF91AF919F918F917F916F91A4
:103C20005F914F913F912F910F900FBE0F901F907A
:103C300018951F920F920FB60F9211242F933F9356
:103C40008F939F93AF93BF93CF93DF93EF93FF93A4
:103C50008091120186FD2BC02091A9058091A805B5
:103C600027FF30C090E0880F991FFC01E55EFE4FF2
:103C7000A081B181FC01EB5EFE4FC081D181E0915A
:103C80002D068091AA0590E4E99FF0011124E80F28
:103C9000F11DE555FA4F808190E0332721950CF412
:103CA000309502C0959587952A95E2F72BC08091B3
:103CB000A70591E089278093A7058091A705882310
:103CC00059F23CC090E0880F991FFC01E55EFE4F61
:103CD000A081B181FC01EB5EFE4FC081D181E091FA
:103CE0002D068091AA0590E4E99FF0011124E80FC8
:103CF000F11DE555FA4F808190E002C0880F991FB1
:103D00002A95E2F79983888311969C938E938091EC
:103D1000AA058F5F8093AA058091AA05803470F070
:103D20001092AA05E0912D06F0E0ED5EFE4F91E0C5
:103D3000908380912D06892780932D06FF91EF9126
:103D4000DF91CF91BF91AF919F918F913F912F9133
:103D50000F900FBE0F901F9018956F927F928F92C9
:103D60009F92AF92BF92CF92DF92EF92FF920F930A
:103D70001F93CF93DF93EC0110922C06E091A805DE
:103D8000F0E0EE0FFF1FEF5DFE4F0190F081E02DA0
:103D900080818E7D8083CE010E94DE1C882321F0ED
:103DA0008CE895E00E949E094091A80550E0440FE0
:103DB000551FFA01E15EFE4F60807180D3018C9146
:103DC00087FD1DC080911201806280931201FA016B
:103DD000E35EFE4F0190F081E02D1082F30110822E
:103DE000DF91CF911F910F91FF90EF90DF90CF90D7
:103DF000BF90AF909F908F907F906F900895FA0141
:103E0000E55EFE4F00811181D8012D913C9180E04B
:103E100090E0FA01EB5EFE4F4F01BA01695E7E4F02
:103E20005B016D817E818617970760F6D401ED9066
:103E3000FC9037FD06C0F9016217730720F4FB01FF
:103E400002C0E0E0F0E0D7011196FC93EE9337FD5D
:103E500008C0ED81FE81B901E217F30720F4BF012C
:103E600002C060E070E0F80171836083D501ED90DD
:103E7000FC90ED81FE81F2976AE070E0D701CD9071
:103E8000DC90CE16DF06D0F361507109B9F70196C8
:103E900021503109C6CFCF93DF93EC010E94AD1EB4
:103EA00061E088810E94C9218881863031F08E329C
:103EB00041F0853041F481E001C082E08093A805A3
:103EC00004C083E0FBCF1092A8058DB581608DBD45
:103ED0008CB58C7F8CBDDF91CF910895CF92DF920E
:103EE000EF92FF920F931F93CF93DF9300D000D0F8
:103EF000CDB7DEB78C017B01FC01908187819817DB
:103F000071F0C80129833A834B835C830E944B1F65
:103F1000F801808187835C814B813A812981C801C6
:103F200029833A834B835C830E946E1DB701C801CD
:103F30000E94E71C29813A814B815C81882309F426
:103F4000F0C02115310541055105A1F0F801A3810B
:103F5000B4810E94BE276B017C018CE895E00E9431
:103F60004F09AB01BC014C0D5D1D6E1D7F1DC801CD
:103F70000E94DA1C81E080932C0640911201842F6C
:103F80008F7780931201F801838194818B3F9F4A40
:103F900028F080EC9DE5F80194838383F801238168
:103FA000348146FF07C040E050E060E075E38CE0FC
:103FB00090E006C040E050E060E07AE688E190E002
:103FC0000E9499276AE0629FC001639F900D1124AF
:103FD000F801968385838CE895E00E94B7087C0100
:103FE0008CE895E00E94C1088E0D9F1D97FD0196FB
:103FF000959587954091A905E091A805F0E0EE0F11
:10400000FF1FE55EFE4F0190F081E02D20813181A0
:10401000141634F402C0369527954A95E2F709C084
:10402000552741950CF4509502C0220F331F4A9535
:10403000E2F7992740E050E02817390708F044C01C
:10404000B9016F5F7F4F6217730728F09B018617D6
:10405000970708F49C01FA01E555FA4F20834F5F5A
:104060005F4F4034510561F740E050E0B9016F5FA8
:104070007F4F6217730728F09B018617970708F494
:104080009C01FA01E551FA4F20834F5F5F4F4034A6
:10409000510561F710922D06109213011092140130
:1040A0001092AA05F894C8010E948A1CE091A80504
:1040B000F0E0EE0FFF1FEF5DFE4F0190F081E02D6D
:1040C00081E2808378942DC0B9016150710968172D
:1040D000790728F06217730718F49B0101C09C014F
:1040E000FA01E555FA4F20834F5F5F4F4034510589
:1040F00059F740E050E0B90161507109681779073C
:1041000028F06217730718F49B0101C09C01FA01A3
:10411000E551FA4F20834F5F5F4F4034510559F707
:10412000B9CF0F900F900F900F90DF91CF911F910B
:104130000F91FF90EF90DF90CF90089520E030E056
:10414000A9010C946E1F8CE895E00C9425091F9230
:104150000F920FB60F9211242F933F938F939F933B
:10416000AF93BF938091310690913206A0913306B0
:10417000B09134063091300623E0230F2D3720F420
:104180000196A11DB11D05C026E8230F0296A11DB1
:10419000B11D209330068093310690933206A09390
:1041A0003306B09334068091350690913606A0917F
:1041B0003706B09138060196A11DB11D80933506D2
:1041C00090933606A0933706B0933806BF91AF910F
:1041D0009F918F913F912F910F900FBE0F901F9045
:1041E00018952FB7F894609131067091320680913E
:1041F0003306909134062FBF08953FB7F89480910D
:10420000350690913606A0913706B091380626B54E
:10421000A89B05C02F3F19F00196A11DB11D3FBFFE
:104220006627782F892F9A2F620F711D811D911D8E
:1042300042E0660F771F881F991F4A95D1F70895AE
:104240008F929F92AF92BF92CF92DF92EF92FF92A6
:104250006B017C010E94FD204B015C01C114D10463
:10426000E104F104F1F00E9431260E94FD2068195A
:1042700079098A099B09683E73408105910570F3AD
:1042800021E0C21AD108E108F10888EE880E83E027
:10429000981EA11CB11CC114D104E104F10429F73A
:1042A000DDCFFF90EF90DF90CF90BF90AF909F90C9
:1042B0008F9008958230910538F0880F991F880FEC
:1042C000991F05970197F1F70895789484B5826056
:1042D00084BD84B5816084BD85B5826085BD85B5AA
:1042E000816085BDEEE6F0E0808181608083E1E859
:1042F000F0E0108280818260808380818160808391
:10430000E0E8F0E0808181608083E1EBF0E0808193
:1043100084608083E0EBF0E0808181608083EAE765
:10432000F0E08081846080838081826080838081EE
:10433000816080838081806880831092C1000895AD
:10434000833081F028F4813099F08230A1F0089513
:104350008730A9F08830B9F08430D1F480918000A2
:104360008F7D03C0809180008F77809380000895B7
:1043700084B58F7702C084B58F7D84BD0895809108
:10438000B0008F7703C08091B0008F7D8093B00024
:104390000895CF93DF9390E0FC01EA5DFE4F2491F6
:1043A000FC01E65CFE4F8491882349F190E0880F80
:1043B000991FFC01EE59FE4FA591B491885A9E4F6A
:1043C000FC01C591D4919FB7611108C0F8948C91FC
:1043D000209582238C93888182230AC0623051F415
:1043E000F8948C91322F309583238C938881822B83
:1043F000888304C0F8948C91822B8C939FBFDF91AB
:10440000CF9108950F931F93CF93DF931F92CDB752
:10441000DEB7282F30E0F901EE5EFE4F8491F901FE
:10442000EA5DFE4F1491F901E65CFE4F0491002312
:10443000C9F0882321F069830E94A0216981E02FBF
:10444000F0E0EE0FFF1FE85AFE4FA591B4919FB721
:10445000F8948C91611103C01095812301C0812BC8
:104460008C939FBF0F90DF91CF911F910F91089573
:10447000CF93DF93282F30E0F901EE5EFE4F849159
:10448000F901EA5DFE4FD491F901E65CFE4FC4915B
:10449000CC2391F081110E94A021EC2FF0E0EE0FCF
:1044A000FF1FE25BFE4FA591B4912C912D2381E07B
:1044B00090E021F480E002C080E090E0DF91CF91B5
:1044C0000895FC01818D228D90E0805C9F4F821BBE
:1044D00091098F7399270895FC01918D828D98170A
:1044E00031F0828DE80FF11D858D90E008958FEFFA
:1044F0009FEF0895FC01918D828D981761F0828D58
:10450000DF01A80FB11D5D968C91928D9F5F9F7307
:10451000928F90E008958FEF9FEF08958EEF93E2D2
:10452000892B49F080E090E0892B29F00E94FE233E
:1045300081110C9400000895FC01848DDF01A80F07
:10454000B11DA35ABF4F2C91848D90E001968F73BB
:104550009927848FA689B7892C93A089B1898C91DA
:1045600080648C93938D848D981306C00288F389A0
:10457000E02D80818F7D80830895CF93DF93EC01C0
:10458000888D8823C9F0EA89FB89808185FD05C073
:10459000A889B9898C9186FD0FC00FB607FCF5CFAD
:1045A000808185FFF2CFA889B9898C9185FFEDCFF5
:1045B000CE010E949C22E7CFDF91CF910895CF9248
:1045C000DF92FF920F931F93CF93DF931F92CDB78C
:1045D000DEB76C0181E0D60158968C9358975B96B4
:1045E0009C915B975C968C915C97981307C0509652
:1045F000ED91FC915197808185FD2EC0F601038DD0
:1046000010E00F5F1F4F0F731127F02EF601848DFE
:10461000F81211C00FB607FCF9CFD6015096ED91F4
:10462000FC915197808185FFF1CFC60169830E947B
:104630009C226981EBCF838DE80FF11DE35AFF4F78
:104640006083D6015B960C935B975296ED91FC913B
:104650005397808180620CC0D6015696ED91FC91F3
:10466000579760835096ED91FC91519780818064BB
:10467000808381E090E00F90DF91CF911F910F91A7
:10468000FF90DF90CF900895BF92CF92DF92EF928C
:10469000FF92CF93DF93EC016A017B01B22EE88990
:1046A000F98982E08083411581EE58076105710523
:1046B000A1F060E079E08DE390E0A70196010E940F
:1046C000772721503109410951095695479537956A
:1046D0002795211580E1380798F0E889F98910823B
:1046E00060E874E88EE190E0A70196010E947727C8
:1046F000215031094109510956954795379527951C
:10470000EC85FD853083EE85FF852083188EEC894E
:10471000FD89B082EA89FB89808180618083EA8992
:10472000FB89808188608083EA89FB898081806839
:104730008083EA89FB8980818F7D8083DF91CF919F
:10474000FF90EF90DF90CF90BF9008951F920F924F
:104750000FB60F9211242F938F939F93EF93FF9394
:10476000E0914906F0914A068081E0914F06F09170
:10477000500682FD12C09081809152068F5F8F7328
:1047800020915306821751F0E0915206F0E0E75C69
:10479000F94F958F8093520601C08081FF91EF9170
:1047A0009F918F912F910F900FBE0F901F90189592
:1047B0001F920F920FB60F9211242F933F934F9396
:1047C0005F936F937F938F939F93AF93BF93EF9379
:1047D000FF9389E396E00E949C22FF91EF91BF91A5
:1047E000AF919F918F917F916F915F914F913F9189
:1047F0002F910F900FBE0F901F90189589E396E0B0
:104800000E94612221E0892B09F420E0822F089583
:1048100010923C0610923B0688EE93E0A0E0B0E0D8
:1048200080933D0690933E06A0933F06B0934006CA
:104830008EE992E090933A068093390685EC90E0F9
:10484000909346068093450684EC90E0909348064A
:104850008093470680EC90E090934A068093490647
:1048600081EC90E090934C0680934B0682EC90E0B4
:1048700090934E0680934D0686EC90E09093500600
:1048800080934F06109252061092530610925406CF
:10489000109255060895CF92DF92EF92FF920F93F8
:1048A0001F93CF93DF937C016A01EB0100E010E0DE
:1048B0000C151D0571F06991D701ED91FC910190E6
:1048C000F081E02DC7010995892B19F00F5F1F4F6B
:1048D000EFCFC801DF91CF911F910F91FF90EF9023
:1048E000DF90CF9008956115710581F0DB010D9087
:1048F0000020E9F7AD0141505109461B570BDC017F
:10490000ED91FC910280F381E02D099480E090E02C
:104910000895EF92FF920F931F93CF93DF938C0133
:104920007B01C0E0D0E0F701EC0FFD1F649166232E
:1049300059F0F801A081B181ED91FC91C801099570
:10494000892B11F02196EFCFCE01DF91CF911F91EE
:104950000F91FF90EF9008950C9473246AEA72E02F
:104960000C9473240F931F93CF93DF93EC010E9459
:1049700089248C01CE010E94AE24800F911FDF910B
:10498000CF911F910F910895FC01808191810C942A
:104990007028CF93DF93EC0188819981009711F003
:1049A0000E947028198218821D821C821B821A8222
:1049B000DF91CF9108950F931F93CF93DF93EC0175
:1049C0008B016F5F7F4F888199810E94FF2800973C
:1049D00031F0998388831B830A8381E001C080E0E2
:1049E000DF91CF911F910F910895CF93DF93EC0149
:1049F00088819981892B29F08A819B818617970765
:104A000060F4CE010E94DB24882341F08C819D81DB
:104A1000892B19F4E881F981108281E0DF91CF912F
:104A20000895EF92FF920F931F93CF93DF93EC01C2
:104A30007B018A01BA010E94F524811104C0CE01D4
:104A40000E94C92407C01D830C83B7018881998106
:104A50000E94262ACE01DF91CF911F910F91FF90E6
:104A6000EF900895FC011182108213821282158248
:104A700014826115710559F0FB0101900020E9F7DE
:104A8000AF0141505109461B570B0C941125089555
:104A9000CF93DF93EC01FB018617970761F06081EC
:104AA00071816115710529F0448155810E9411259C
:104AB00002C00E94C924CE01DF91CF910895FC016C
:104AC0001182108213821282158214820C9448255E
:104AD000CF93DF93EC016115710561F0FB0101904B
:104AE0000020E9F7AF0141505109461B570B0E94C6
:104AF000112502C00E94C924CE01DF91CF910895F3
:104B0000EF92FF920F931F93CF93DF93EC017B0102
:104B10000C811D816115710511F480E016C04115ED
:104B2000510591F0040F151FB8010E94F524882348
:104B3000A1F3288139818C819D81B701820F931F58
:104B40000E94262A1D830C8381E0DF91CF911F9163
:104B50000F91FF90EF900895CF93DF9300D0CDB7E2
:104B6000DEB769831A8241E050E0BE016F5F7F4F7C
:104B70000E9480250F900F90DF91CF910895CF93E1
:104B8000DF93EC010E94AC25811103C0CE010E948D
:104B9000C924CE01DF91CF910895FC012481358194
:104BA000232B31F421E061157105A1F0FB0108C050
:104BB000FC01808191816115710531F421E0FC01D6
:104BC0008081882339F005C00E941D2A21E0892BAD
:104BD00009F020E0822F08950F931F93CF93DF9366
:104BE000EB0141155105E9F02097D9F0FC016481F2
:104BF000758126173707A0F4621B730B8A010150D9
:104C000011096017710708F48B01FC016081718143
:104C1000620F731FA801CE010E942D2AC00FD11F61
:104C20001882DF91CF911F910F910895FC0180812F
:104C30009181009711F00C94CD2960E070E0CB01D8
:104C4000089508950E9465210E9421260E940C0863
:104C5000CEE8D2E20E94C4062097E1F30E948E22A1
:104C6000F9CF08956CD008F481E00895BCD088F0A5
:104C70009F5790F0B92F9927B751A0F0D1F0660F48
:104C8000771F881F991F1AF0BA95C9F712C0B13063
:104C900081F0C3D0B1E00895C0C0672F782F882776
:104CA000B85F39F0B93FCCF3869577956795B395A2
:104CB000D9F73EF490958095709561957F4F8F4F11
:104CC0009F4F0895E89409C097FB3EF49095809516
:104CD000709561957F4F8F4F9F4F9923A9F0F92FC2
:104CE00096E9BB279395F695879577956795B79540
:104CF000F111F8CFFAF4BB0F11F460FF1BC06F5F26
:104D00007F4F8F4F9F4F16C0882311F096E911C037
:104D1000772321F09EE8872F762F05C0662371F058
:104D200096E8862F70E060E02AF09A95660F771F6C
:104D3000881FDAF7880F9695879597F90895990F48
:104D40000008550FAA0BE0E8FEEF16161706E80755
:104D5000F907C0F012161306E407F50798F0621B76
:104D6000730B840B950B39F40A2661F0232B242B4B
:104D7000252B21F408950A2609F4A140A6958FEF6A
:104D8000811D811D089597F99F6780E870E060E0BC
:104D900008959FEF80EC089500240A9416161706D4
:104DA00018060906089500240A941216130614061C
:104DB00005060895092E0394000C11F4882352F07F
:104DC000BB0F40F4BF2B11F460FF04C06F5F7F4F37
:104DD0008F4F9F4F089557FD9058440F551F59F01E
:104DE0005F3F71F04795880F97FB991F61F09F3FD8
:104DF00079F087950895121613061406551FF2CF01
:104E00004695F1DF08C0161617061806991FF1CF50
:104E100086957105610508940895E894BB27662777
:104E20007727CB0197F908950BD0C4CFB5DF28F0D1
:104E3000BADF18F0952309F0A6CFABCF1124EECF3F
:104E4000CADFA0F3959FD1F3950F50E0551F629FE5
:104E5000F001729FBB27F00DB11D639FAA27F00DD3
:104E6000B11DAA1F649F6627B00DA11D661F829FFA
:104E70002227B00DA11D621F739FB00DA11D621FDF
:104E8000839FA00D611D221F749F3327A00D611DFC
:104E9000231F849F600D211D822F762F6A2F1124DE
:104EA0009F5750408AF0E1F088234AF0EE0FFF1F31
:104EB000BB1F661F771F881F91505040A9F79E3F68
:104EC000510570F060CFAACF5F3FECF3983EDCF362
:104ED000869577956795B795F795E7959F5FC1F7A5
:104EE000FE2B880F911D9695879597F90895A1E25D
:104EF0001A2EAA1BBB1BFD010DC0AA1FBB1FEE1F54
:104F0000FF1FA217B307E407F50720F0A21BB30B9E
:104F1000E40BF50B661F771F881F991F1A9469F71A
:104F200060957095809590959B01AC01BD01CF0176
:104F30000895052E97FB1EF400940E94B02757FD9C
:104F400007D00E94772707FC03D04EF40C94B027BB
:104F500050954095309521953F4F4F4F5F4F0895A5
:104F600090958095709561957F4F8F4F9F4F0895D5
:104F7000EE0FFF1F0590F491E02D09940E94C927C0
:104F8000A59F900DB49F900DA49F800D911D11249D
:104F90000895A29FB001B39FC001A39F700D811D12
:104FA0001124911DB29F700D811D1124911D089532
:104FB000CF93DF938230910510F482E090E0E0918E
:104FC000D806F091D90620E030E0A0E0B0E03097BC
:104FD00039F14081518148175907B8F048175907EE
:104FE00071F482819381109729F013969C938E938C
:104FF00012972CC09093D9068093D80627C021150C
:10500000310531F04217530718F0A901DB0101C047
:10501000EF019A01BD01DF010280F381E02DD7CFBE
:1050200021153105F9F0281B390B2430310580F4A6
:105030008A819B816115710521F0FB019383828335
:1050400004C09093D9068093D806FE01329644C0DE
:10505000FE01E20FF31F81939193225031093983AE
:1050600028833AC02091D6063091D706232B41F4ED
:1050700020910201309103013093D7062093D60688
:1050800020910001309101012115310541F42DB726
:105090003EB74091040150910501241B350BE0916E
:1050A000D606F091D706E217F307A0F42E1B3F0BAC
:1050B0002817390778F0AC014E5F5F4F241735078A
:1050C00048F04E0F5F1F5093D7064093D60681934A
:1050D000919302C0E0E0F0E0CF01DF91CF9108951D
:1050E000CF93DF93009709F487C0FC0132971382B6
:1050F0001282C091D806D091D906209781F42081E0
:105100003181280F391F8091D6069091D7068217DA
:10511000930779F5F093D706E093D6066DC0DE01CC
:1051200020E030E0AE17BF0750F412964D915C912D
:1051300013979D014115510509F1DA01F3CFB383AE
:10514000A28340815181840F951F8A179B0771F4B8
:105150008D919C911197840F951F02969183808366
:1051600012968D919C91139793838283211531051B
:1051700029F4F093D906E093D8063EC0D9011396DE
:10518000FC93EE9312974D915D91A40FB51FEA1712
:10519000FB0779F480819181840F951F0296D901D4
:1051A00011969C938E938281938113969C938E93F8
:1051B0001297E0E0F0E08A819B81009719F0FE01F0
:1051C000EC01F9CFCE01029628813981820F931F1D
:1051D0002091D6063091D7062817390769F4309701
:1051E00029F41092D9061092D80602C013821282B6
:1051F000D093D706C093D606DF91CF910895A0E053
:10520000B0E0E5E0F9E20C946D2EEC01CB012097C3
:1052100019F40E94D827B8C0FE01E60FF71F9E01BF
:1052200022503109E217F30708F4ACC0D9010D91FF
:105230001C91119706171707B8F00530110508F4EF
:105240009FC0A801445051094617570708F498C059
:1052500002501109061B170B019311936D937C9358
:10526000CF010E9470288CC05B01A01AB10A4E01C8
:10527000800E911EA091D806B091D906612C712C98
:1052800060E070E0109709F449C0A815B905C9F5A8
:10529000ED90FC901197670142E0C40ED11CCA1436
:1052A000DB0478F147018A189B08640142E0C40ED0
:1052B000D11C1296BC9012971396AC91B5E0CB1608
:1052C000D10440F0B282A38391828082D9018D9370
:1052D0009C9309C00E5F1F4F0E0D1F1DF901118316
:1052E0000083EB2DFA2F6115710531F0DB01139668
:1052F000FC93EE93129744C0F093D906E093D8063E
:105300003FC06D917C9111976616770608F43B01BA
:10531000BD0112960D90BC91A02DB4CF6091D60620
:105320007091D70668157905E9F468167906D0F406
:1053300040910001509101014115510541F44DB7D3
:105340005EB76091040170910501461B570BE4178D
:10535000F507C0F4F093D706E093D606F9019183E0
:1053600080830EC00E94D8277C01009759F0A801C5
:10537000BE010E94092ACE010E947028C70104C004
:10538000CE0102C080E090E0CDB7DEB7EEE00C9435
:10539000892E662777270C94452C1F93FC019927AB
:1053A0008827BC01E89411911032E9F3193010F00C
:1053B0001E30C8F31B3251F01D3249F4689406C008
:1053C0000E943C2A610F711D811D911D1191105386
:1053D0001A30B0F33EF490958095709561957F4FAB
:1053E0008F4F9F4F1F9108959111B2C3803219F0D2
:1053F00089508550D0F70895FB01DC0104C08D91E0
:105400000190801921F441505040C8F7881B990B36
:105410000895FB01DC0102C001900D924150504003
:10542000D8F70895FC018191861721F08823D9F7D8
:10543000992708953197CF010895FB01DC018D91E3
:10544000019080190110D9F3990B0895FB01DC013B
:1054500001900D920020E1F70895FB01DC0141501D
:10546000504048F001900D920020C9F701C01D92F4
:1054700041505040E0F70895592F482F372F262FDD
:10548000660F771F881F991F660F771F881F991F48
:10549000620F731F841F951F660F771F881F991F48
:1054A0000895AEE0B0E0E7E5FAE20C94772E0D89BE
:1054B0001E8986E08C831A8309838FEF9FE79E8382
:1054C0008D83AE01475E5F4F6F89788DCE01019667
:1054D0000E94732AEF81F885E00FF11F10822E964B
:1054E000E4E00C94932EACE0B0E0E9E7FAE20C942F
:1054F000692E7C016B018A01FC011782168283816F
:1055000081FFBDC1CE0101964C01F7019381F601E7
:1055100093FD859193FF81916F01882309F4ABC1BD
:10552000853239F493FD859193FF81916F01853226
:1055300029F4B70190E00E94D92DE7CF512C312CEE
:1055400020E02032A0F48B3269F030F4803259F040
:10555000833269F420612CC08D3239F0803339F404
:10556000216026C02260246023C0286021C027FD5E
:1055700027C030ED380F3A3078F426FF06C0FAE045
:105580005F9E300D1124532E13C08AE0389E300DDB
:105590001124332E20620CC08E3221F426FD6BC103
:1055A000206406C08C3611F4206802C0883641F4AD
:1055B000F60193FD859193FF81916F018111C1CF18
:1055C000982F9F7D9554933028F40C5F1F4FFFE375
:1055D000F9830DC0833631F0833771F0833509F0DC
:1055E0005BC022C0F801808189830E5F1F4F442475
:1055F0004394512C540115C03801F2E06F0E711C18
:10560000F801A080B18026FF03C0652D70E002C0C4
:105610006FEF7FEFC5012C870E94CE2D2C018301F7
:105620002C852F77222E17C03801F2E06F0E711CE7
:10563000F801A080B18026FF03C0652D70E002C094
:105640006FEF7FEFC5012C870E94C32D2C012C85A5
:105650002068222E830123FC1BC0832D90E0481676
:105660005906B0F4B70180E290E00E94D92D3A9437
:10567000F4CFF50127FC859127FE81915F01B701E9
:1056800090E00E94D92D31103A94F1E04F1A510860
:105690004114510471F7E5C0843611F0893639F5AB
:1056A000F80127FF07C060817181828193810C5FBF
:1056B0001F4F08C060817181882777FD8095982FE2
:1056C0000E5F1F4F2F76B22E97FF09C090958095E1
:1056D000709561957F4F8F4F9F4F2068B22E2AE0C3
:1056E00030E0A4010E940B2EA82EA81844C08537D4
:1056F00029F42F7EB22E2AE030E025C0F22FF97F68
:10570000BF2E8F36C1F018F4883579F0B4C08037D9
:1057100019F0883721F0AFC02F2F2061B22EB4FED0
:105720000DC08B2D8460B82E09C024FF0AC09F2FA6
:105730009660B92E06C028E030E005C020E130E0D8
:1057400002C020E132E0F801B7FE07C0608171813C
:10575000828193810C5F1F4F06C06081718180E060
:1057600090E00E5F1F4FA4010E940B2EA82EA818D8
:10577000FB2DFF77BF2EB6FE0BC02B2D2E7FA51461
:1057800050F4B4FE0AC0B2FC08C02B2D2E7E05C01A
:105790007A2C2B2D03C07A2C01C0752C24FF0DC050
:1057A000FE01EA0DF11D8081803311F4297E09C0CC
:1057B00022FF06C07394739404C0822F867809F088
:1057C000739423FD13C020FF06C05A2C731418F4E1
:1057D000530C5718732C731468F4B70180E290E0EF
:1057E0002C870E94D92D73942C85F5CF731410F457
:1057F000371801C0312C24FF12C0B70180E390E0BC
:105800002C870E94D92D2C8522FF17C021FF03C0B1
:1058100088E590E002C088E790E0B7010CC0822FD5
:10582000867859F021FD02C080E201C08BE227FD9D
:105830008DE2B70190E00E94D92DA51438F4B7018C
:1058400080E390E00E94D92D5A94F7CFAA94F401F6
:10585000EA0DF11D8081B70190E00E94D92DA110C1
:10586000F5CF332009F451CEB70180E290E00E94D9
:10587000D92D3A94F6CFF7018681978102C08FEF38
:105880009FEF2C96E2E10C94852EA0E0B0E0EBE4D3
:10589000FCE20C946F2E8B016115710521F0DB0188
:1058A0008C9311969C93EC015E01BFEFAB1ABB0A7F
:1058B0007501C8808C2D90E00E94F429892B11F08D
:1058C000E501F2CFEDE2CE1208C07E01F2E0EF0E6C
:1058D000F11CC980DD24D39409C02BE2C21205C09B
:1058E0007E0142E0E40EF11CC980D12CE701219732
:1058F00043E050E064E771E0CE010E94AB2D892BBC
:10590000C1F4239645E050E06FE671E0CE010E94BD
:10591000AB2D892B09F425960115110519F0D80135
:10592000CD93DC93D11006C160E070E080E89FE782
:105930000AC143E050E06CE671E0CE010E94AB2D5D
:10594000892B59F40115110509F4F9C0B2E0EB0EE9
:10595000F11CF801F182E082F2C0F70160E070E032
:10596000CB01C0E0D0E07F01A0EDAA2EAC0C29E075
:105970002A1530F14D2D4260B42E2D2D2870D2FE07
:1059800004C0211125C0219623C021112197A5E033
:10599000B0E09B01AC010E94BE27660F771F881FF5
:1059A000991F6A0D711D811D911D6839A9E97A073A
:1059B0008A07A9E19A0760F0BD2DB660BB2E08C02A
:1059C0002EEFA2120AC0D3FC50C04D2D4860B42E59
:1059D0003196D701CC90DB2CC6CF2C2D2F7D2534D2
:1059E00009F043C0A081AD3241F4BD2DB061DB2E82
:1059F0007F0122E0E20EF11C0CC07F01AB3231F0DE
:105A00004FEFE41AF40A21E030E006C0A2E0EA0E0B
:105A1000F11CA18122E030E0A053AA3018F0E21A74
:105A2000F30A23C0F70120E030E02038BCE03B0758
:105A30005CF4A901440F551F440F551F240F351F57
:105A4000220F331F2A0F311DAF014F5F5F4F7A01C5
:105A5000A081A053AA3010F4FA01E7CFD4FE03C00E
:105A6000319521953109C20FD31FD1FE09C001150F
:105A7000110531F0E1E0EE1AF108D801ED92FC9247
:105A80000E9462262D2D2370233019F04B015C01FA
:105A900006C04B015C01B7FAB094B7F8B09420E0AF
:105AA00030E0A901C501B4010E943226882309F41F
:105AB0003EC0D7FF06C0D195C195D1090BE811E0D2
:105AC00002C003EA11E06801B8E1CB1AD10890E204
:105AD000E92EF12CCE15DF0574F0F80125913591F2
