:100000000C9494000C94BC000C94BC000C94BC00A8
:100010000C94BC000C94BC000C94BC000C94BC0070
:100020000C94BC000C94BC000C94000A0C94BC0012
:100030000C94BC000C94B2090C94BC000C94BC0051
:100040000C9468090C94BC000C945B080C94350863
:100050000C94BC000C94BC000C94BC000C94BC0030
:100060000C94BC000C94BC00331A361A4B1A621A5A
:10007000961AA71AAC1AB21B9D1CA71CC31CCF1C36
:100080004E414E494E495459494E46CDCCCC3D0A7D
:10009000D7233C17B7D13877CC2B329595E6241F60
:1000A000B14F0A000020410000C84200401C462019
:1000B000BCBE4CCA1B0E5AAEC59D74000000002485
:1000C0000027002A000102040810204080010204D9
:1000D000081020010204081020040404040404048D
:1000E000040202020202020303030303037C3C3EF8
:1000F0005E2B3D3F2F5B5D3B2C2A225C0000000005
:1001000000250028002B0000000000230026002905
:1001100000000000080002010000030407000000C6
:100120000000000000001F1E11241FBECFEFD8E00A
:10013000DEBFCDBF26E0AAECB2E001C01D92AC3D0F
:10014000B207E1F712E0A0E0B1E0E6E3FEE402C0AE
:1001500005900D92AA3CB107D9F710E0C4E9D0E0B0
:1001600004C02197FE010E941422C339D107C9F7A8
:100170000E943B170C9419270C940000E0914D0647
:10018000F0914E06309729F08581882311F081E0A7
:1001900008950895CF92DF92EF92FF920F931F93ED
:1001A000CF93DF93EC010E945C090091BE06109191
:1001B000BF062091C0063091C10660177107820703
:1001C000930748F46093BE067093BF068093C00601
:1001D0009093C1061BC06B017C01C01AD10AE20AD0
:1001E000F30A97018601003111052105310570F0F0
:1001F000D093BD06C093BC066093BE067093BF0645
:100200008093C0069093C10681E001C080E0DF9139
:10021000CF911F910F91FF90EF90DF90CF900895B5
:1002200080E090E00E94CA00882399F08091BA068D
:100230009091BB069C01215031092A30310548F4C8
:100240000A9721F41092BB061092BA0681E08093BF
:10025000B9060895CF93DF93EC016A8B80910B016F
:1002600090910C01A0910D01B0910E018E879F8796
:10027000A88BB98B80E2689FF0011124E157FC4FF5
:100280004489558960E070E0BA01552744274F8BB7
:10029000588F698F7A8F828D938DA0E0B0E0482BC4
:1002A000592B6A2B7B2B4F8B588F698F7A8F8385C5
:1002B000887151F4848D958DA68DB78D8B8B9C8B19
:1002C000AD8BBE8B81E00EC0803111F080E015C097
:1002D0009E012D5E3F4F8B8D9C8D0E94280C8823A4
:1002E000A9F384E08D8381E08C831E821F821886AF
:1002F00019861A861B861C861D86DF91CF9108956C
:10030000CF93DF938091B5060E948D08EC01809118
:10031000B7060E948D082091BC063091BD062130A1
:10032000310571F022303105B9F0232BF9F4CD2BD2
:10033000E9F481E090E00E94CA0081111CC016C05F
:10034000219719F40E94100111C0019779F482E0FD
:1003500090E00E94CA000AC02197A1F3892B31F4D2
:1003600081E090E00E94CA0081110CC08091B90622
:10037000DF91CF9108951092B9061092BB061092AA
:10038000BA06F4CF8091BA069091BB06019690937D
:10039000BB068093BA06EACF20914D0630914E06F7
:1003A0002115310541F0AB01BC01C9010E94110FBB
:1003B00091E0811101C090E0892F0895AF92BF9222
:1003C000CF92DF92EF92FF920F931F93CF93DF9321
:1003D000CDB7DEB72B970FB6F894DEBF0FBECDBFFB
:1003E0007C01FC0185818111C2C0CE0101966C01A6
:1003F000FC0190E28BE08C0D91938E13FDCFDA011E
:1004000020E037E09D91992339F19E3219F0EDEE0D
:10041000F0E00AC03A3009F4AAC028E03AE0F2CF8E
:100420003196891709F4A3C084918111F9CF32174D
:1004300008F49DC08FED890F8E3508F098C081E0DB
:10044000820FF601E20FF11D2FE9290F2A3108F47E
:1004500090529083282FD6CF8981803209F487C0AB
:100460008B01FB01838D948DF701948F838FFB01AA
:1004700016821782108611861286138614861586B8
:10048000A12CF80182859385A485B585438954897B
:100490006589768984179507A607B70708F067C0AE
:1004A00025E0B695A795979587952A95D1F7F82FCA
:1004B000FF70BF2EF8018581823008F458C0C80152
:1004C0000E94491497FD53C0F80182859385A48545
:1004D000B5854F96A11DB11D82879387A487B587E7
:1004E000F0E2BF9EC0011124BC0161577C4F611531
:1004F0007105E9F1FB0120812223B9F1253EE1F0EC
:100500004BE050E0C6010E943824892B09F0B9CF96
:100510006B2DC7012B960FB6F894DEBF0FBECDBF73
:10052000DF91CF911F910F91FF90EF90DF90CF90CF
:10053000BF90AF900C942A01A11014C0F701B28AA9
:1005400040910B0150910C0160910D0170910E01D1
:1005500046875787608B718BFC01E157FC4F808188
:10056000882329F0AA24A3948CCFAA2039F380E011
:100570002B960FB6F894DEBF0FBECDBFDF91CF91A3
:100580001F910F91FF90EF90DF90CF90BF90AF90B1
:1005900008952F923F924F925F926F927F928F9227
:1005A0009F92AF92BF92CF92DF92EF92FF920F9302
:1005B0001F93CF93DF93CDB7DEB7C656D1090FB6E1
:1005C000F894DEBF0FBECDBF6C015B014E018EE122
:1005D000880E911C6BE776E0C4010E94B1131C8267
:1005E0001B8284E391E09A8389831E823501FE0198
:1005F00031967F0124011F016FE270E0C3010E9468
:100600004E240097E9F1F30120812F3221F4FFEF0E
:100610006F1A7F0AF1CF86198D3008F08CE0082F11
:1006200010E0A801B301CE01885A9F4F0E946924AF
:10063000E8E5F0E0EC0FFD1FE00FF11F1082C701AD
:100640000E94A70FAE01485A5F4FB201C7010E9436
:10065000DE0181110AC01EAE1DAE84E391E09CAFA5
:100660008BAF21961FAE219717C0600E711EC2017D
:100670000E94A70F942D852D2701E92EF82EBCCFBF
:10068000C3018A199B09A7969FAF8EAFA797B201A6
:10069000CE01CB960E94B113A796EEADFFADA79702
:1006A000AE0EBF1EF5018081811109C0BE01655CDF
:1006B0007F4FC1010E94B1134AE652E03CC019A22B
:1006C00018A284E391E09F8F8E8F1BA221968FAD9D
:1006D0002197811113C0F6011382128288EE93E0F4
:1006E000A0E0B0E084839583A683B78380E491E0A3
:1006F00091838083128E118E148621C08250A501B1
:10070000823040F46BE776E0C4010E94DE01811183
:100710000DC0E1CFBE01655C7F4FC4010E94DE01C8
:100720008823C9F2CE01CB960E94A70FB401C10164
:100730000E94B113A501B101C6010E941414C601A3
:10074000CA59DF4F0FB6F894DEBF0FBECDBFDF91A1
:10075000CF911F910F91FF90EF90DF90CF90BF90BE
:10076000AF909F908F907F906F905F904F903F9051
:100770002F90089510928D0380916F008E7D80934D
:100780006F000E94BE00882321F084E396E00C9461
:100790000214089510928D0380916F008E7D8093D6
:1007A0006F000E94BE00882321F084E396E00E943F
:1007B00002148091800087FD0AC080910A01806246
:1007C00080930A0110928100109280000895209178
:1007D00088003091890040E050E08091940590912C
:1007E00095054817590748F737FD06C0B901821724
:1007F000930720F4BC0102C060E070E070938B00AE
:1008000060938A0037FD06C0B9018217930720F470
:10081000BC0102C060E070E07093890060938800C2
:10082000C2976AE070E0E0918400F0918500E817DB
:10083000F907C8F361507109B1F74F5F5F4F21505D
:100840003109CBCFFF920F931F93CF93DF93CDB797
:10085000DEB76B970FB6F894DEBF0FBECDBF8C012D
:1008600090918F0580919605981719F10E94CA03FF
:1008700061E080918F050E94E60890918F05963087
:1008800031F09E3241F0953041F481E001C082E0C8
:1008900080938C0304C083E0FBCF10928C039DB542
:1008A00091609DBD9CB59C7F9CBD80918F05809380
:1008B00096050E94BA03B801CE0101960E94C902B2
:1008C0008B819C8190933706809336068D819E8123
:1008D000AF81B8858093380690933906A0933A0685
:1008E000B0933B0689859A85AB85BC8580933C0691
:1008F00090933D06A0933E06B0933F068DE0FE0127
:100900003D96A0E4B6E001900D928A95E1F78A8DBC
:100910009B8D90934E0680934D060E94BE008823C7
:1009200009F40EC168E070E080E090E00E94CC0124
:1009300087E5898381E48A8386E58B8385E48C83DC
:100940008E010F5F1F4F54E0F52EF00E84E396E00A
:100950000E946014F80121918F01022E000C330BCC
:100960008217930711F4FE12F1CF68E170E080E086
:1009700090E00E94CC0184E396E00E946014909382
:1009800093058093920584E396E00E94601420E032
:1009900030E0382F8091920590919305822B932B14
:1009A00090939305809392056CE270E080E090E074
:1009B0000E94CC0180E490E090938B0380938A03A3
:1009C00081E080938D0380910A01982F9F77909307
:1009D0000A0120919205309193052B3F3F4A30F058
:1009E00020EC3DE5309393052093920520919205EC
:1009F0003091930540E050E086FF05C060E075E36C
:100A00008CE090E004C060E07AE688E190E00E942B
:100A1000F5216AE0629FC001639F900D11249093BD
:100A200095058093940584E396E00E9460148C0100
:100A300084E396E00E946A14209188003091890036
:100A4000800F911F97FD019695958795992740E016
:100A500050E02817390708F046C0B9016F5F7F4F93
:100A60006217730728F09B018617970708F49C010B
:100A7000FA01E65FFC4F20834F5F5F4F4034510522
:100A800061F740E050E0B9016F5F7F4F6217730775
:100A900028F09B018617970708F49C01FA01E65B92
:100AA000FC4F20834F5F5F4F4034510561F7109238
:100AB0000903109208011092090110920803F8949A
:100AC000809194059091950590938700809386007E
:100AD00082EB8093800089E18093810081E28093A2
:100AE0006F0078942DC0B9016150710968177907BA
:100AF00028F06217730718F49B0101C09C01FA01EA
:100B0000E65FFC4F20834F5F5F4F4034510559F73C
:100B100040E050E0B901615071096817790728F089
:100B20006217730718F49B0101C09C01FA01E65B90
:100B3000FC4F20834F5F5F4F4034510559F7B7CFCB
:100B40006B960FB6F894DEBF0FBECDBFDF91CF918D
:100B50001F910F91FF900895EF92FF920F931F93B3
:100B6000CF9382E00E948D08C1E0892B09F4C0E098
:100B700001E010E08BECE82E87E0F82EC70101972A
:100B8000F1F782E00E948D082C2F30E08217930746
:100B900031F40130110569F402E010E0EFCF82E09A
:100BA0000E948D08C1E0892B09F4C0E001E010E04B
:100BB000E5CF8C2FCF911F910F91FF90EF9008956B
:100BC000CF93DF93EC0140E050E067E871E00E94D2
:100BD000DA07CE01DF91CF910895CF92DF92EF92A5
:100BE000FF920F931F93CF93DF936C017A018B01D8
:100BF000C0E0D0E0CE15DF0589F0D8016D918D0100
:100C0000D601ED91FC910190F081E02DC60109958E
:100C1000892B11F47E0102C02196ECCFC701DF9130
:100C2000CF911F910F91FF90EF90DF90CF9008959B
:100C3000FC01538D448D252F30E0842F90E0821BE2
:100C4000930B541710F0CF96089501970895FC0167
:100C5000918D828D981761F0828DDF01A80FB11DF3
:100C60005D968C91928D9F5F9F73928F90E0089517
:100C70008FEF9FEF0895FC01918D828D981731F0D1
:100C8000828DE80FF11D858D90E008958FEF9FEF25
:100C90000895FC01918D228D892F90E0805C9F4FFB
:100CA000821B91098F739927089587E995E00E9427
:100CB000490621E0892B09F420E0822F0895FC01E8
:100CC000848DDF01A80FB11DA35ABF4F2C91848DD5
:100CD00090E001968F739927848FA689B7892C930A
:100CE000A089B1898C9180648C93938D848D9813A5
:100CF00006C00288F389E02D80818F7D808308956E
:100D0000EF92FF920F931F93CF93DF93EC0181E05B
:100D1000888F9B8D8C8D981305C0E889F989808117
:100D200085FD24C0F62E0B8D10E00F5F1F4F0F7353
:100D30001127E02E8C8DE8120CC00FB607FCFACFFD
:100D4000E889F989808185FFF5CFCE010E945F0691
:100D5000F1CF8B8DFE01E80FF11DE35AFF4FF082BA
:100D60000B8FEA89FB898081806207C0EE89FF8949
:100D70006083E889F98980818064808381E090E0E4
:100D8000DF91CF911F910F91FF90EF900895CF9336
:100D9000DF93EC01888D8823C9F0EA89FB89808183
:100DA00085FD05C0A889B9898C9186FD0FC00FB655
:100DB00007FCF5CF808185FFF2CFA889B9898C9196
:100DC00085FFEDCFCE010E945F06E7CFDF91CF9187
:100DD000089580E090E0892B29F00E94550681114A
:100DE0000C9400000895833081F028F4813099F04C
:100DF0008230A1F008958730A9F08830B9F08430AE
:100E0000D1F4809180008F7D03C0809180008F7726
:100E100080938000089584B58F7702C084B58F7D5C
:100E200084BD08958091B0008F7703C08091B00099
:100E30008F7D8093B00008953FB7F8948091CD06E0
:100E40009091CE06A091CF06B091D00626B5A89B72
:100E500005C02F3F19F00196A11DB11D3FBFBA2F4C
:100E6000A92F982F8827820F911DA11DB11DBC01AC
:100E7000CD0142E0660F771F881F991F4A95D1F771
:100E800008950E9433240F931F93CF93DF93EC01B7
:100E900088819981009729F02A813B81261737079D
:100EA00088F48B016F5F7F4F0E946923009761F088
:100EB000998388831B830A832C813D81232B11F422
:100EC000FC01108281E001C080E0DF91CF911F9191
:100ED0000F910895CF93DF93EC018881998100975A
:100EE00011F00E94D122198218821D821C821B825D
:100EF0001A82DF91CF910895FC0180819181009742
:100F000011F00C94941E60E070E0CB010895FC0198
:100F100024813581232B31F421E061157105A1F085
:100F2000FB0108C0FC01808191816115710531F4DC
:100F300021E0FC018081882339F005C00E945924FA
:100F400021E0892B09F020E0822F0895EF92FF9293
:100F50000F931F93CF93DF9300D0CDB7DEB78C01F3
:100F600069831A82FC01E480F580FFEFEF1AFF0A23
:100F7000B7010E944307882381F0F8012081318165
:100F800084819581BE016F5F7F4F820F931F0E9406
:100F90006224F801F582E48203C0C8010E946A0756
:100FA000C8010F900F90DF91CF911F910F91FF908B
:100FB000EF900895EF92FF920F931F93CF93DF93DB
:100FC000EC017B018A01BA010E944307811104C030
:100FD000CE010E946A0707C01D830C83B701888178
:100FE00099810E946224CE01DF91CF911F910F91D0
:100FF000FF90EF900895CF93DF93EC01FB018617EC
:10100000970761F0608171816115710529F0448154
:1010100055810E94DA0702C00E946A07CE01DF9163
:10102000CF910895FC01808191810C94D122FC0123
:101030001182108213821282158214820C94FB0793
:10104000FC011182108213821282158214826115B2
:10105000710551F0FB0101900020E9F73197AF01D4
:10106000461B570B0C94DA0708951F920F920FB688
:101070000F9211242F933F934F935F936F937F931E
:101080008F939F93AF93BF93EF93FF9387E995E07F
:101090000E945F06FF91EF91BF91AF919F918F9159
:1010A0007F916F915F914F913F912F910F900FBE64
:1010B0000F901F9018951F920F920FB60F92112448
:1010C0002F938F939F93EF93FF93E091A705F09158
:1010D000A8058081E091AD05F091AE0582FD12C0BA
:1010E00090818091B0058F5F8F732091B105821739
:1010F00051F0E091B005F0E0E956FA4F958F8093FA
:10110000B00501C08081FF91EF919F918F912F9148
:101110000F900FBE0F901F901895CF93DF93282F3D
:1011200030E0F901EF5EFE4F8491F901EB53FF4F80
:10113000D491F901E752FF4FC491CC2391F0811172
:101140000E94F306EC2FF0E0EE0FFF1FE95FFE4F69
:10115000A591B491EC91ED2381E090E021F480E041
:1011600002C080E090E0DF91CF9108951F93CF936C
:10117000DF93282F30E0F901EF5EFE4F8491F901F3
:10118000EB53FF4FD491F901E752FF4FC491CC23A9
:10119000C9F0162F81110E94F306EC2FF0E0EE0F3C
:1011A000FF1FE350FF4FA591B4918FB7F894111131
:1011B00005C09C91ED2FE095E92302C0EC91ED2B49
:1011C000EC938FBFDF91CF911F910895CF93DF9361
:1011D00090E0FC01EB53FF4F2491FC01E752FF4FDD
:1011E0008491882361F190E0880F991FFC01E554F8
:1011F000FF4FC591D491FC01E350FF4FA591B491ED
:10120000611109C09FB7F894888120958223888353
:10121000EC912E230BC0623061F49FB7F8943881B3
:10122000822F809583238883EC912E2B2C939FBF54
:1012300006C08FB7F894E8812E2B28838FBFDF91EB
:10124000CF9108958F929F92AF92BF92CF92DF92EB
:10125000EF92FF926B017C010E941C074B015C0125
:10126000C114D104E104F104F1F00E941C07DC0177
:10127000CB0188199909AA09BB09883E9340A105A9
:10128000B10570F321E0C21AD108E108F10888EE37
:10129000880E83E0981EA11CB11CC114D104E10486
:1012A000F10419F7DDCFFF90EF90DF90CF90BF9062
:1012B000AF909F908F9008952FB7F8946091C906D2
:1012C0007091CA068091CB069091CC062FBF0895ED
:1012D0001F920F920FB60F9211242F933F938F936B
:1012E0009F93AF93BF938091C9069091CA06A09136
:1012F000CB06B091CC063091C80623E0230F2D37E2
:1013000020F40196A11DB11D05C026E8230F029609
:10131000A11DB11D2093C8068093C9069093CA06EB
:10132000A093CB06B093CC068091CD069091CE06CB
:10133000A091CF06B091D0060196A11DB11D80935A
:10134000CD069093CE06A093CF06B093D006BF9162
:10135000AF919F918F913F912F910F900FBE0F9062
:101360001F9018951F920F920FB60F9211248F9312
:101370009F93EF93FF9380910A0186FD2EC0E09129
:1013800009038091080390E4E99FF0011124E80F1C
:10139000F11DE65FFC4F808190E090938B0080937D
:1013A0008A009093890080938800809108038F5F62
:1013B00080930803809108038034C8F010920803DA
:1013C000E0910903F0E0E85FFE4F81E080839091B7
:1013D00009038927809309030AC09091C70681E019
:1013E00089278093C7068091C706882341F2FF9121
:1013F000EF919F918F910F900FBE0F901F901895B6
:101400001F920F920FB60F9211242F933F934F9379
:101410005F936F937F938F939F93AF93BF93EF935C
:10142000FF93E091090381E0E827F0E0E85FFE4FD9
:101430009081992309F453C09091090389278093DF
:10144000C60680916F008F7D80936F00789484E34F
:1014500096E00E94320E20918A0330918B03281768
:10146000390700F180910A0183FF07C06CE270E048
:1014700080E090E00E94CC012DC080916F008E7DB5
:1014800080936F00E0914D06F0914E06309739F051
:101490008581882321F084E396E00E940214109253
:1014A0008D031DC06091C60680E4689FB0011124C1
:1014B000665F7C4F80914D0690914E06009721F01B
:1014C00040E450E00E944112E091C606F0E0E85F7F
:1014D000FE4F108280916F00806280936F00FF91B9
:1014E000EF91BF91AF919F918F917F916F915F919C
:1014F0004F913F912F910F900FBE0F901F90189515
:1015000080918E038823A9F140910B0150910C0129
:1015100060910D0170910E012FE833E08091D406A7
:101520009091D5060E944613811102C080E0089573
:101530004091C2065091C3066091C4067091C506E1
:10154000411551056105710591F02FE833E0809157
:10155000D4069091D5060E944613882339F3109241
:10156000C2061092C3061092C4061092C5061092CD
:101570008E0381E008958F929F92AF92BF92EF9277
:10158000FF920F931F93CF934B015C01C42F809167
:101590000B0190910C01A0910D01B0910E018815E5
:1015A0009905AA05BB0501F10E94800A811102C0BC
:1015B00080E020C08FE8E82E83E0F82E00E012E003
:1015C00020E030E0B501A4018091D4069091D506C9
:1015D0000E94AD11882361F380920B0190920C015F
:1015E000A0920D01B0920E0180918E03C82BC09382
:1015F0008E0381E0CF911F910F91FF90EF90BF90EC
:10160000AF909F908F9008954F925F926F927F92CC
:101610008F929F92AF92BF92CF92DF92EF92FF9202
:101620000F931F93CF93DF93EC016A017B01280195
:101630003901423051056105710510F480E073C035
:1016400089859A85AB85BC850196A11DB11D84173E
:101650009507A607B70790F38B889C88AD88BE884E
:101660008F89803129F4BB27AF2D9E2D8D2D09C088
:10167000DB01CA0147E0B695A795979587954A95EE
:10168000D1F7880E991EAA1EBB1E80910B01909166
:101690000C01A0910D01B0910E0188169906AA06C1
:1016A000BB0679F48F898031A1F4DD24EE24FF2478
:1016B000C601880F991FFC01E157FC4F51824082FF
:1016C00019C040E0C501B4010E94BB0A8111EACFF4
:1016D000B5CFE894C7F8DD24EE24FF24C601880FB7
:1016E000991F880F991FFC01E157FC4F40825182DE
:1016F0006282738280918E03816080938E038A89D7
:10170000823080F08D819E81AF81B885880E991ED0
:10171000AA1EBB1E8092C2069092C306A092C40667
:10172000B092C50681E0DF91CF911F910F91FF909C
:10173000EF90DF90CF90BF90AF909F908F907F9071
:101740006F905F904F9008958F929F92AF92BF924B
:10175000CF92DF92EF92FF920F931F93CF93DF937D
:10176000FC0181859285A385B4850196A11DB11DDB
:1017700084179507A607B70710F480E05CC083893B
:101780009489A589B689C789C03129F4852E962EFA
:10179000A72EBB2409C04A015B01C7E0B694A794F9
:1017A00097948794CA95D1F7E9016A017B018F016B
:1017B000BC01CD01680D791D8A1D9B1D80900B0118
:1017C00090900C01A0900D01B0900E016815790564
:1017D0008A059B0599F4F80187898031A9F4B7013E
:1017E000A601552766277727440F551FFA01E157B1
:1017F000FC4F80819181A0E0B0E018C040E00E94E1
:10180000BB0A8111E8CFB9CFB701A6014F775527A1
:1018100066277727440F551F440F551FFA01E157DC
:10182000FC4F80819181A281B381BF7088839983AD
:10183000AA83BB8381E0DF91CF911F910F91FF902D
:10184000EF90DF90CF90BF90AF909F908F900895D2
:101850004F925F926F927F92AF92BF92CF92DF9240
:10186000EF92FF920F931F93CF93DF9300D000D09E
:10187000CDB7DEB78C0149835A836B837C835901D2
:10188000C12CD12C7601412C82E0582E612C712C78
:1018900049815A816B817C819E012F5F3F4FC80136
:1018A0000E94A40B882351F1D301C201F8010584E1
:1018B00004C0880F991FAA1FBB1F0A94D2F7C80E35
:1018C000D91EEA1EFB1E49815A816B817C81878962
:1018D000803129F088EF9FEFAFEFBFE004C088EFC1
:1018E0009FEFA0E0B0E0481759076A077B0780F236
:1018F000F501C082D182E282F38281E00F900F90E5
:101900000F900F90DF91CF911F910F91FF90EF906B
:10191000DF90CF90BF90AF907F906F905F904F908F
:1019200008952F923F924F925F926F927F928F9283
:101930009F92AF92BF92CF92DF92EF92FF920F935E
:101940001F93CF93DF9300D000D0CDB7DEB78C01CB
:101950005B011A01DC0115968C9115978130C9F451
:1019600014968C9181FF15C082FF1BC0F80143893A
:1019700054896589768982859385A485B585841780
:101980009507A607B70769F0C8010E94110F8111DA
:1019900008C081E090E0F8019383828380E090E0CA
:1019A00039C1610183C0D8015B968D919C915C9790
:1019B000FC01248121502A013B0139E0769467948F
:1019C000579447943A95D1F7722E74207A01F1E03A
:1019D000FF22772009F476C080E092E08E199F09FB
:1019E00046018C159D0508F44C01D8015B962D919C
:1019F0003C915C9716968D919D910D90BC91A02D78
:101A00000297A109B109F901058404C0880F991F43
:101A1000AA1FBB1F0A94D2F7468557856089718932
:101A2000840F951FA61FB71F9C01AD01270D311D07
:101A3000411D511D29013A01811432E0930609F03C
:101A400088C080910B0190910C01A0910D01B09183
:101A50000E0184159505A605B70559F48FEF9FEF84
:101A6000DC0180930B0190930C01A0930D01B093C6
:101A70000E019501B301A2018091D4069091D50683
:101A80000E944613882309F484CF9EEFB91AC81820
:101A9000D908F80182859385A485B585880D991D9F
:101AA000A11DB11D82879387A487B587D8011A9697
:101AB0004D915D916D917C911D97C114D10409F0F8
:101AC00072CF87C0E114F10409F086CF16964D91CC
:101AD0005D916D917C9119974115510561057105D5
:101AE00059F457968D919D910D90BC91A02D009722
:101AF000A105B10541F521C09E012F5F3F4F0E9416
:101B0000A40B882309F44BCF89819A81AB81BC81D6
:101B1000F801238D348DF9012789203129F048EF10
:101B20005FEF6FEF7FE004C048EF5FEF60E070E0D1
:101B300084179507A607B70730F0C8010E94DF0F8A
:101B400081114ACF26CFF80186839783A087B1877A
:101B500043CFE114F10429F5D8011A964D915D9116
:101B60006D917C911D9753968D919D910D90BC9197
:101B7000A02D481759076A077B0798F00E94800A32
:101B8000882309F406CF40920B0150920C01609219
:101B90000D0170920E0180918E03816080938E03FF
:101BA00008C041E0C301B2010E94BB0A882309F4C6
:101BB000F0CED501F701E157FC4FCF01880D991DFB
:101BC000E817F90719F02D912193FACFA80CB91C49
:101BD0005ECF53968D919D910D90BC91A02D841751
:101BE0009507A607B70740F4F801438B548B658B24
:101BF000768B848180688483D80114968C9183FDD0
:101C000002C0C10107C0C8010E94CB0E882309F49D
:101C1000C0CEF7CF0F900F900F900F90DF91CF9124
:101C20001F910F91FF90EF90DF90CF90BF90AF90FA
:101C30009F908F907F906F905F904F903F902F90EC
:101C40000895CF93DF931F92CDB7DEB7698341E04C
:101C500050E0BE016F5F7F4F0E94910C0F90DF91AB
:101C6000CF910895DC015996ED91FC915A973097E8
:101C7000B9F083899489A589B6894285538564859D
:101C80007585841B950BA60BB70B811520E8920771
:101C9000A105B10538F08FEF9FE7A0E0B0E008950F
:101CA00080E090E00895CF93DF931F92CDB7DEB729
:101CB0006983DC01ED91FC910280F381E02D41E02C
:101CC00050E0BE016F5F7F4F09950F90DF91CF917C
:101CD0000895089580E090E00895CF93DF93EC019C
:101CE000898D9A8D009739F481E090E09B838A83F7
:101CF00080E090E00BC0FC01138212820E94910CE4
:101D0000E98DFA8D22813381232B71F7DF91CF91F9
:101D10000895CF92DF92EF92FF920F931F93CF938C
:101D2000DF93CDB7DEB7CDB6DEB6FC0104811581F9
:101D300098012F5F3F4F4DB75EB7421B530B0FB655
:101D4000F8945EBF0FBE4DBFEDB7FEB731967F0171
:101D5000232B81F0309771F00115110551F0FC0132
:101D600060817181A801C7010E946924F701E00F19
:101D7000F11F1082C7010E94901E0FB6F894DEBEBC
:101D80000FBECDBEDF91CF911F910F91FF90EF90CD
:101D9000DF90CF900895CF93DF93EC018D8188235E
:101DA000A1F18C8187FF2DC06E857F8588899989F7
:101DB00041E00E94BB0A882341F1EA8980E2E89F62
:101DC000F0011124DF01A157BC4F1097F1F08D8174
:101DD000823050F44B895C896D897E895C964D9385
:101DE0005D936D937C935F978F89988DA98DBA8D44
:101DF000E157FC4F938F828FB58BA48B8C818F77AB
:101E00008C83DF91CF910C94800A80E0DF91CF9199
:101E10000895FC01818D928D009711F00C94CB0EEA
:101E200008958F929F92AF92BF92CF92DF92EF92DE
:101E3000FF920F931F93CF93DF93EC018D8181115C
:101E400002C080E077C00B891C892D893E89041768
:101E5000150726073707A8F36A017B01823029F4AA
:101E6000CA86DB86EC86FD860DC0C114D104E10470
:101E7000F10451F41E821F82188619861A861B8669
:101E80001C861D8681E056C08A849B84AC84BD84F8
:101E9000EB8DFC8D258530E0275F3F4FB501A40118
:101EA0004150510961097109022E04C07695679568
:101EB000579547950A94D2F7D701C6010197A10912
:101EC000B10904C0B695A795979587952A95D2F73D
:101ED00084179507A607B70720F089288A288B283A
:101EE00049F44F89588D698D7A8D4E835F83688759
:101EF000798704C0841B950BA60BB70B4C015D01C1
:101F00008E010A5F1F4F81149104A104B10409F4EA
:101F1000A7CF4E815F816885798598018B8D9C8DD7
:101F20000E94A40B91E0891A9108A108B1088111BF
:101F3000EACF87CFDF91CF911F910F91FF90EF9064
:101F4000DF90CF90BF90AF909F908F900895CF93E8
:101F5000DF93EC010E94CB0E882311F01D8281E0FB
:101F6000DF91CF9108951F93CF93DF93CDB7DEB765
:101F70006D970FB6F894DEBF0FBECDBFAB011C82CC
:101F80001B8224E331E03A8329831E82BC01CE0107
:101F900001960E94DE0111E0811102C010E004C030
:101FA000CE0101960E94A70F812F6D960FB6F8946F
:101FB000DEBF0FBECDBFDF91CF911F9108953F923D
:101FC0004F925F926F927F928F929F92AF92BF9249
:101FD000CF92DF92EF92FF920F931F93CF93DF93F5
:101FE000CDB7DEB72C970FB6F894DEBF0FBECDBFCE
:101FF0005C01DC015B968D909C905C971696CD9071
:10200000DD90ED90FC901997C114D104E104F10426
:1020100039F0BFEFCB1ADB0AEB0AFB0A312C07C001
:10202000F401C080D180E280F38033243394F40142
:1020300081859285A385B4859C01AD012F5F3F4FBB
:102040004F4F5F4F29873A874B875C8726013701BF
:102050001D821E821F821886F40181859285A385C8
:10206000B4852D813E814F815885281739074A074D
:102070005B0708F063C089859A85AB85BC858C15A4
:102080009D05AE05BF0550F482E0C82ED12CE12C91
:10209000F12C92E0492E512C612C712C9E012F5F66
:1020A0003F4FB701A601C4010E94A40B882309F485
:1020B00045C089819A81AB81BC81892B8A2B8B2B6E
:1020C00041F0260137019FEF491A590A690A790A36
:1020D00005C0C414D504E604F70491F02D813E81B7
:1020E0004F8158852F5F3F4F4F4F5F4F2D833E836A
:1020F0004F8358873FEFC31AD30AE30AF30AACCFE2
:102100000FEF1FEF2FEF3FE0B301A201C4010E94C8
:10211000040B882399F0D50116964D915D916D9130
:102120007C911997411551056105710549F093019D
:102130008201C4010E94040B811102C080E02AC008
:10214000D50116964D925D926D927C92199733202F
:1021500051F0D301C2010196A11DB11DF40180838C
:102160009183A283B383F5018789908DA18DB28D70
:10217000892B8A2B8B2B69F4D50157964D925D9252
:102180006D927C925A9714968C911497806814964D
:102190008C9381E02C960FB6F894DEBF0FBECDBFB6
:1021A000DF91CF911F910F91FF90EF90DF90CF9033
:1021B000BF90AF909F908F907F906F905F904F9067
:1021C0003F9008958FB7F8948091D3068FBF0895FC
:1021D00061E0FC0184810E94B6088091D2068111E1
:1021E0001092D20608958EBD00000DB407FEFDCFFB
:1021F0008EB508958FEF0C94F3100F931F93CF9328
:10220000DF93EB010E945C098B010E94FA108F3F63
:1022100049F00E945C09601B710B6C177D07A8F3E5
:1022200080E001C081E0DF91CF911F910F9108956F
:10223000CF93DF93EC018E81882389F08F8198857D
:102240009C012F5F3F4F38872F838230924018F4D4
:102250000E94FA10F3CFCE010E94E8101E82DF9197
:10226000CF9108958CBD9DBD0895CF93DF93EC0170
:102270008091D206811109C081E08093D2068091BD
:102280004F06909150060E94321160E08C81DF91E0
:10229000CF910C94B608CF92DF92FF920F931F93C9
:1022A000CF93DF9300D000D0CDB7DEB76C01F62E10
:1022B00029833A834B835C830E941811C6010E94D4
:1022C00035116CE271E0C6010E94FD108F2D806413
:1022D0000E94F31008E110E05C814B813A81298172
:1022E000DA01C901002E04C0B695A7959795879588
:1022F0000A94D2F729833A834B835C830E94F310BC
:102300000850110929813A814B815C81083F8FEF88
:10231000180731F7FF2029F0E8E0FE1204C087E833
:1023200003C085E901C08FEF0E94F31010E00E9406
:10233000FA10F601828787FF04C01F3F11F01F5F6C
:10234000F6CF0F900F900F900F90DF91CF911F91CC
:102350000F91FF90DF90CF900895AF92BF92CF92F0
:10236000DF92EF92FF920F931F93CF93DF93EC01D5
:102370006901C801820F931F8130924008F070C03C
:102380008E81882371F088819981AA81BB81481749
:1023900059076A077B0729F48F819885C816D906E3
:1023A000B0F5488359836A837B838B85833039F00A
:1023B00089E0440F551F661F771F8A95D1F79A0150
:1023C000AB0161E1CE010E944B11882319F083E03B
:1023D0008D8346C00E945C095B010E94FA108A87C7
:1023E0008F3F49F40E945C096A197B096D32714084
:1023F000A0F38FE003C08E3F31F08DE08D83CE01DE
:102400000E94E8102DC018861F8281E08E838F8184
:1024100098858C159D0540F40E94FA108F8198854F
:10242000019698878F83F3CF6701E00EF11ECE14DB
:10243000DF0431F00E94FA10F60181936F01F7CFAB
:102440008F819885080F191F18870F838985882326
:1024500019F00115124048F0CE010E94181105C074
:10246000CE010E94E81080E001C081E0DF91CF91B1
:102470001F910F91FF90EF90DF90CF90BF90AF90A2
:1024800008952F923F924F925F926F927F928F9218
:102490009F92AF92BF92CF92DF92EF92FF920F93F3
:1024A0001F93CF93DF93EC016B014A018D81811162
:1024B00003C08FEF9FEFD7C08C8180FFFACF4B888E
:1024C0005C886D887E884A855B856C857D85C401C6
:1024D000A0E0B0E093018201041B150B260B370B23
:1024E000081719072A073B0718F44201841A950AAE
:1024F00054011E0126E0220E311CA114B10409F47E
:102500007EC04A855B856C857D852A0181E05822E5
:10251000ED818A019B0189E03695279517950795EE
:102520008A95D1F78B8D9C8DE23061F4FC01828D10
:10253000938DA48DB58DBC01CD01600F711F821FDD
:10254000931F3FC0FC0174807A947022411451049F
:10255000C9F4711017C0452B462B472B49F48F89BE
:10256000988DA98DBA8D8E839F83A887B9870AC05D
:102570004E815F816885798591010E94A40B882333
:1025800009F497CFEB8DFC8D8E819F81A885B9854D
:102590000297A109B109058404C0880F991FAA1FD9
:1025A000BB1F0A94D2F74685578560897189840FCD
:1025B000951FA61FB71FBC01CD01670D711D811DA1
:1025C000911D20E032E02419350935012A153B051B
:1025D00008F439012C8126FD04C06114F2E07F0665
:1025E00081F400910B0110910C0120910D013091AB
:1025F0000E016017710782079307B1F402C0C4018E
:1026000032C040E00E94BB0A882309F452CFF20195
:10261000E157FC4FD601CF01860D971DE817F9074A
:1026200089F021912D93FACF760183019201AB01BC
:10263000BC018091D4069091D5060E94AD118823EB
:1026400009F437CFC60CD71C8A859B85AC85BD8520
:10265000860D971DA11DB11D8A879B87AC87BD87FD
:10266000A618B7084ACFDF91CF911F910F91FF9025
:10267000EF90DF90CF90BF90AF909F908F907F9022
:102680006F905F904F903F902F900895EF92FF9240
:102690000F931F93CF93DF93EC01790141155105FF
:1026A0006105710511F482E13CC08B85833039F0FE
:1026B00089E0440F551F661F771F8A95D1F79A014D
:1026C000AB0168E1CE010E944B11882311F084E038
:1026D00028C08EEF0E94F31087018EEFF81AF801E0
:1026E00081918F010E94F3100E151F05C1F78FEF26
:1026F0000E94F3108FEF0E94F3100E94FA108A8755
:102700008F71853031F081E18D83CE010E94E81018
:1027100009C068E572E0CE010E94FD10811107C07A
:1027200085E18D83CE010E94E81080E013C020E097
:1027300030E0A9016DE0CE010E944B11811104C06F
:102740000E94FA10882311F084E1EBCFCE010E94A1
:10275000E81081E0DF91CF911F910F91FF90EF90F2
:102760000895FC01DB0112968D919C911397938340
:10277000828384E391E09183808314968C911497F3
:10278000848315968C911597858316964D915D914E
:102790006D917C91199746835783608771871A964C
:1027A0004D915D916D917C911D9742875387648710
:1027B00075871E964D915D916D917C9151974687DD
:1027C0005787608B718B52968C915297828B539660
:1027D0004D915D916D917C915697438B548B658B98
:1027E000768B57964D915D916D917C915A97478B61
:1027F000508F618F728F5B968D919C915C97948FB7
:10280000838F0895CF93DF93EC01898D9A8D009784
:1028100041F00E94A70F898D9A8D0E94D1221A8EB5
:10282000198EDF91CF910895EF92FF920F931F932E
:10283000CF93DF93EC017B018A011B821A8288EE21
:1028400093E0A0E0B0E08C839D83AE83BF8380E4FF
:1028500091E0998388838DE190E00E943C229A8FD9
:10286000898F009779F02DE1F701DC0101900D923D
:102870002A95E1F74CE050E0B801CE010C960E9499
:102880006924188EDF91CF911F910F91FF90EF90E7
:102890000895CF93DF931F92CDB7DEB741E050E0AC
:1028A000BE016F5F7F4F0E944112019719F4898129
:1028B00090E002C08FEF9FEF0F90DF91CF910895CE
:1028C000FC01818D928D009711F00C9449148FEFCB
:1028D0009FEF08950F931F93CF93DF93FC01818D9A
:1028E000928D0097B9F0EF010E9449148C010F3FBF
:1028F0008FEF180791F0898D9A8DFC0142855385E1
:102900006485758541505109610971090E94110F53
:10291000C80105C080E090E002C08FEF9FEFDF911B
:10292000CF911F910F910895EF92FF920F931F93F4
:10293000CF93DF9300D000D000D0CDB7DEB77C01BD
:102940008B016CE672E00E948707882339F0C8018A
:102950000E947C077093D9026093D80266E772E008
:10296000C7010E9487078823A9F0B801CE0101960C
:102970000E941708CE0101960E94890E60930401FF
:10298000709305018093060190930701CE01019693
:102990000E9412086EE772E0C7010E948707882331
:1029A000A9F0B801CE0101960E941708CE01019648
:1029B0000E94890E609300017093010180930201CF
:1029C00090930301CE0101960E94120865E872E01F
:1029D000C7010E948707882339F0C8010E947C073D
:1029E0007093D7026093D6026EE872E0C7010E942E
:1029F0008707882339F0C8010E947C077093D502AD
:102A00006093D40268E972E0C7010E9487078823B7
:102A100039F0C8010E947C077093D3026093D20200
:102A200062EA72E0C7010E948707882339F0C80173
:102A30000E947C077093D1026093D0026CEA72E02E
:102A4000C7010E948707882339F0C8010E947C07CC
:102A50007093CF026093CE0266EB72E0C7010E94D2
:102A60008707882339F0C8010E947C077093CD0244
:102A70006093CC0260EC72E0C7010E948707882354
:102A800039F0C8010E947C077093CB026093CA02A0
:102A900026960FB6F894DEBF0FBECDBFDF91CF9163
:102AA0001F910F91FF90EF9008958F929F92AF9298
:102AB000BF92CF92DF92EF92FF920F931F93CF932B
:102AC000DF93CDB7DEB7C754D1090FB6F894DEBF98
:102AD0000FBECDBF5C0119A218A284E391E09F8FC5
:102AE0008E8F1BA21C821B829A8389831E8200E028
:102AF00010E06E018EE1C80ED11C8BE7E82E86E057
:102B0000F82E882483949801F501E00FF11F80814D
:102B10008F3211F42F5F3F4FFE01FB9680E090E073
:102B2000D501A20FB31F4C914F3249F0442339F025
:102B300001962F5F3F4F41938C30910589F7EBE36E
:102B4000F0E0EC0FFD1FE80FF91F1082F501E20F16
:102B5000F31F80818F3211F42F5F3F4F8901F50100
:102B6000E20FF31F992493948081811101C0912C6D
:102B700020E030E0492D4825BE01655C7F4FC7014C
:102B80000E94B30F81110AC09BE7E91696E0F9068F
:102B900019F0C7010E94A70F80E02AC09920C1F058
:102BA000AE01455C5F4FB701C6010E94DE01982E61
:102BB0008BE7E81686E0F806A9F0C7010E94A70F88
:102BC000992051F39E2D8F2D7601C92ED82E9BCFA3
:102BD0009BE7E91696E0F90619F0C7010E94A70FD6
:102BE00081E006C09920C1F2CE0101967C01EACFB6
:102BF000C95BDF4F0FB6F894DEBF0FBECDBFDF91CC
:102C0000CF911F910F91FF90EF90DF90CF90BF90E9
:102C1000AF909F908F9008958F929F92AF92BF92A6
:102C2000CF92DF92EF92FF92CF93DF93C82F81E58F
:102C300096E09093D5068093D406CC2369F1C530F5
:102C400010F080E00DC140E060E070E0CB010E9438
:102C5000BB0A8823B1F320E1C29FC001112481582F
:102C60009C4FFC01E254FE4F20812F7751F73C9698
:102C7000408151816281738144365105610571053E
:102C800000F33497C080D180E280F380C114D10476
:102C9000E104F10421F4D5CFC12CD12C760140E020
:102CA000C701B6010E94BB0A882359F280919A039A
:102CB00090919B038115924021F6A0919F03AA2336
:102CC00009F4BFCF60919D0370919E03611571055A
:102CD00009F4B7CF20919C03222309F4B2CFA0932B
:102CE0006F062093610680E030E0E1E0F0E0C82F5D
:102CF000AF01082E02C0440F551F0A94E2F72417B3
:102D0000350741F0982F8F5F983089F789E08093DD
:102D10006A0697CF80936A062091A5033091A60397
:102D20002115310519F040E050E008C02091B303AF
:102D30003091B4034091B5035091B60320936206DD
:102D4000309363064093640650936506460157012D
:102D5000860E971EA11CB11C80927006909271067F
:102D6000A0927206B0927306E091A003F091A103C5
:102D7000F0937606E0937506B0E00E947521860E0A
:102D8000971EA81EB91E8092770690927806A09290
:102D90007906B0927A0685E0EE0FFF1F8A95E1F77B
:102DA000E150FE4FEF2FFF27E6958E0E9F1EA11CD0
:102DB000B11C80926B0690926C06A0926D06B09248
:102DC0006E062091A2033091A3032115310521F055
:102DD000A90160E070E008C04091AF035091B003DA
:102DE0006091B1037091B203D701C60188199909A6
:102DF000AA09BB09840F951FA61FB71F04C0B6956B
:102E0000A79597958795CA95D2F780936606909374
:102E10006706A0936806B0936906853F2FE0920786
:102E2000A105B10510F48CE018C0853F9F4FA105A6
:102E3000B10510F480E111C08091BB039091BC03F7
:102E4000A091BD03B091BE0380937706909378065E
:102E5000A0937906B0937A0680E28093740681E0AD
:102E6000DF91CF91FF90EF90DF90CF90BF90AF9028
:102E70009F908F900895CF93DF93CDB7DEB7AD9736
:102E80000FB6F894DEBF0FBECDBF789484B58260D4
:102E900084BD84B5816084BD85B5826085BD85B5FE
:102EA000816085BD80916E00816080936E0010927C
:102EB00081008091810082608093810080918100F7
:102EC0008160809381008091800081608093800088
:102ED0008091B10084608093B1008091B0008160E6
:102EE0008093B00080917A00846080937A00809112
:102EF0007A00826080937A0080917A00816080936A
:102F00007A0080917A00806880937A001092C100E4
:102F100060E08091B5060E94E60860E08091B70607
:102F20000E94E60861E08091B5060E94B60861E063
:102F30008091B7060E94B6080E945C096093BE06A5
:102F40007093BF068093C0069093C10689E080937A
:102F50008F05E091A705F091A80582E08083E091BC
:102F6000A305F091A4051082E091A505F091A605B6
:102F70008FEC80831092AF05E091AB05F091AC052A
:102F800086E08083E091A905F091AA0580818061A7
:102F90008083E091A905F091AA05808188608083F3
:102FA000E091A905F091AA05808180688083E09175
:102FB000A905F091AA0580818F7D80831092070377
:102FC0001092060381E08093DB0260E082E00E94C1
:102FD000E60861E082E00E94B60861E085E00E94B8
:102FE000E60861E08EE00E94E60861E08FE00E9462
:102FF000E60861E080E10E94E60861E081E10E946C
:10300000E60861E082E10E94E60861E083E10E9457
:10301000E60810925C0610925A061092570610921B
:10302000560684E0809355060E945C098B0161E09E
:10303000809155060E94E60861E0809155060E9445
:10304000B608FFB6F8948091DA02811127C0E3EE4A
:10305000F0E08491EFECF0E09491E82FF0E0EE0FD7
:10306000FF1FE554FF4FA591B491EC91E92321F4A2
:1030700061E08AE00E94B60861E08AE00E94E6080A
:103080008CB580618CBD8CB580648CBD61E08DE0B9
:103090000E94E60861E08BE00E94E6088091DA0277
:1030A0008F5F8093DA02FFBE82E580934F06109215
:1030B000500680914F06909150060E9432112AE0EE
:1030C000F22E8FEF0E94F310FA94F110FACF81E5FF
:1030D00096E00E94351120E030E0A90160E081E532
:1030E00096E00E944B11F82E80935B0631E0831727
:1030F00049F00E945C09601B710B613D774058F3F9
:1031000081E056C02AEA31E040E050E068E081E525
:1031100096E00E944B1182FF03C0F0925C0610C043
:1031200094E0F92E0E94FA1080935B06FA94F11055
:10313000F9CF8A3A11F082E03BC082E080935C06CE
:1031400080915C06823021F0812C912C540105C0C5
:10315000812C912CA12C80E4B82E20E030E0A90134
:1031600067E381E596E00E944B11A501940169E2B5
:1031700081E596E00E944B1180935B06882349F01D
:103180000E945C09601B710B613D774030F388E061
:103190000FC080915C06823001F520E030E0A9018B
:1031A0006AE381E596E00E944B11882341F086E0B6
:1031B0008093560681E596E00E94E81032C10E9495
:1031C000FA10807C803C19F483E080935C060E94B6
:1031D000FA100E94FA100E94FA1081E596E00E940F
:1031E000E81080E580934F061092500681E00E941F
:1031F0000C16882329F080918006882341F011C1A4
:1032000080E00E940C16882309F40BC1F4CF809152
:103210007406803109F582E0809380061092920650
:10322000109293061092940610929506809175065E
:1032300090917606A0E0B0E015E0880F991FAA1FD4
:10324000BB1F1A95D1F780938E0690938F06A0939B
:103250009006B09391061FC0803209F0E2C083E06F
:1032600080938006409177065091780660917906A8
:1032700070917A0640939206509393066093940659
:10328000709395062EE836E08DE596E00E94280CB6
:10329000882309F4C6C08DE596E090939706809345
:1032A000960681E080937F06109281061092820636
:1032B000109283061092840610928506109286065C
:1032C00010928706109288061092890610928A063C
:1032D00010928B0610928C0610928D0667E871E0B2
:1032E000CE0188960E94200867E871E0CE018296A0
:1032F0000E9420086AE771E0CE0101960E94C9028F
:103300008B819C8190939D0680939C068D819E81EC
:10331000AF81B88580939E0690939F06A093A006E8
:10332000B093A10689859A85AB85BC858093A2065A
:103330009093A306A093A406B093A5068DE0FE018A
:103340003D96A6EAB6E001900D928A95E1F7EA8DE6
:10335000FB8DF093B406E093B3063097E9F08581D6
:103360008823D1F08AE996E00E94320E892B79F009
:103370008AE996E00E946014182F8AE996E00E947C
:10338000320E892B09F4A0C31B3591F79DC38AE93E
:1033900096E00E94021410C048E150E06CE671E033
:1033A00087E995E00E94ED0542E050E065E871E0B4
:1033B00087E995E00E94ED05CE0182960E941208F1
:1033C000CE0188960E9412086091D60285E00E9484
:1033D000B6086091D4028EE00E94B6086091D202D5
:1033E0008FE00E94B6086091D00280E10E94B6088A
:1033F0006091CE0281E10E94B6086091CC0282E128
:103400000E94B6086091CA0283E10E94B60888E86B
:1034100091E00E94220468EE73E080E090E00E9458
:10342000220958E0A52EB12C63E0262E312C72E043
:10343000472E512CECEB6E2EE1E07E2EF0EE8F2E1F
:10344000F2E09F2E9E012F5F3F4F7901009106030E
:10345000109107030C30110508F008C3F801EC5C6B
:10346000FF4F0C94142281E090E06CC0EEEEF2E08D
:103470001192119232E0EC3FF307D1F70E94CA0398
:1034800010920103109200030E94AC05811149C003
:1034900002E010E046C01092ED021092EC020E9491
:1034A0005C096093DC027093DD028093DE029093EE
:1034B000DF0288E991E00E94220430920703209203
:1034C0000603D4C20E945C092091DC023091DD0227
:1034D0004091DE025091DF02DC01CB01821B930B95
:1034E000A40BB50B81339547A105B105C0F40E942B
:1034F00080018823B1F08091B906882339F01092B9
:10350000B9068091BA069091BB0602C08FEF9FEF7B
:103510009093FF028093FE0205E010E002C004E0F9
:1035200010E01093070300930603A0C289EA91E01C
:103530000E94220460EA7FE080E090E00E9422097D
:1035400084E090E090930703809306038FC20E946B
:10355000BA0389E090E0F6CF8091FB028F938091CF
:10356000FA028F938091F9028F938091F8028F93E2
:103570008091F7028F938091F6028F938091F502EC
:103580008F938091F4028F938091F3028F938091B7
:10359000F2028F938091F1028F938091F0028F93CA
:1035A0008091EF028F938091EE028F937F926F92C2
:1035B0009F928F920E94782480EE92E00E9455158F
:1035C0000FB6F894DEBF0FBECDBF882309F46BC0E1
:1035D00081E090E0909303038093020367E871E039
:1035E000CE0188960E94200867E871E0CE0182969D
:1035F0000E94200860EE72E0C7010E94C9028B8120
:103600009C8190939D0680939C068D819E81AF81C5
:10361000B88580939E0690939F06A093A006B093D2
:10362000A10689859A85AB85BC858093A206909377
:10363000A306A093A406B093A5068DE0FE013D96D7
:10364000A6EAB6E001900D928A95E1F7EA8DFB8D2E
:10365000F093B406E093B3063097E1F085818823B8
:10366000C9F08AE996E00E94320E892B79F08AE946
:1036700096E00E946014182F8AE996E00E94320EAC
:10368000892B09F48CC21B3591F789C28AE996E02F
:103690000E940214CE0182960E941208CE018896E2
:1036A0000E94120804C0109203031092020380913A
:1036B000FB028F938091FA028F938091F9028F938E
:1036C0008091F8028F938091F7028F938091F60298
:1036D0008F938091F5028F938091F4028F93809164
:1036E000F3028F938091F2028F938091F1028F9376
:1036F0008091F0028F938091EF028F938091EE0280
:103700008F9386ED91E09F938F93FF92EF920E94AB
:103710007824C7010E9455150FB6F894DEBF0FBE7E
:10372000CDBF8823B9F080EF91E00E94220468E8C1
:1037300073E180E090E00E942209C7010E94220408
:103740008091020390910303019739F43AE0C32E6C
:10375000D12C03C04BE0C42ED12CD0920703C092D1
:10376000060384C1609104017091050180910601F6
:10377000909107010E94C6210E9422090091D8025F
:103780001091D9020530110551F461E08091D60203
:103790009091D702892B09F060E085E00CC00E30D3
:1037A000110561F461E08091D4029091D502892BDA
:1037B00009F060E08EE00E94B60829C00F301105C4
:1037C00061F461E08091D2029091D302892B09F0DB
:1037D00060E08FE00E94B60827C00031110551F467
:1037E00061E08091D0029091D102892B09F060E0D4
:1037F00080E126C00131110551F461E08091CE02D3
:103800009091CF02892B09F060E081E119C002316B
:10381000110551F461E08091CC029091CD02892B89
:1038200009F060E082E10CC00331110559F461E058
:103830008091CA029091CB02892B09F060E083E16C
:103840000E94B6086091000170910101809102010F
:10385000909103010E94C6210E94220905301105A2
:1038600021F46091D60285E006C00E30110531F4D6
:103870006091D4028EE00E94B60817C00F30110587
:1038800031F46091D2028FE00E94B60815C0003179
:10389000110521F46091D00280E114C001311105BD
:1038A00021F46091CE0281E10DC00231110521F4B5
:1038B0006091CC0282E106C00331110529F46091C8
:1038C000CA0283E10E94B6081092ED021092EC0247
:1038D000109201031092000310920503109204034A
:1038E0001092E8021092E9021092EA021092EB02A2
:1038F00010920303109202031092D9021092D80280
:103900001092040110920501109206011092070115
:103910001092000110920101109202011092030115
:10392000EEEEF2E01192119232E0EC3FF307D1F7A4
:10393000509207034092060399C061E08091D8023B
:103940000E94B60810920303109202038BC080916C
:10395000000390910103FC01EE0FFF1FE251FD4FA8
:103960002091FE023091FF023183208301969093D3
:1039700001038093000307971CF086E090E0E2CDFE
:1039800083E090E0DFCD80910203909103030197E3
:1039900019F088E090E0D6CD87E090E0D3CD80911B
:1039A000040390910503019690930503809304030B
:1039B000019721F482E092E00E94220480910403A6
:1039C00090910503029721F483E192E00E94220482
:1039D0008091040390910503039771F480EF91E0C7
:1039E0000E94220468EE73E080E090E00E942209C9
:1039F00085E292E00E9422048091040390910503E5
:103A0000049721F480EF91E00E9422048091040346
:103A100090910503059721F486E392E00E94220429
:103A20008091040390910503069721F489E492E0C4
:103A30000E9422048091040390910503079791F45A
:103A400080EF91E00E94220468EE73E080E090E055
:103A50000E9422098AE592E00E9422041092050346
:103A600010920403B0920703A09206030E94800103
:103A70008091060390910703019761F00E94AC05C5
:103A8000882341F00E94CA0381E090E090930703ED
:103A9000809306030E94E906D9CC1D33C1F1BE0113
:103AA000685D7F4FCE0101960E941708612FCE01FD
:103AB00001960E94A607BC01CE0188960E94FB07D2
:103AC000CE0101960E9412088AE996E00E946014D5
:103AD000182F8AE996E00E94320E892BC1F0DDCFC3
:103AE0001D3519F1BE016E5D7F4FCE0101960E941A
:103AF0001708612FCE0101960E94A607BC01CE01D6
:103B000082960E94FB07CE0101960E9412088AE964
:103B100096E00E946014182F8AE996E00E94320E07
:103B2000892BF1F61D3509F01DCCBE016E5D7F4F6E
:103B3000CE0101960E941708BE01685D7F4FCE013D
:103B40004C960E941708BE016F5F7F4FCE014C96C6
:103B50000E949414CE014C960E941208CE01019648
:103B60000E941208CE0188960E94E005CE0182963E
:103B70000E94E005F7CB1D3391F1BE01685D7F4FD8
:103B8000C7010E941708612FC7010E94A607BC0148
:103B9000CE0188960E94FB07C7010E9412088AE99D
:103BA00096E00E946014182F8AE996E00E94320E77
:103BB000892BA9F0E0CF1D3501F1BE016E5D7F4F6D
:103BC000C7010E941708612FC7010E94A607BC0108
:103BD000CE0182960E94FB07C7010E9412088AE963
:103BE00096E00E946014182F8AE996E00E94320E37
:103BF000892B09F71D3509F034CDBE016E5D7F4F6D
:103C0000C7010E941708BE01685D7F4FCE014C9628
:103C10000E941708B701CE014C960E949414CE0161
:103C20004C960E941208C7010E941208CE01889685
:103C30000E94E005CE0182960E94E00512CDE7E9E0
:103C4000F5E01382128288EE93E0A0E0B0E0848376
:103C50009583A683B78322E231E03183208325EC6C
:103C600030E03587248724EC30E03787268720EC46
:103C700030E0318B208B21EC30E0338B228B22EC37
:103C800030E0358B248B26EC30E0378B268B118E81
:103C9000128E138E148EE4E3F6E013821282848374
:103CA0009583A683B78320E431E031832083128E8D
:103CB000118E1486EFE4F6E040E540831182E1E5E1
:103CC000F6E0158216821186138642E050E060E02D
:103CD00070E0448755876687778713A215A614A6D8
:103CE00044E351E053A742A717A6E5EBF6E046E010
:103CF00050E05183408343E050E053834283148279
:103D000010861782EAE9F6E0138212828483958393
:103D1000A683B78331832083128E118E1486089573
:103D2000662777270C94D01E1F93FC0199278827BC
:103D3000BC01E89411911032E9F3193010F01E30F3
:103D4000C8F31B3251F01D3249F4689406C00E943A
:103D5000BB1E610F711D811D911D119110531A30F1
:103D6000B0F33EF490958095709561957F4F8F4F9D
:103D70009F4F1F910895592F482F372F262F660FD9
:103D8000771F881F991F660F771F881F991F620F63
:103D9000731F841F951F660F771F881F991F089533
:103DA000A0E0B0E0E6EDFEE10C948421EC017B01A3
:103DB0006115710519F0DB018D939C938E010F5FE6
:103DC0001F4F7880872D90E00E942D20892B11F0C5
:103DD000E801F4CFBDE27B1205C00F5F1F4F798071
:103DE000C1E008C0EBE27E1204C08E010E5F1F4FDF
:103DF0007980C0E06801F1E0CF1AD10843E050E0DB
:103E000068E870E0C6010E943620892BF1F4680151
:103E100022E0C20ED11C45E050E063E870E0C6012C
:103E20000E943620892B21F4680187E0C80ED11C3E
:103E3000E114F10419F0D701CD92DC92C111FFC059
:103E400060E070E080E89FE703C143E050E060E895
:103E500070E0C6010E943620892B51F4E114F10470
:103E600009F4F2C00E5F1F4FF70111830083ECC00D
:103E7000680160E070E0CB0100E010E0F601D0EDF9
:103E8000D70DDA3058F52C2F2260622E2C2F287097
:103E9000C2FF05C0211128C00F5F1F4F25C022237C
:103EA00011F001501109A5E0B0E09B01AC010E94A6
:103EB00075214B015C01880C991CAA1CBB1CC50117
:103EC000B4016D0F711D811D911D6839A9E97A0733
:103ED0008A07A9E19A0740F0C66005C0DE3F51F4A9
:103EE000C3FD44C0C8606C2EBFEFCB1ADB0A7080E4
:103EF000C62DC4CF2D2F2F7D2531C1F540814D32E8
:103F000011F4C06106C04B3221F0319621E030E05F
:103F100006C03296D60111964C9122E030E0A0ED19
:103F2000A40FAA3018F0E21BF30B20C040E050E0D1
:103F30004038BCE05B075CF49A01220F331F220F6C
:103F4000331F420F531F440F551F4A0F511D319607
:103F5000DF0111972C91A0EDA20FAA3048F3C4FF06
:103F600003C0519541955109040F151FC1FF07C0AA
:103F7000E114F10421F03197D701ED93FC930E94F5
:103F80005320C370C33019F06B017C0106C06B0174
:103F90007C01F7FAF094F7F8F09420E030E0A90102
:103FA000C701B6010E944E20882309F445C017FFBF
:103FB00006C0119501951109CFE9D0E002C0C7EB09
:103FC000D0E05E01B8E1AB1AB1084601BE2DAF2DBD
:103FD00090E2E92EF12C0E151F0584F0FE012591CB
:103FE000359145915491B4018B2F9A2F0E94B420A2
:103FF0004B01B82FA92F0E191F09EDCF2497F59467
:10400000E794CA15DB0539F76401EB2EFA2E8E2DE5
:10401000880F8F2D881F8F3F49F020E030E0A901E5
:10402000C701B6010E944E20811106C082E290E0D5
:104030009093D7068093D606C701B60109C060E009
:1040400070E080E89FEF04C060E070E080EC9FE7E4
:10405000CDB7DEB7EEE00C94A02191110C94212194
:10406000803219F089508550C8F70895FB01DC01B2
:104070004150504088F08D9181341CF08B350CF408
:10408000805E659161341CF06B350CF4605E861BBC
:10409000611171F3990B0895881BFCCF0E94902049
:1040A00008F481E00895E89409C097FB3EF49095E8
:1040B0008095709561957F4F8F4F9F4F9923A9F001
:1040C000F92F96E9BB279395F69587957795679590
:1040D000B795F111F8CFFAF4BB0F11F460FF1BC0D4
:1040E0006F5F7F4F8F4F9F4F16C0882311F096E967
:1040F00011C0772321F09EE8872F762F05C0662315
:1041000071F096E8862F70E060E02AF09A95660FCD
:10411000771F881FDAF7880F9695879597F9089586
:10412000990F0008550FAA0BE0E8FEEF16161706C8
:10413000E807F907C0F012161306E407F50798F030
:10414000621B730B840B950B39F40A2661F0232B49
:10415000242B252B21F408950A2609F4A140A695C5
:104160008FEF811D811D08950E94C7200C943B2173
:104170000E942D2138F00E94342120F0952311F067
:104180000C9424210C942A2111240C946F210E9458
:104190004C2170F3959FC1F3950F50E0551F629F1E
:1041A000F001729FBB27F00DB11D639FAA27F00D90
:1041B000B11DAA1F649F6627B00DA11D661F829FB7
:1041C0002227B00DA11D621F739FB00DA11D621F9C
:1041D000839FA00D611D221F749F3327A00D611DB9
:1041E000231F849F600D211D822F762F6A2F11249B
:1041F0009F5750409AF0F1F088234AF0EE0FFF1FCE
:10420000BB1F661F771F881F91505040A9F79E3F24
:10421000510580F00C9424210C946F215F3FE4F34E
:10422000983ED4F3869577956795B795F795E7957A
:104230009F5FC1F7FE2B880F911D9695879597F983
:10424000089599278827089597F99F6780E870E077
:1042500060E008959FEF80EC089500240A941616FC
:10426000170618060906089500240A941216130664
:10427000140605060895092E0394000C11F48823F2
:1042800052F0BB0F40F4BF2B11F460FF04C06F5F0E
:104290007F4F8F4F9F4F089557FD9058440F551FE4
:1042A00059F05F3F71F04795880F97FB991F61F0B8
:1042B0009F3F79F087950895121613061406551F2F
:1042C000F2CF4695F1DF08C0161617061806991F9B
:1042D000F1CF86957105610508940895E894BB2790
:1042E00066277727CB0197F908950E94B721A59FEC
:1042F000900DB49F900DA49F800D911D11240895E1
:104300002F923F924F925F926F927F928F929F92E5
:10431000AF92BF92CF92DF92EF92FF920F931F93D3
:10432000CF93DF93CDB7DEB7CA1BDB0B0FB6F89484
:10433000DEBF0FBECDBF09942A88398848885F84C4
:104340006E847D848C849B84AA84B984C884DF8035
:10435000EE80FD800C811B81AA81B981CE0FD11D19
:104360000FB6F894DEBF0FBECDBFED010895A29F3A
:10437000B001B39FC001A39F700D811D1124911D39
:10438000B29F700D811D1124911D08950E9454212A
:1043900088F09F5798F0B92F9927B751B0F0E1F006
:1043A000660F771F881F991F1AF0BA95C9F714C0B6
:1043B000B13091F00E946E21B1E008950C946E210D
:1043C000672F782F8827B85F39F0B93FCCF38695EF
:1043D00077956795B395D9F73EF49095809570954C
:1043E00061957F4F8F4F9F4F0895052E97FB1EF4C9
:1043F00000940E940C2257FD07D00E941A2207FC4D
:1044000003D04EF40C940C22509540953095219594
:104410003F4F4F4F5F4F08959095809570956195F0
:104420007F4F8F4F9F4F0895EE0FFF1F0590F49120
:10443000E02D0994A1E21A2EAA1BBB1BFD010DC0A1
:10444000AA1FBB1FEE1FFF1FA217B307E407F50744
:1044500020F0A21BB30BE40BF50B661F771F881F20
:10446000991F1A9469F760957095809590959B01B6
:10447000AC01BD01CF010895CF93DF938230910548
:1044800010F482E090E0E091DA06F091DB0620E0A3
:1044900030E0C0E0D0E0309711F140815181481701
:1044A0005907C0F04817590761F48281938120971A
:1044B00019F09B838A832BC09093DB068093DA06E6
:1044C00026C02115310519F04217530718F49A0137
:1044D000BE01DF01EF010280F381E02DDCCF211569
:1044E000310509F1281B390B2430310590F412965F
:1044F0008D919C9113976115710521F0FB019383B8
:10450000828304C09093DB068093DA06FD01329625
:1045100044C0FD01E20FF31F8193919322503109B2
:104520002D933C933AC02091D8063091D906232B85
:1045300041F420911101309112013093D90620935A
:10454000D80620910F01309110012115310541F459
:104550002DB73EB74091130150911401241B350B28
:10456000E091D806F091D906E217F307A0F42E1BCC
:104570003F0B2817390778F0AC014E5F5F4F2417C7
:10458000350748F04E0F5F1F5093D9064093D80669
:104590008193919302C0E0E0F0E0CF01DF91CF91F1
:1045A00008950F931F93CF93DF93009709F48CC066
:1045B000FC013297138212820091DA061091DB0619
:1045C0000115110581F420813181820F931F209103
:1045D000D8063091D9062817390779F5F093D9060E
:1045E000E093D80671C0D80140E050E0AE17BF0795
:1045F00050F412962D913C911397AD012115310580
:1046000009F1D901F3CF9D01DA013383228360815F
:104610007181860F971F8217930769F4EC01288137
:104620003981260F371F2E5F3F4F318320838A81C8
:104630009B8193838283452B29F4F093DB06E093DF
:10464000DA0642C01396FC93EE931297ED0149915E
:1046500059919E01240F351FE217F30771F48081F1
:104660009181840F951F029611969C938E9382815F
:10467000938113969C938E931297E0E0F0E0D8011B
:1046800012968D919C911397009719F0F8018C0167
:10469000F6CF8D919C9198012E5F3F4F820F931F13
:1046A0002091D8063091D9062817390769F4309738
:1046B00029F41092DB061092DA0602C013821282ED
:1046C0001093D9060093D806DF91CF911F910F91D7
:1046D0000895A0E0B0E0EFE6F3E20C948421EC0151
:1046E000009721F4CB010E943C22B8C0FC01E60FE8
:1046F000F71F9C0122503109E217F30708F4ACC000
:10470000D9010D911C91119706171707B0F00530CC
:10471000110508F49FC0C80104978617970708F48D
:1047200099C002501109061B170B019311936D9349
:104730007C93CF010E94D1228DC05B01A01AB10AE7
:104740004C01800E911EA091DA06B091DB0640E08C
:1047500050E0E12CF12C109709F44AC0A815B905D6
:10476000D1F56D907C901197630182E0C80ED11C49
:10477000CA14DB0480F1A3014A195B096A0182E0D3
:10478000C80ED11C1296BC9012971396AC91B5E04E
:10479000CB16D10440F0B282A38351834083D90168
:1047A0006D937C930AC00E5F1F4FC301800F911F52
:1047B000F90191838083EB2DFA2FE114F10431F09C
:1047C000D7011396FC93EE93129744C0F093DB0647
:1047D000E093DA063FC08D919C91119748175907D5
:1047E00008F4AC017D0112960D90BC91A02DB3CFC1
:1047F0008091D8069091D90688159905E1F446175D
:104800005707C8F480910F0190911001009741F46F
:104810008DB79EB74091130150911401841B950BE5
:10482000E817F907C8F4F093D906E093D806F90120
:10483000718360830FC0CB010E943C227C010097F2
:1048400059F0A801BE010E944524CE010E94D12248
:10485000C70104C0CE0102C080E090E0CDB7DEB752
:10486000EEE00C94A02181E090E0F8940C941927DC
:10487000FB01DC0104C08D910190801921F44150AD
:104880005040C8F7881B990B0895FB01DC0102C05A
:1048900001900D9241505040D8F70895FC0181914C
:1048A000861721F08823D9F7992708953197CF01EA
:1048B0000895FB01DC018D91019080190110D9F35D
:1048C000990B0895FB01DC0101900D920020E1F7A6
:1048D0000895FB01DC014150504048F001900D92D9
:1048E0000020C9F701C01D9241505040E0F70895E3
:1048F000AEE0B0E0EEE7F4E20C948E210D891E8963
:1049000086E08C831A8309838FEF9FE79E838D83D4
:10491000AE01475E5F4F6F89788DCE0101960E9490
:104920009B242F813885F801E20FF31F10822E9609
:10493000E4E00C94AA21ACE0B0E0E1EAF4E20C94EB
:1049400080217C016B018A01FC0117821682838120
:1049500081FFBDC1CE0101964C01F7019381F601A3
:1049600093FD859193FF81916F01882309F4ABC179
:10497000853239F493FD859193FF81916F018532E2
:1049800029F4B70190E00E948326E7CF512C312C07
:1049900020E02032A0F48B3269F030F4803259F0FC
:1049A000833269F420612CC08D3239F0803339F4C0
:1049B000216026C02260246023C0286021C027FD1A
:1049C00027C030ED380F3A3078F426FF06C0FAE001
:1049D0005F9E300D1124532E13C08AE0389E300D97
:1049E0001124332E20620CC08E3221F426FD6BC1BF
:1049F000206406C08C3611F4206802C0883641F469
:104A0000F60193FD859193FF81916F018111C1CFD3
:104A1000982F9F7D9554933028F40C5F1F4FFFE330
:104A2000F9830DC0833631F0833771F0833509F097
:104A30005BC022C0F801808189830E5F1F4F442430
:104A40004394512C540115C03801F2E06F0E711CD3
:104A5000F801A080B18026FF03C0652D70E002C080
:104A60006FEF7FEFC5012C870E9478262C01830110
:104A70002C852F77222E17C03801F2E06F0E711CA3
:104A8000F801A080B18026FF03C0652D70E002C050
:104A90006FEF7FEFC5012C870E946D262C012C85BE
:104AA0002068222E830123FC1BC0832D90E0481632
:104AB0005906B0F4B70180E290E00E9483263A9450
:104AC000F4CFF50127FC859127FE81915F01B701A5
:104AD00090E00E94832631103A94F1E04F1A510879
:104AE0004114510471F7E5C0843611F0893639F567
:104AF000F80127FF07C060817181828193810C5F7B
:104B00001F4F08C060817181072E000C880B990B24
:104B10000E5F1F4F2F76722E97FF09C090958095DC
:104B2000709561957F4F8F4F9F4F2068722E2AE0BE
:104B300030E0A4010E94BB26A82EA81844C08537E7
:104B400029F42F7EB22E2AE030E025C0F22FF97F23
:104B5000BF2E8F36C1F018F4883579F0B4C0803795
:104B600019F0883721F0AFC02F2F2061B22EB4FE8C
:104B70000DC08B2D8460B82E09C024FF0AC09F2F62
:104B80009660B92E06C028E030E005C020E130E094
:104B900002C020E132E0F801B7FE07C060817181F8
:104BA000828193810C5F1F4F06C06081718180E01C
:104BB00090E00E5F1F4FA4010E94BB26A82EA818EC
:104BC000FB2DFF777F2E76FE0BC0372D3E7FA51481
:104BD00050F474FE0AC072FC08C0372D3E7E05C03A
:104BE000BA2C372D03C0BA2C01C0B52C34FF0DC030
:104BF000FE01EA0DF11D8081803311F4397E09C078
:104C000032FF06C0B394B39404C0832F867809F0B2
:104C1000B39433FD13C030FF06C05A2CB31418F4FC
:104C2000530C5B18B32CB31468F4B70180E290E026
:104C30003C870E948326B3943C85F5CFB31410F4CF
:104C40003B1801C0312C34FF12C0B70180E390E063
:104C50003C870E9483263C8532FF17C031FD03C08C
:104C600088E790E002C088E590E0B7010CC0832F90
:104C7000867859F031FF02C08BE201C080E237FD37
:104C80008DE2B70190E00E948326A51438F4B701A5
:104C900080E390E00E9483265A94F7CFAA94F4010F
:104CA000EA0DF11D8081B70190E00E948326A110DA
:104CB000F5CF332009F451CEB70180E290E00E9495
:104CC00083263A94F6CFF7018681978102C08FEF51
:104CD0009FEF2C96E2E10C949C21FC010590615021
:104CE00070400110D8F7809590958E0F9F1F089502
:104CF000FC016150704001900110D8F780959095AB
:104D00008E0F9F1F08950F931F93CF93DF93FB0187
:104D1000238121FD03C08FEF9FEF28C022FF16C023
:104D200046815781248135814217530744F4A0817D
:104D3000B1819D012F5F3F4F318320838C9326816A
:104D400037812F5F3F4F3783268310C0EB01092F38
:104D5000182F0084F185E02D0995892BE1F68E81CD
:104D60009F8101969F838E83812F902FDF91CF911A
:104D70001F910F910895FA01AA27283051F120318F
:104D800081F1E8946F936E7F6E5F7F4F8F4F9F4FDF
:104D9000AF4FB1E03ED0B4E03CD0670F781F891F21
:104DA0009A1FA11D680F791F8A1F911DA11D6A0FEF
:104DB000711D811D911DA11D20D009F468943F91A2
:104DC0002AE0269F11243019305D3193DEF6CF01A1
:104DD0000895462F4770405D4193B3E00FD0C9F767
:104DE000F6CF462F4F70405D4A3318F0495D31FDD4
:104DF0004052419302D0A9F7EACFB4E0A695979527
:104E0000879577956795BA95C9F7009761057105FC
:104E100008959B01AC010A2E069457954795379546
:104E20002795BA95C9F7620F731F841F951FA01DA0
:064E30000895F894FFCF85
:104E360000007A4400007A44010160FFFFFFFF0092
:104E460000DC068000008A0088006F000000000079
:104E560000008006ED051806C706490627063B062C
:104E660000000000210EED056A0E690E000000002C
:104E7600530E6D0E6A0E090F320E60146A1400008E
:104E860000004107ED056A0E690E4107410741071B
:104E9600000000004107ED056A0E690E6572726F2B
:104EA60072206F70656E696E6720636F6E666967E4
:104EB6002E747874000D0A00737464736E64732F15
:104EC6007369742E77617600737464736E64732FDE
:104ED600647431302E77617600737464736E647314
:104EE6002F686F776C65722E7761760025316425A1
:104EF60031642531642531642531642531642531D9
:104F0600642E6C6F63002531642531642531642578
:104F160031642531642531642531642E776176004C
:104F2600737464736E64732F72696E67382E77615B
:104F36007600737464736E64732F627573792E775B
:104F4600617600737464736E64732F646365727242
:104F56002E77617600737464736E64732F726E6459
:104F6600332E77617600737464736E64732F6E6F7D
:104F760063616C6C2E77617600737464736E647310
:104F86002F726E64322E77617600737464736E646A
:104F9600732F6E69732E776176002F0065784C6FDC
:104FA600636B50494E00657844656C61790065789D
:104FB600486F6C6400696F50494E35484C00696F04
:104FC60050494E3134484C00696F50494E3135488E
:104FD6004C00696F50494E3136484C00696F504954
:104FE6004E3137484C00696F50494E3138484C00B5
:0A4FF600696F50494E3139484C00F4
:107E0000112484B714BE81FFF0D085E080938100F7
:107E100082E08093C00088E18093C10086E0809377
:107E2000C20080E18093C4008EE0C9D0259A86E02C
:107E300020E33CEF91E0309385002093840096BBD3
:107E4000B09BFECF1D9AA8958150A9F7CC24DD24C4
:107E500088248394B5E0AB2EA1E19A2EF3E0BF2EE7
:107E6000A2D0813461F49FD0082FAFD0023811F036
:107E7000013811F484E001C083E08DD089C08234E0
:107E800011F484E103C0853419F485E0A6D080C0E4
:107E9000853579F488D0E82EFF2485D0082F10E0AE
:107EA000102F00270E291F29000F111F8ED06801E7
:107EB0006FC0863521F484E090D080E0DECF843638
:107EC00009F040C070D06FD0082F6DD080E0C81688
:107ED00080E7D80618F4F601B7BEE895C0E0D1E017
:107EE00062D089930C17E1F7F0E0CF16F0E7DF06D8
:107EF00018F0F601B7BEE89568D007B600FCFDCFD4
:107F0000A601A0E0B1E02C9130E011968C91119780
:107F100090E0982F8827822B932B1296FA010C0160
:107F200087BEE89511244E5F5F4FF1E0A038BF0790
:107F300051F7F601A7BEE89507B600FCFDCF97BE46
:107F4000E89526C08437B1F42ED02DD0F82E2BD052
:107F50003CD0F601EF2C8F010F5F1F4F84911BD097
:107F6000EA94F801C1F70894C11CD11CFA94CF0C13
:107F7000D11C0EC0853739F428D08EE10CD085E9AC
:107F80000AD08FE07ACF813511F488E018D01DD067
:107F900080E101D065CF982F8091C00085FFFCCF94
:107FA0009093C60008958091C00087FFFCCF809118
:107FB000C00084FD01C0A8958091C6000895E0E648
:107FC000F0E098E1908380830895EDDF803219F02E
:107FD00088E0F5DFFFCF84E1DECF1F93182FE3DFCA
:107FE0001150E9F7F2DF1F91089580E0E8DFEE27F6
:047FF000FF270994CA
:027FFE00040479
:0400000300007E007B
:00000001FF
