:100000000C9409020C9431020C9431020C943102CC
:100010000C9431020C9431020C9431020C94310294
:100020000C9431020C9431020C94291F0C9431026F
:100030000C9431020C94BC1F0C9431020C943102CC
:100040000C944A220C9431020C9449250C947B2583
:100050000C9431020C9431020C9431020C94310254
:100060000C9431020C943102250828082B082E0824
:10007000310834083B083E084108440847084A084C
:100080004D086572726F72206F70656E696E6720C1
:10009000636F6E6669672E7478740000556E6162D6
:1000A0006C6520746F206C6F6361746520612063E0
:1000B0007573746F6D202E5741562066696C6520EC
:1000C000666F72200020666F756E642E0043757334
:1000D000746F6D202E5741562066696C65200000B4
:1000E000556E61626C6520746F206C6F636174651E
:1000F000206120637573746F6D202E4C4F43206612
:10010000696C6520666F72200020666F756E642EC4
:1001100000437573746F6D202E4C4F432066696CDD
:100120006520004469616C696E672054696D656F74
:100130007574204572726F72006F666620686F6F0B
:100140006B002D2D2D2D2D2D2D2D2D2D2D2D2D00FB
:10015000535049204D49534F20202020202020205B
:1001600020202D2050696E20443132202020202074
:1001700020205350492053434B202020202D205035
:10018000696E2044313300535049205353202020BE
:100190002020202020202020202D2050696E204467
:1001A000313020202020202020535049204D4F5313
:1001B000492020202D2050696E2044313100537099
:1001C00065616B65725F70696E20202020202020A1
:1001D0002D2050696E20443920202020202020200E
:1001E000694F50494E3139202020202D2050696E12
:1001F000204135004449414C5244595F50494E20FA
:100200002020202020202D2050696E2044362020E0
:10021000202020202020696F50494E313820202096
:10022000202D2050696E20413400696F50494E35B1
:100230002020202020202020202020202D20506938
:100240006E2044352020202020202020696F504936
:100250004E3137202020202D2050696E2041330060
:100260005344204368697053656C65637420202093
:1002700020202D2050696E20443420202020202072
:100280002020696F50494E3136202020202D2050EB
:10029000696E20413200526F746172792050756C22
:1002A00073652020202020202D2050696E204433AB
:1002B0002020202020202020694F50494E31352019
:1002C0002020202D2050696E2041310048616E644D
:1002D00073657420286F6E2D686F6F6B29202D2039
:1002E00050696E2044322020202020202020696F79
:1002F00050494E3134202020202D2050696E20415D
:1003000030002D2D2D50494E4F5554532D2D2D205D
:100310000000526F746172792050686F6E65204CD6
:100320006F636B2F436F6E74726F6C6C6572202AF3
:100330002A526F746172794C6F636B5344332D3161
:100340002A2A20323031362D32303138202D53696F
:10035000676D617A47465840676D61696C2E636FBF
:100360006D007C3C3E5E2B3D3F2F5B5D3B2C2A228B
:100370005C00000000080002010000030407000008
:10038000000000000000010204081020408001026B
:1003900004081020010204081020040404040404CA
:1003A0000404020202020202030303030303000027
:1003B000000023002600290000000000250028007E
:1003C0002B0000000000240027002A004E414E4967
:1003D0004E495459494E46CDCCCC3D0AD7233C1703
:1003E000B7D13877CC2B329595E6241FB14F0A0050
:1003F0000020410000C84200401C4620BCBE4CCA40
:100400001B0E5AAEC59D74002806070E4C114622DD
:10041000AB2511241FBECFEFD8E0DEBFCDBF12E069
:10042000A0E0B1E0EEEAF0E602C005900D92A43C37
:10043000B107D9F726E0A4ECB2E001C01D92A43EBA
:10044000B207E1F714E0C2E1D4E004C02297FE0154
:100450000E946F29C830D107C9F70E94D7270C9492
:1004600055300C940000CF93DF93C1EED2E0688149
:1004700085E00E94A523688187E00E94A52368810A
:1004800088E00E94A5236091DB028EE00E94A523F4
:100490006091D9028FE00E94A5236091D70280E18C
:1004A0000E94A5236091D50281E10E94A52360915D
:1004B000D30282E10E94A5236091D10283E1DF9102
:1004C000CF910C94A52363E271E081E393E00E9455
:1004D000412268E873E180E090E00E94C32267EE69
:1004E00072E081E393E00E94412287E090E008956A
:1004F00063E271E081E393E00E94412268E873E1E6
:1005000080E090E00E94C32267EE72E081E393E016
:100510000E94412288E090E008950E9433021092E8
:10052000270310922603109225031092240388E0DB
:1005300090E0089510922903109228030E949422BB
:1005400060932003709321038093220390932303ED
:1005500065E371E081E393E00E94412269E371E089
:1005600081E496E00E94552683E090E00895809112
:100570001E0390911F03FC01EE0FFF1FE05FFC4F75
:100580002091390330913A0331832083019690936F
:100590001F0380931E0307971CF483E090E00895E7
:1005A00086E090E00895E0E1F3E01192119283E09B
:1005B000EE31F807D1F7089560910A0170910B01AF
:1005C00080910C0190910D010E94EB270E94C322A3
:1005D0008091E3029091E402059759F461E08091E3
:1005E000E1029091E202892B09F060E085E00E942F
:1005F000A5238091E3029091E402079759F461E00A
:100600008091DF029091E002892B09F060E087E0A1
:100610000E94A5238091E3029091E402089759F487
:1006200061E08091DD029091DE02892B09F060E0AB
:1006300088E00E94A5238091E3029091E4020E9746
:1006400059F461E08091DB029091DC02892B09F082
:1006500060E08EE00E94A5238091E3029091E40285
:100660000F9759F461E08091D9029091DA02892BB9
:1006700009F060E08FE00E94A5238091E302909151
:10068000E402409759F461E08091D7029091D8023A
:10069000892B09F060E080E10E94A5238091E302AC
:1006A0009091E402419759F461E08091D5029091D4
:1006B000D602892B09F060E081E10E94A523809198
:1006C000E3029091E402429759F461E08091D302F1
:1006D0009091D402892B09F060E082E10E94A52369
:1006E0008091E3029091E402439759F461E0809194
:1006F000D1029091D202892B09F060E083E10E943F
:10070000A5236091060170910701809108019091E5
:1007100009010E94EB270E94C3228091E30290917D
:10072000E402059729F46091E10285E00E94A52387
:100730008091E3029091E402079729F46091DF022F
:1007400087E00E94A5238091E3029091E40208973C
:1007500029F46091DD0288E00E94A5238091E302E4
:100760009091E4020E9729F46091DB028EE00E94E2
:10077000A5238091E3029091E4020F9729F4609100
:10078000D9028FE00E94A5238091E3029091E402B8
:10079000409729F46091D70280E10E94A5238091BF
:1007A000E3029091E402419729F46091D50281E13E
:1007B0000E94A5238091E3029091E402429729F4DC
:1007C0006091D30282E10E94A5238091E30290917F
:1007D000E402439729F46091D10283E10E94A523AA
:1007E000109229031092280310921F0310921E03E7
:1007F0001092E6021092E50210922A0310922B0347
:1008000010922C0310922D031092270310922603AE
:100810001092E4021092E30210920A0110920B016E
:1008200010920C0110920D01109206011092070116
:1008300010920801109209010E94D30282E090E018
:1008400008950F931F930E9494220091200310910A
:1008500021032091220330912303601B710B820B33
:10086000930B613375478105910548F063E271E0B0
:1008700081E496E00E94552684E090E013C084EC69
:1008800092E00E94D71D882359F084EC92E00E94E8
:10089000221E90933A038093390385E090E002C0D2
:1008A00083E090E01F910F91089566E471E081E389
:1008B00093E00E94412260EA7FE080E090E00E94A5
:1008C000C32284E090E008958091E5029091E602D1
:1008D00001969093E6028093E502019731F469E571
:1008E00071E081E393E00E9441228091E5029091C2
:1008F000E602029731F46AE671E081E393E00E9438
:1009000041228091E5029091E602039791F463E21F
:1009100071E081E393E00E94412268EE73E080E0A1
:1009200090E00E94C3226CE771E081E393E00E94B3
:1009300041228091E5029091E602049731F463E24E
:1009400071E081E393E00E9441228091E502909161
:10095000E602059731F46DE871E081E393E00E94CF
:1009600041228091E5029091E602069731F460EA17
:1009700071E081E393E00E9441228091E502909131
:10098000E6020797B1F463E271E081E393E00E942D
:10099000412268EE73E080E090E00E94C32261EBA8
:1009A00071E081E393E00E9441221092E6021092EE
:1009B000E50288E090E00895EF92FF920F931F9375
:1009C000CF93DF93CDB7DEB7EDB6FEB6FC01448121
:1009D00055814F5F5F4F2DB73EB7241B350B0FB6C8
:1009E000F8943EBF0FBE2DBF0DB71EB70F5F1F4F50
:1009F00020E030E0B8010E94A127C8010E947E2BB0
:100A00000FB6F894FEBE0FBEEDBEDF91CF911F91E1
:100A10000F91FF90EF900895EF92FF920F931F9325
:100A2000CF93DF9300D000D000D0CDB7DEB77C01EC
:100A30008B0161EC71E00E948227882339F0C801A4
:100A40000E94CB277093E4026093E3026BEC71E0A9
:100A5000C7010E9482278823A9F0B801CE01019620
:100A60000E941427CE0101960E94DC0460930A01C3
:100A700070930B0180930C0190930D01CE010196B0
:100A80000E94792663ED71E0C7010E9482278823C6
:100A9000A9F0B801CE0101960E941427CE0101965B
:100AA0000E94DC04609306017093070180930801A3
:100AB00090930901CE0101960E9479266AED71E0BA
:100AC000C7010E948227882339F0C8010E94CB27E2
:100AD0007093E2026093E10263EE71E0C7010E944D
:100AE0008227882339F0C8010E94CB277093E00247
:100AF0006093DF026CEE71E0C7010E9482278823B9
:100B000039F0C8010E94CB277093DE026093DD02AA
:100B100065EF71E0C7010E948227882339F0C80180
:100B20000E94CB277093DC026093DB026FEF71E0D1
:100B3000C7010E948227882339F0C8010E94CB2771
:100B40007093DA026093D90269E072E0C7010E94F3
:100B50008227882339F0C8010E94CB277093D802DE
:100B60006093D70263E172E0C7010E948227882365
:100B700039F0C8010E94CB277093D6026093D5024A
:100B80006DE172E0C7010E948227882339F0C80115
:100B90000E94CB277093D4026093D30267E272E085
:100BA000C7010E948227882339F0C8010E94CB2701
:100BB0007093D2026093D10226960FB6F894DEBFEE
:100BC0000FBECDBFDF91CF911F910F91FF90EF909E
:100BD00008950F931F93CF93DF93082F802F0E94C8
:100BE000DB2311E0892B09F410E0C1E0D0E084EFB1
:100BF00091E00E94FD22802F0E94DB23212F30E014
:100C00008217930759F7219719F4C2E0D0E0EFCF8C
:100C1000812FDF91CF911F910F91089582E00E9463
:100C2000E90591E0892708950E94D30281E393E0CA
:100C30000E94502010921F0310921E030E940E0665
:100C4000882319F082E090E0089581E090E0089513
:100C500085EF92E00E94C80A43E050E066E070E051
:100C600084EC92E00C945E1D1F93CF93DF93CDB77D
:100C7000DEB7AD970FB6F894DEBF0FBECDBF64EB05
:100C800072E0CE0188960E94E72664EB72E0CE0106
:100C900082960E94E72621E04EEE52E06BE373E07D
:100CA000CE0101960E946E0D8B819C819093F8027B
:100CB0008093F7028D819E81AF81B8858093F90280
:100CC0009093FA02A093FB02B093FC0289859A8567
:100CD000AB85BC858093FD029093FE02A093FF023A
:100CE000B09300038DE0FE013D96A1E0B3E00190DA
:100CF0000D928A95E1F78A8D9B8D90930F038093D7
:100D00000E0385EF92E00E94530B8823C1F085EF1C
:100D100092E00E94120B892B71F085EF92E00E9405
:100D20005A0A182F85EF92E00E94120B892B81F14D
:100D30001B3599F72DC085EF92E00E94410BCE0143
:100D400082960E947926CE0188960E947926AD96D9
:100D50000FB6F894DEBF0FBECDBFDF91CF911F91CC
:100D600008951D33C1F1BE01685D7F4FCE0101962C
:100D70000E941427612FCE0101960E947427BC01A6
:100D8000CE0188960E94FD26CE0101960E9479260A
:100D900085EF92E00E945A0A182F85EF92E00E9498
:100DA000120B892BC1F0DDCF1D3519F1BE016E5D2F
:100DB0007F4FCE0101960E941427612FCE0101962C
:100DC0000E947427BC01CE0182960E94FD26CE01AE
:100DD00001960E94792685EF92E00E945A0A182F08
:100DE00085EF92E00E94120B892BF1F61D3509F078
:100DF0008ECFBE016E5D7F4FCE0101960E941427FB
:100E0000BE01685D7F4FCE014C960E941427BE0143
:100E10006F5F7F4FCE014C960E940C05CE014C9621
:100E20000E947926CE0101960E94792664EB72E039
:100E3000CE0188960E941D2764EB72E0CE01829657
:100E40000E941D2764CF80911D038F9380911C0306
:100E50008F9380911B038F9380911A038F938091BE
:100E600019038F93809118038F93809117038F93A9
:100E7000809116038F93809115038F9380911403B3
:100E80008F93809113038F93809112038F9380919E
:100E900011038F93809110038F9381E392E09F93CE
:100EA0008F938EEE92E09F938F930E94062C6EEEAE
:100EB00072E08BE393E00E94FC0D2DB73EB72E5EEF
:100EC0003F4F0FB6F8943EBF0FBE2DBF8823D9F019
:100ED00081E090E0909327038093260361E171E025
:100EE00081E496E00E942C266EEE72E081E496E0AA
:100EF0000E944F2669E071E081E496E00E94552649
:100F00000E94340616C0109227031092260360EE4A
:100F100070E081E496E00E942C266EEE72E081E49F
:100F200096E00E944F266FED70E081E496E00E940B
:100F3000552680911D038F9380911C038F93809180
:100F40001B038F9380911A038F93809119038F93C2
:100F5000809118038F93809117038F9380911603CC
:100F60008F93809115038F93809114038F938091B9
:100F700013038F93809112038F93809111038F93AA
:100F8000809110038F938BE492E09F938F9387EE71
:100F900092E09F938F930E94062C67EE72E08BE3A2
:100FA00093E00E94FC0D2DB73EB72E5E3F4F0FB66B
:100FB000F8943EBF0FBE2DBF882301F16DEC70E0A9
:100FC00081E496E00E942C2667EE72E081E496E0D0
:100FD0000E944F2665EC70E081E496E00E94552661
:100FE00081E090E090932503809324038091260371
:100FF0009091270381309105A9F417C06CE970E046
:1010000081E496E00E942C2667EE72E081E496E08F
:101010000E944F266BE970E081E496E00E9455261D
:101020008CE006C0892B19F008958AE001C08BE09E
:1010300090E00895E0912F03F0913003ED30F10539
:1010400090F5EC5CFF4F0C946D2981E090E027C097
:101050000E94140624C00E949A0221C00E9421040A
:101060001EC00E9455041BC081E393E00E94111F23
:1010700089E090E014C00E94230711C00E94DC02A6
:101080000EC00E948D020BC00E94B70208C00E94D1
:10109000630205C00E94780202C00E94640490931B
:1010A000300380932F0384EC92E00E94D71D80913F
:1010B0002F0390913003019771F00E940E06811169
:1010C0000AC081E393E00E94502081E090E0909379
:1010D000300380932F0308951F93CF93DF93CDB7F1
:1010E000DEB7AD970FB6F894DEBF0FBECDBF64EB91
:1010F00072E0CE0188960E94E72664EB72E0CE0192
:1011000082960E94E72621E045E652E06BE373E019
:10111000CE0101960E946E0D8B819C819093F80206
:101120008093F7028D819E81AF81B8858093F9020B
:101130009093FA02A093FB02B093FC0289859A85F2
:10114000AB85BC858093FD029093FE02A093FF02C5
:10115000B09300038DE0FE013D96A1E0B3E0019065
:101160000D928A95E1F78A8D9B8D90930F03809362
:101170000E0385EF92E00E94530B8823C9F085EFA0
:1011800092E00E94120B892B71F085EF92E00E9491
:101190005A0A182F85EF92E00E94120B892BB9F1A1
:1011A0001B3599F734C085EF92E00E94410B06C0D1
:1011B00062E870E081E496E00E945526CE018296B6
:1011C0000E947926CE0188960E947926AD960FB6A8
:1011D000F894DEBF0FBECDBFDF91CF911F91089570
:1011E0001D33C1F1BE01685D7F4FCE0101960E94A3
:1011F0001427612FCE0101960E947427BC01CE01F5
:1012000088960E94FD26CE0101960E94792685EFE0
:1012100092E00E945A0A182F85EF92E00E94120B6A
:10122000892BC1F0DDCF1D3519F1BE016E5D7F4FF9
:10123000CE0101960E941427612FCE0101960E94D3
:101240007427BC01CE0182960E94FD26CE01019634
:101250000E94792685EF92E00E945A0A182F85EFA6
:1012600092E00E94120B892BF1F61D3509F087CF11
:10127000BE016E5D7F4FCE0101960E941427BE0114
:10128000685D7F4FCE014C960E941427BE016F5FB0
:101290007F4FCE014C960E940C05CE014C960E94C9
:1012A0007926CE0101960E94792664EB72E0CE0188
:1012B00088960E941D2764EB72E0CE0182960E9400
:1012C0001D275DCF84EC92E00E94671D89E080932A
:1012D000310326E040E855E260E070E081E496E00A
:1012E0000E94E72462E173E081E496E00E945526C3
:1012F00061E173E081E496E00E94552662E073E0CC
:1013000081E496E00E9455266CEC72E081E496E060
:101310000E94552666E972E081E496E00E94552617
:1013200060E672E081E496E00E9455266AE272E08F
:1013300081E496E00E94552664EF71E081E496E036
:101340000E9455266EEB71E081E496E00E945526DE
:1013500067E871E081E496E00E94552660E571E05F
:1013600081E496E00E94552662E471E081E496E013
:101370000E9455261092300310922F0381E0809333
:101380002E0360E082E00E946C2361E082E00E9414
:10139000A52361E085E00E946C2361E087E00E9464
:1013A0006C2361E088E00E946C2361E08EE00E9483
:1013B0006C2361E08FE00E946C2361E080E10E9479
:1013C0006C2361E081E10E946C2361E082E10E9474
:1013D0006C2361E083E10E946C2364E08BE393E083
:1013E0000E94550C811106C060E772E081E496E02E
:1013F0000C9467260E946C080E94330268E772E032
:1014000081E393E00E94412268EE73E080E090E087
:101410000C94C322CF93DF931F92CDB7DEB76983BD
:10142000DC01ED91FC910280F381E02D41E050E080
:10143000BE016F5F7F4F09950F90DF91CF910895A7
:10144000CF93DF93EC01898D9A8D009759F0FC01C1
:10145000138212820E94CD16E98DFA8D228133818A
:10146000232B31F081E090E09B838A8380E090E041
:10147000DF91CF910895FC01818D928D009711F03D
:101480000C946D140895CF93DF931F92CDB7DEB700
:1014900041E050E0BE016F5F7F4F0E947E120197D6
:1014A00019F4898190E002C08FEF9FEF0F90DF91D8
:1014B000CF910895FC01818D928D009711F00C94CD
:1014C000430A8FEF9FEF08950F931F93CF93DF93FE
:1014D0008C01FC01818D928D0097B9F00E94430A26
:1014E000EC018F3FFFEF9F0799F0F801818D928DFE
:1014F000FC01428553856485758541505109610918
:1015000071090E94D113CE0105C080E090E002C0B5
:101510008FEF9FEFDF91CF911F910F910895CF92A1
:10152000DF92EF92FF920F931F93CF93DF93EC0123
:101530007B016A011B821A8208EE13E020E030E092
:101540000C831D832E833F838CE892E099838883EC
:101550008DE190E00E948D299A8F898F009779F014
:101560002DE1F701DC0101900D922A95E1F74CE0A5
:1015700050E0B601CE010C960E94E22B188EDF914E
:10158000CF911F910F91FF90EF90DF90CF90089532
:10159000FC011382128248EE53E060E070E0448365
:1015A0005583668377838CE892E091838083128EE3
:1015B000118E14860895FC01818D928D009711F093
:1015C0000C947E1280E090E00895FC01818D928D54
:1015D000009729F00E94D11391E0811101C090E0A1
:1015E000892F0895DC015996ED91FC915A97309717
:1015F00029F0628573858485958508956FEF7FEF67
:10160000CB010895DC015996ED91FC915A973097E2
:1016100029F06389748985899689089560E070E06E
:10162000CB010895CF92DF92EF92FF92CF93DF9399
:10163000EC01898D9A8D892BD9F0CE010E94020B85
:101640006B017C01CE010E94F20AA7019601261BC4
:10165000370B480B590BDA01C901811530E89307A4
:10166000A105B10538F08FEF9FE7A0E0B0E002C020
:1016700080E090E0DF91CF91FF90EF90DF90CF90EE
:101680000895CF93DF93EC01898D9A8D009741F0F7
:101690000E94B414898D9A8D0E94252A1A8E198E63
:1016A000DF91CF910895DC015996ED91FC915A9705
:1016B000309721F081E09581911101C080E008957B
:1016C0001F93CF93DF93CDB7DEB76D970FB6F89426
:1016D000DEBF0FBECDBFAB011C821B822EE932E004
:1016E0003A8329831E8221E0BC01CE0101960E942B
:1016F000E81511E0811102C010E004C0CE0101968E
:101700000E94B414812F6D960FB6F894DEBF0FBE01
:10171000CDBFDF91CF911F910895CF93DF93FB0150
:1017200020813181FC01E20FF31FE081EF3211F4DF
:101730002F5F3F4FDA01E0E0F0E0EC01C20FD31F72
:10174000C881CF3249F0CC2339F031962F5F3F4F1B
:10175000CD93EC30F10589F7E40FF51F1082FC0101
:10176000E20FF31F40814F3211F42F5F3F4FFB0117
:1017700031832083FC01E20FF31F81E090819111FE
:1017800001C080E0DF91CF9108954F925F926F92F8
:101790007F928F929F92AF92BF92CF92DF92EF9201
:1017A000FF920F931F93CF93DF93CDB7DEB7C9544A
:1017B000D1090FB6F894DEBF0FBECDBF5C016B013F
:1017C0003A01490119A218A28EE992E09F8F8E8FEB
:1017D0001BA21C821B829A8389831E822A961FAEBB
:1017E0001EAE2A978B017E018EE1E80EF11C442487
:1017F0004394AE01455C5F4FBE01685B7F4FC501FE
:101800000E948D0B582E482F44259401BE01655C23
:101810007F4FC801F3010995811108C00C151D0502
:1018200019F0C8010E94B41480E027C05520B9F017
:1018300021E0AE01455C5F4FB801C7010E94E81589
:10184000582E0C151D0599F0C8010E94B41455209E
:1018500059F3902F812F8701E92EF82ECACF0C154E
:101860001D0519F0C8010E94B41481E006C0882348
:10187000D9F28E010F5F1F4FECCFC75BDF4F0FB662
:10188000F894DEBF0FBECDBFDF91CF911F910F91B6
:10189000FF90EF90DF90CF90BF90AF909F908F9090
:1018A0007F906F905F904F9008950F931F93CF9309
:1018B000DF93EC01462F61E00E94440F811102C0CA
:1018C00080E01DC08E01045F1F4F41E0BE01C801D2
:1018D0000E94141C882359F0B801CE018A960E94F8
:1018E0002E1291E0811101C090E0892F08C040E0E4
:1018F000BE01C8010E94141C882311F3EDCFDF91B3
:10190000CF911F910F910895FC01DB0112968D91EB
:101910009C911397938382838EE992E091838083D5
:1019200014968C911497848315968C9115978583C2
:1019300016964D915D916D917C91199746835783D1
:10194000608771871A964D915D916D917C911D977D
:1019500042875387648775871E964D915D916D917F
:101960007C91519746875787608B718B52968C91EB
:101970005297828B53964D915D916D917C915697C4
:10198000438B548B658B768B57964D915D916D9102
:101990007C915A97478B508F618F728F5B968D9198
:1019A0009C915C97948F838F08954F925F926F9272
:1019B0007F928F929F92AF92BF92CF92DF92EF92DF
:1019C000FF920F931F93CF93DF93CDB7DEB7C7542A
:1019D000D1090FB6F894DEBF0FBECDBF6C014A012E
:1019E0003901665D7F4F5E018EE1A80EB11CC50115
:1019F0000E94840C1C821B828EE992E09A83898368
:101A00001E828401FE0131967F015A2C4B2C6FE21D
:101A100070E0C8010E94C72B0097E9F1F80120810E
:101A20002F3219F40F5F1F4FF2CF801B8D3008F05B
:101A30008CE0A82EB12CA501B801CE01CB960E9456
:101A4000E22BEBE3F0E0EC0FFD1FEA0DFB1D108233
:101A5000C7010E94B41421E0AE01455C5F4F652DC3
:101A6000742DC7010E94E815811109C0F601138287
:101A700012828EE992E091838083158216C00A0D4E
:101A80001B1D852D942D0E94B414C2015E2C4F2C79
:101A9000E92EF82EBCCF08191909F3011183008330
:101AA000652D742DC6010E94840CC601C95BDF4FF1
:101AB0000FB6F894DEBF0FBECDBFDF91CF911F915F
:101AC0000F91FF90EF90DF90CF90BF90AF909F90DD
:101AD0008F907F906F905F904F9008959F92AF92FC
:101AE000BF92CF92DF92EF92FF920F931F93CF930B
:101AF000DF93CDB7DEB7C955D1090FB6F894DEBF75
:101B00000FBECDBF7C016B015A01922E9E01285A57
:101B10003F4FCE01CB960E94D50C6A960EAD1FADFD
:101B20006A970A0D1B1DF801808181110AC0BE0150
:101B3000655C7F4FCE0101960E94840C48E952E01B
:101B400041C019A218A28EE992E09F8F8E8F1BA22E
:101B500021968FAD2197811104C0C7010E94C80A48
:101B600037C08250823060F4B601665D7F4F292D08
:101B7000A801CE014E960E94E815811110C0EDCF4C
:101B8000292DA801BE01655C7F4FCE014E960E94B3
:101B9000E815882311F3CE01CB960E94B414892D49
:101BA000867041F049A95AA96BA97CA9CE014E962D
:101BB0000E94D113BE01625E7F4FCE0101960E944A
:101BC000840CA801BE016F5F7F4FC7010E948F0A7E
:101BD000C701C75ADF4F0FB6F894DEBF0FBECDBFA7
:101BE000DF91CF911F910F91FF90EF90DF90CF90F9
:101BF000BF90AF909F900895FB01BC01665D7F4F41
:101C000020E030E040E65BE0CF010C94C50B109281
:101C1000400310924103109244031092460382E065
:101C200090E0A0E0B0E08093470390934803A09336
:101C30004903B0934A0310925E0310926803109216
:101C400067038EE992E09093660380936503109298
:101C50006A0308959FB7F8942091920580919005AA
:101C6000213019F48DBB9FBF08958FBF0895209137
:101C70009205222399F03FB7F894209192052130E4
:101C800059F42DB3209390054DB3209191052095E3
:101C900024232DBB3FBF02C0309390058CBD9DBD5A
:101CA00008958EBD00000DB407FEFDCF8EB50895DA
:101CB0008FEF0C94510E61E0FC0184810E94A523FA
:101CC00080918403882339F01092840380919205D7
:101CD00081110C942A0E0895CF93DF93EC0180912B
:101CE0008403811109C081E080938403809185037E
:101CF000909186030E94370E60E08C81DF91CF9136
:101D00000C94A523CF93DF93EC018E81882389F077
:101D10008F8198859C012F5F3F4F38872F838230BA
:101D2000924018F40E94580EF3CFCE010E945B0E31
:101D30001E82DF91CF910895673028F026E1FC01E3
:101D4000258380E00895623081F030F4662359F0F5
:101D50006130B1F480E515C0643059F040F0653071
:101D600079F482E50EC080E505C081E503C081E518
:101D700008C082E58093850381E0809386030895FF
:101D800083E5809385031092860381E008950F9385
:101D90001F93CF93DF93EB010E9494228B010E944B
:101DA000580E8F3F49F00E949422601B710B6C17F4
:101DB0007D07A8F380E001C081E0DF91CF911F9102
:101DC0000F910895CF92DF92FF920F931F93CF93BD
:101DD000DF9300D000D0CDB7DEB76C01F62E29839B
:101DE0003A834B835C830E94820EC6010E946C0E74
:101DF0006CE271E0C6010E94C70E8F2D80640E94C4
:101E0000510E08E110E05C814B813A812981DA01B1
:101E1000C901002E04C0B695A795979587950A9499
:101E2000D2F729833A834B835C830E94510E08507A
:101E3000110929813A814B815C81083F8FEF180796
:101E400031F7FF2029F0E8E0FE1621F08FEF03C004
:101E500085E901C087E80E94510E10E00E94580EEB
:101E6000F601828787FF04C01F3F11F01F5FF6CF86
:101E70000F900F900F900F90DF91CF911F910F91C6
:101E8000FF90DF90CF900895BF92CF92DF92EF92B4
:101E9000FF920F931F93CF93DF93EC01B62E1B8617
:101EA00019861E821D824C830E9494228B0161E060
:101EB0008C810E946C2361E08C810E94A5230E948A
:101EC000281D82E580938503109286038091850307
:101ED000909186030E94370E2AE0F22E8FEF0E9427
:101EE000510EFA94D9F78091920581110E942A0E21
:101EF000CE010E946C0E20E030E0A90160E0CE012E
:101F00000E94E20EF82E8A8781E0F81649F00E94BE
:101F10009422601B710B613D774068F381E04BC0F8
:101F20002AEA31E040E050E068E0CE010E94E20E93
:101F300082FF02C0FB860DC094E0F92E0E94580E6D
:101F40008A87FA94D9F78A3A11F082E034C082E0A5
:101F50008B878B85823031F4C12CD12CE12C80E42D
:101F6000F82E03C0C12CD12C760120E030E0A9016D
:101F700067E3CE010E94E20EA701960169E2CE015D
:101F80000E94E20E8A87882349F00E949422601BF7
:101F9000710B613D774048F388E00DC08B8582303E
:101FA00031F520E030E0A9016AE3CE010E94E20EA3
:101FB000882381F086E08D83CE010E945B0E80E055
:101FC000DF91CF911F910F91FF90EF90DF90CF9015
:101FD000BF9008950E94580E807C803C11F483E0ED
:101FE0008B870E94580E0E94580E0E94580ECE01F8
:101FF0000E945B0E6B2DCE01DF91CF911F910F914F
:10200000FF90EF90DF90CF90BF900C949C0E0F93B9
:102010001F93CF93DF93EC010E9494228B010E94C7
:10202000580E8A878F3F49F40E949422601B710BDF
:102030006D327140A0F38FE003C08E3F39F08DE028
:102040008D83CE010E945B0E80E001C081E0DF91B4
:10205000CF911F910F910895CF92DF92EF92FF924F
:102060000F931F93CF93DF93EC01690101151105C5
:1020700009F462C0C801820F931F8130924008F0BA
:102080005DC08E81882371F088819981AA81BB818E
:10209000481759076A077B0729F48F819885C81666
:1020A000D90610F5488359836A837B838B858330F7
:1020B00039F039E0440F551F661F771F3A95D1F765
:1020C0009A01AB0161E1CE010E94E20E882319F072
:1020D00083E08D8333C0CE010E940710882371F105
:1020E00018861F8281E08E838F8198858C159D05CF
:1020F00040F40E94580E8F819885019698878F83AF
:10210000F3CF6701E00EF11ECE14DF0431F00E9420
:10211000580EF60181936F01F7CF8F819885800F5C
:10212000911F98878F832985222319F0811592406A
:1021300018F0CE010E94820E81E004C0CE010E9400
:102140005B0E80E0DF91CF911F910F91FF90EF9098
:10215000DF90CF900895EF92FF920F931F93790134
:1021600000E012E020E030E00E942C101F910F915F
:10217000FF90EF900895CF92DF92EF92FF920F932E
:102180001F93CF93DF9300D0CDB7DEB78C01862F9E
:1021900049835A830E94510E4981C42E5A81D52EFB
:1021A000E12CF12CF60181916F010E94510EFFEF9D
:1021B000EF1AFF0AE11482E0F806A1F78FEF0E9400
:1021C000510E8FEF0E94510E0E94580EF801828727
:1021D0008F71853039F081E18583C8010E945B0EE3
:1021E00080E001C081E00F900F90DF91CF911F91AF
:1021F0000F91FF90EF90DF90CF9008950F931F9372
:10220000CF93DF93EC0189014115510561057105FB
:1022100011F482E132C08B85833039F089E0440FBC
:10222000551F661F771F8A95D1F79A01AB0168E1A8
:10223000CE010E94E20E882311F084E01EC0A801A6
:102240006EEFCE010E94BB108823C1F068E572E0FA
:10225000CE010E94C70E811102C085E10EC020E0B0
:1022600030E0A9016DE0CE010E94E20E811104C0B0
:102270000E94580E882339F084E18D83CE010E949C
:102280005B0E80E004C0CE010E945B0E81E0DF9116
:10229000CF911F910F91089580E58093850310924F
:1022A00086030895CF93DF93EC019C012A5F3F4F93
:1022B00041E050E060E070E08B8D9C8D0E94A91A97
:1022C0008823A1F04F89588D698D7A8D452B462B37
:1022D000472B71F44E815F81688579854F8B588FCC
:1022E000698F7A8F8C8180688C8302C080E001C006
:1022F00081E0DF91CF910895CF92DF92EF92FF922C
:102300001F93CF93DF93EC010E945211811102C001
:1023100080E04BC0EB8DFC8DCE80DF80E884F984BB
:1023200082E0C81AD108E108F108058404C0CC0C89
:10233000DD1CEE1CFF1C0A94D2F746855785608988
:102340007189C40ED51EE61EF71E148181E0C81ADD
:10235000D108E108F108112361F0C701B601610F4E
:10236000711D811D911D0E94F318882389F211505F
:10237000F2CFEB8DFC8DC12C82E0D82EE12CF12C1C
:10238000058404C0CC0CDD1CEE1CFF1C0A94D2F7A3
:102390004B895C896D897E894C0D5D1D6E1D7F1D8D
:1023A0004B8B5C8B6D8B7E8B81E0DF91CF911F918E
:1023B000FF90EF90DF90CF900895CF93DF93EC01E3
:1023C000462F6E857F85888999890E94B818882351
:1023D00041F08A8920E2829FC001112480579C4FDE
:1023E00002C080E090E0DF91CF910895282FFB019B
:1023F0008BE030E231938150E9F7A22FB92F20E032
:1024000037E09D91992319F19E3219F0E2E6F3E04D
:1024100008C03A3011F128E03AE0F3CF319649177D
:10242000E1F044914111FACF3217B8F04FED490F66
:102430004E3598F441E0420FFB01E20FF11D2FE908
:10244000290F2A3108F490529083242FDACF81E0AB
:10245000FB019081903209F480E008950F931F935F
:10246000CF93DF93EC018B018D81882311F080E005
:1024700040C0FB0187898031B1F482E08D831F8ADF
:10248000188E198E1A8E408D518D60E070E095E0A7
:10249000440F551F661F771F9A95D1F74B8B5C8BA6
:1024A0006D8B7E8B15C0803211F783E08D83FB012D
:1024B000428D538D648D758D4F8B588F698F7A8FB8
:1024C0009E012D5E3F4FC8010E949D19882379F21D
:1024D0001C8F0B8F81E08C831E821F8218861986C9
:1024E0001A861B861C861D861E861F86188A198AD8
:1024F0001A8ADF91CF911F910F9108952F923F92E9
:102500004F925F926F927F928F929F92AF92BF9203
:10251000CF92DF92EF92FF920F931F93CF93DF93AF
:10252000EC016B015A018D81811103C08FEF9FEF88
:10253000DAC08C8180FFFACF4B895C896D897E89F6
:102540008A859B85AC85BD852501612C712C8A010E
:102550009B01081B190B2A0B3B0B041515052605BF
:10256000370518F45A01A81AB90A25011E0126E0F8
:10257000220E311C4114510409F47BC04A855B854D
:102580006C857D854A0181E09822ED818A019B015D
:10259000F9E03695279517950795FA95D1F78B8D24
:1025A0009C8DE23051F4FC01628D738D848D958D8C
:1025B000600F711F821F931F3EC0FC0174807A94CC
:1025C000702281149104C9F4711017C0452B462B59
:1025D000472B49F48F89988DA98DBA8D8E839F835F
:1025E000A887B9870AC04E815F8168857985910186
:1025F0000E941919882309F499CFEB8DFC8D6E8107
:102600007F818885998562507109810991090584C6
:1026100004C0660F771F881F991F0A94D2F706859A
:10262000178520893189600F711F821F931F670DE5
:10263000711D811D911D20E032E0281939093201F8
:102640002415350508F439012C8126FD04C06114D8
:10265000F2E07F06A1F500910E0110910F0120918B
:10266000100130911101601771078207930719F467
:1026700026C0C50138C0760183019401AB01BC01BD
:1026800080918E0390918F030E942C10882309F46F
:102690004DCFC60CD71C04C0E81BF90BCE0EDF1EB5
:1026A0008A859B85AC85BD85860D971DA11DB11DB5
:1026B0008A879B87AC87BD87461857085BCF40E069
:1026C0000E94B818882309F431CFC40180579C4F69
:1026D000D6019C01260D371DFC01E217F307E1F23C
:1026E00041914D93FACFDF91CF911F910F91FF90C0
:1026F000EF90DF90CF90BF90AF909F908F907F90A2
:102700006F905F904F903F902F900895FF920F939E
:102710001F93CF93DF931F92CDB7DEB78C01FC01DF
:102720008581823018F480E090E034C0F801428561
:10273000538564857585A5E076956795579547958A
:10274000AA95D1F7F42FFF70FF2E41E050E0BE01B3
:102750006F5F7F4FC8010E947E12019719F4298193
:1027600030E002C02FEF3FEF2F3F3F4FE1F2F80183
:102770004285538564857585415E5F4F6F4F7F4FFE
:102780004287538764877587F0E2FF9EC00111245A
:1027900080579C4F0F90DF91CF911F910F91FF9029
:1027A00008954F925F926F927F92AF92BF92CF92B5
:1027B000DF92EF92FF920F931F93CF93DF93EC0181
:1027C0006A017B012D81222309F457C08B899C89E2
:1027D000AD89BE8984179507A607B70708F44DC0D1
:1027E0004EC08A859B85AC85BD85EB8DFC8DE585CE
:1027F000F0E03996AC01BD01415051096109710900
:102800000E2E04C076956795579547950A94D2F792
:1028100097018601015011092109310904C036953B
:10282000279517950795EA95D2F7041715072607F8
:102830003707B0F58F89988DA98DBA8D8E839F83C8
:10284000A887B987280139015E0186E0A80EB11C6E
:10285000411451046104710461F14E815F81688506
:10286000798595018B8D9C8D0E94191991E0491AEB
:102870005108610871088111EBCF80E01FC0223040
:10288000C1F0C114D104E104F10409F0AACF1E8201
:102890001F82188619861A861B861C861D860DC007
:1028A000892B8A2B8B2B31F2041B150B260B370B34
:1028B000C9CFCA86DB86EC86FD8681E0DF91CF91A9
:1028C0001F910F91FF90EF90DF90CF90BF90AF904E
:1028D0007F906F905F904F9008950F931F93CF93C9
:1028E000DF93EC018D818823C9F18C8187FF30C093
:1028F00061E0CE010E94DD118C01009779F18D819C
:10290000823048F44B895C896D897E89F801448F57
:10291000558F668F778F4F89588D698D7A8DF80125
:10292000538F428F758B648BE0918703F0918803FE
:10293000309759F0B8016A5E7F4FC80148960995F3
:10294000F801808D918D938B828B8C818F778C8316
:10295000DF91CF911F910F910C947D1880E0DF9152
:10296000CF911F910F910895CF93DF93EC010E94B7
:102970006D14882319F01D8281E001C080E0DF9191
:10298000CF9108954F925F926F927F92AF92BF92D4
:10299000CF92DF92EF92FF920F931F93CF93DF932B
:1029A00000D000D0CDB7DEB75C016A017B01FC012D
:1029B00085818130F1F4848181FF1BC0F501838919
:1029C0009489A589B68984179507A607B70788F063
:1029D000892B8A2B8B2B09F479C0F501428453840F
:1029E00064847584B701A601C5010E94D1138111C9
:1029F00002C080E06CC0F501838D948DC114D104B8
:102A0000E104F10471F44789508D618D728D0E944B
:102A1000BE1B882371F3F501178A108E118E128E5A
:102A20003AC0F50146815781608571859E012F5F0F
:102A30003F4F0E9419198823E1F249815A816B8125
:102A40007C81F501838D948DFC012789203129F447
:102A500008EF1FEF20E030E004C008EF1FEF2FEF7A
:102A60003FE04017510762077307A8F40E94BE1B9E
:102A7000882309F4BECFF5014681578160857185B1
:102A80000FEF1FEF2FEF3FE0838D948D0E94081A08
:102A9000882309F4AECFF501C38AD48AE58AF68A81
:102AA000848180688483C5010E946D14882309F4A1
:102AB000A0CFB701A6014C145D046E047F0410F48E
:102AC000B301A201C5010E94D11301C081E00F90A2
:102AD0000F900F900F90DF91CF911F910F91FF906A
:102AE000EF90DF90CF90BF90AF907F906F905F900E
:102AF0004F900895FF920F931F93CF93DF93EC01B4
:102B0000F42E80E2689FF0011124E057FC4F83858A
:102B1000817129F0842F827411F080E053C06A8B98
:102B200080910E0190910F01A0911001B0911101BF
:102B30008E879F87A88BB98B4489558960E070E0A8
:102B4000BA0155274427028D138D20E030E0402B39
:102B5000512B622B732B4F8B588F698F7A8F838504
:102B6000887151F4048D158D268D378D0B8B1C8B40
:102B70002D8B3E8B81E00CC0803179F69E012D5E5D
:102B80003F4F8B8D9C8D0E949D19882331F284E0EC
:102B90008D838F2D8F708C831E821F8218861986DD
:102BA0001A861B861C861D86F6FE0BC040E050E090
:102BB000BA01CE01DF91CF911F910F91FF900C943C
:102BC000C21481E0DF91CF911F910F91FF90089582
:102BD000AF92BF92CF92DF92EF92FF920F931F932B
:102BE000CF93DF93CDB7DEB72B970FB6F894DEBF48
:102BF0000FBECDBF7C016B01CA01B22EF70125814A
:102C00002111B9C0BE016F5F7F4F0E94F61188236A
:102C100009F4B1C0F601838D948DF701948F838FF1
:102C2000F601168217821086118612861386148684
:102C30001586A12CF60102851385248535858389A7
:102C40009489A589B689081719072A073B07E8F56B
:102C500045E036952795179507954A95D1F70F705A
:102C6000C6010E948613009709F485C0FC012081EB
:102C7000222311F0253EB9F4A1100EC0F701028BFA
:102C800040910E0150910F0160911001709111015E
:102C900046875787608B718BFC018081AA24A3949F
:102CA0008111C8CF12C04BE050E0BC01CE010196AB
:102CB0000E94B12B892B09F0BDCF8B2D80738033FF
:102CC00009F459C04B2D602F52C08B2D8271823177
:102CD00009F051C0AA2041F061E0C7010E94DD1156
:102CE0008C01009779F447C0F6018581823009F4A0
:102CF00042C0C6010E947C118823E9F1F701128AC3
:102D000000E913E080E2F80111928A95E9F78BE07F
:102D1000FE013196D80101900D928A95E1F7E0917C
:102D20008703F0918803309739F0B801625F7F4FD5
:102D3000C8014096099509C081E298E2F801918B9B
:102D4000808B80E098E097878687F8018089918959
:102D5000938B828B918F808F86859785978B868BBF
:102D60000E947D18882339F04B2DF7016289C70135
:102D70000E947A1501C080E02B960FB6F894DEBF52
:102D80000FBECDBFDF91CF911F910F91FF90EF90BC
:102D9000DF90CF90BF90AF9008952F923F924F92C7
:102DA0005F926F927F928F929F92AF92BF92CF92DB
:102DB000DF92EF92FF920F931F93CF93DF9300D098
:102DC00000D01F92CDB7DEB78C017B013A01DC0148
:102DD00015968C9115978130C9F414968C9181FFCA
:102DE00015C082FF1BC0F801438954896589768923
:102DF00082859385A485B58584179507A607B707AF
:102E000069F0C8010E94D113811108C081E090E0EF
:102E1000F8019383828380E090E046C1630180C023
:102E2000D8015B968D919C915C97FC01F481F150E7
:102E3000B501A40129E076956795579547952A95A0
:102E4000D1F7F423FD8321E09222FF2309F474C01B
:102E500080E092E08819990956018C159D0508F4C7
:102E60005C01D8015B96ED91FC915C9716962D90D4
:102E70003D904D905C901997B2E02B1A31084108B3
:102E80005108058404C0220C331C441C551C0A94B0
:102E9000D2F786859785A089B189280E391E4A1EEA
:102EA0005B1EED812E0E311C411C511CA114F2E061
:102EB000BF0609F088C080910E0190910F01A0918A
:102EC0001001B091110182159305A405B50559F4BF
:102ED0008FEF9FEFDC0180930E0190930F01A09381
:102EE0001001B09311019701B201A10180918E03ED
:102EF00090918F030E94FE10882309F487CF9EEFE4
:102F0000F91ACA18DB08F80182859385A485B5856E
:102F10008A0D9B1DA11DB11D82879387A487B5874C
:102F2000D8011A968D909D90AD90BC901D97C114BC
:102F3000D10409F075CF8AC08114910409F088CFBB
:102F400016964D915D916D917C91199741155105A2
:102F50006105710559F457968D919D910D90BC9125
:102F6000A02D0097A105B10541F521C09E012F5F5D
:102F70003F4F0E941919882309F44ECF89819A8105
:102F8000AB81BC81F801238D348DF9012789203173
:102F900029F448EF5FEF60E070E004C048EF5FEFB6
:102FA0006FEF7FE084179507A607B70730F0C801D9
:102FB0000E94521181114CCF29CFF801868397834B
:102FC000A087B18745CF8114910429F5D8011A96BD
:102FD0004D915D916D917C911D9753968D919D9131
:102FE0000D90BC91A02D481759076A077B0798F0F0
:102FF0000E947D18882309F409CF20920E01309297
:103000000F01409210015092110180918D03816057
:1030100080938D0308C041E0C201B1010E94B8183D
:10302000882309F4F3CEC40180579C4FD7019C013B
:103030002A0D3B1DFC01E217F30719F04D91419356
:10304000FACFE81BF90BEE0EFF1E5BCF53968D9166
:103050009D910D90BC91A02DF801248188159905B2
:10306000AA05BB0538F4838A948AA58AB68A2068A3
:1030700024830CC08091870390918803892B31F0C1
:103080006114710419F02068F8012483D8011496A2
:103090008C9183FD02C0C30107C0C8010E946D145A
:1030A000882309F4B3CEF7CF0F900F900F900F90B5
:1030B0000F90DF91CF911F910F91FF90EF90DF90D4
:1030C000CF90BF90AF909F908F907F906F905F90C8
:1030D0004F903F902F900895CF93DF931F92CDB7DD
:1030E000DEB7698341E050E0BE016F5F7F4F0E9411
:1030F000CD160F90DF91CF91089580918D03882395
:1031000099F140910E0150910F0160911001709161
:10311000110120E933E080918E0390918F030E948A
:10312000FE10882319F14091890350918A03609120
:103130008B0370918C03411551056105710591F068
:1031400020E933E080918E0390918F030E94FE105E
:10315000882361F01092890310928A0310928B03E6
:1031600010928C0310928D0381E0089580E0089501
:10317000CF92DF92EF92FF92CF936B017C01C42F2D
:1031800080910E0190910F01A0911001B091110159
:103190008C159D05AE05BF05D1F00E947D188111EB
:1031A00002C080E01AC020E933E0B701A601809197
:1031B0008E0390918F030E94AB10882391F3C092ED
:1031C0000E01D0920F01E0921001F0921101809156
:1031D0008D038C2B80938D0381E0CF91FF90EF9036
:1031E000DF90CF900895CF92DF92EF92FF926B0124
:1031F0007C010E947D188823B1F0E0E9F3E0119290
:1032000085E0E039F807D9F7C0920E01D0920F019E
:10321000E0921001F092110180918D038160809302
:103220008D0381E001C080E0FF90EF90DF90CF90B0
:1032300008958F929F92AF92BF92CF92DF92EF92BA
:10324000FF920F931F93CF93DF938C016A017B0151
:10325000E901FC0181859285A385B4850196A11DB4
:10326000B11D84179507A607B70710F480E058C072
:10327000F80143895489658976898789803129F4E1
:10328000BB27AF2D9E2D8D2D09C0D701C60127E08C
:10329000B695A795979587952A95D1F74C015D012D
:1032A000840E951EA61EB71EC501B40180900E01A6
:1032B00090900F01A0901001B09011016815790550
:1032C0008A059B0589F4F8018789803199F4DD240A
:1032D000EE24FF24F601EE0FFF1FE057FC4F808124
:1032E0009181A0E0B0E017C040E00E94B8188111C1
:1032F000EACFBCCFE894C7F8DD24EE24FF24F60122
:10330000EE0FFF1FEE0FFF1FE057FC4F80819181F2
:10331000A281B381BF7088839983AA83BB8381E034
:10332000DF91CF911F910F91FF90EF90DF90CF90A1
:10333000BF90AF909F908F9008954F925F926F9241
:103340007F92AF92BF92CF92DF92EF92FF920F9354
:103350001F93CF93DF9300D000D0CDB7DEB78C01A1
:1033600049835A836B837C835901C12CD12C76010C
:10337000412C42E0542E612C712C49815A816B8181
:103380007C819E012F5F3F4FC8010E94191988233D
:1033900059F1D301C201F801058404C0880F991FB7
:1033A000AA1FBB1F0A94D2F7C80ED91EEA1EFB1E25
:1033B00049815A816B817C818789803129F488EF2A
:1033C0009FEFA0E0B0E004C088EF9FEFAFEFBFE059
:1033D000481759076A077B0780F2F501C082D1823E
:1033E000E282F38281E001C080E00F900F900F90A5
:1033F0000F90DF91CF911F910F91FF90EF90DF9091
:10340000CF90BF90AF907F906F905F904F90089556
:103410004F925F926F927F928F929F92AF92BF92E4
:10342000CF92DF92EF92FF920F931F93CF93DF9390
:10343000EC016A017B012801390142305105610527
:10344000710508F474C049855A856B857C854F5F8A
:103450005F4F6F4F7F4F4C155D056E057F0508F47C
:1034600066C08B889C88AD88BE888F89803129F49E
:1034700077276F2D5E2D4D2D09C0B701A601E7E01E
:103480007695679557954795EA95D1F7840E951EE1
:10349000A61EB71E40910E0150910F0160911001C0
:1034A0007091110184169506A606B70671F48F89EE
:1034B000803199F4DD24EE24FF24F601EE0FFF1F86
:1034C000E057FC4F5182408218C040E0C501B40172
:1034D0000E94B8188111EBCF2AC0E894C7F8DD2408
:1034E000EE24FF24F601EE0FFF1FEE0FFF1FE05743
:1034F000FC4F408251826282738280918D03816091
:1035000080938D038A89823080F08D819E81AF8186
:10351000B885880D991DAA1DBB1D809389039093C2
:103520008A03A0938B03B0938C0381E001C080E0F9
:10353000DF91CF911F910F91FF90EF90DF90CF908F
:10354000BF90AF909F908F907F906F905F904F90C3
:1035500008952F923F924F925F926F927F929F9227
:10356000AF92BF92CF92DF92EF92FF920F931F9391
:10357000CF93DF93CDB7DEB760970FB6F894DEBF79
:103580000FBECDBF5C014D875E876F87788B1901B9
:10359000D9014D905D906D907C904114510461046F
:1035A000710431F0BFEF4B1A5B0A6B0A7B0A10C043
:1035B000FC014080518062807380992493940D8532
:1035C0001E852F853889013011052105310509F047
:1035D000912CD50119962D913D914D915C911C979F
:1035E0002F5F3F4F4F4F5F4F29873A874B875C874D
:1035F000730162011D821E821F821886F50181857A
:103600009285A385B4850D811E812F813885081789
:1036100019072A073B0708F056C029853A854B85CC
:103620005C852C153D054E055F0550F4A2E0CA2EC1
:10363000D12CE12CF12CB2E04B2E512C612C712CB1
:103640009E012F5F3F4FB701A601C5010E941919C6
:103650008823C9F149815A816B817C81D701C601D8
:103660000196A11DB11D452B462B472B19F02C01AE
:103670003D010FC0AC01BD01441955096609770928
:103680000D851E852F8538894017510762077307FE
:1036900079F02D813E814F8158852F5F3F4F4F4FED
:1036A0005F4F2D833E834F8358876C017D01A6CFEA
:1036B0000FEF1FEF2FEF3FE0B701A601C5010E94FA
:1036C000081A811118C080E041C0D701C6010197D6
:1036D000A109B1098D839E83AF83B88797018601C5
:1036E000AC01BD01C5010E94081A882361F3CD8099
:1036F000DE80EF80F8844C145D046E047F0428F3B0
:10370000D1014D915D916D917C91411551056105FE
:10371000710599F4F101408251826282738299208D
:10372000A1F0FFEF4F1A5F0A6F0A7F0AD5014D9291
:103730005D926D927C92139708C093018201C5013E
:103740000E94081A8111E6CFBECF81E060960FB6C5
:10375000F894DEBF0FBECDBFDF91CF911F910F91C7
:10376000FF90EF90DF90CF90BF90AF909F907F90B1
:103770006F905F904F903F902F900895AF92BF92BF
:10378000CF92DF92EF92FF920F931F93CF93DF932D
:1037900000D000D0CDB7DEB75C016A017B0182E0CA
:1037A00090E0A0E0B0E0F50180839183A283B38331
:1037B0009E012F5F3F4FB701A601C5010E94191955
:1037C000882311F100E010E09801B701A601C501BE
:1037D0000E94081A8823C1F0C980DA80EB80FC803F
:1037E000F5018789803129F488EF9FEFA0E0B0E0F0
:1037F00004C088EF9FEFAFEFBFE0C816D906EA0616
:10380000FB06B0F281E001C080E00F900F900F90B6
:103810000F90DF91CF911F910F91FF90EF90DF906C
:10382000CF90BF90AF9008958F929F92AF92BF922A
:10383000CF92DF92EF92FF920F931F93CF93DF937C
:10384000EC01142F70938F0360938E03442341F196
:10385000453010F080E0EFC040E060E070E0CB0168
:103860000E94B8188823B1F320E1129FF0011124BF
:10387000E25CFA4F80818F7769F784859585A6850C
:10388000B78584369105A105B10520F3C084D184A4
:10389000E284F384C114D104E104F10421F4DACF09
:1038A000C12CD12C760140E0C701B6010E94B818A6
:1038B000882381F280919B0390919C038115924013
:1038C00049F63091A003332329F280919E03909111
:1038D0009F03892B09F4BECF20919D03222309F475
:1038E000B9CF3A8B2C831D8630E041E050E06D85E6
:1038F000062FCA01062E02C0880F991F0A94E2F70C
:103900002817390731F081E0860F8D87683078F30A
:10391000A1CF2091A6033091A7032115310519F0FD
:1039200040E050E008C02091B4033091B5034091CD
:10393000B6035091B7032D833E834F835887809100
:103940009E0390919F0346015701880E991EA11C6A
:10395000B11C8B8A9C8AAD8ABE8AE091A103F0914A
:10396000A203F98FE88FA091A003B0E00E94732911
:10397000680D791D8A1D9B1D6A8F7B8F8C8F9D8F93
:1039800015E0EE0FFF1F1A95E1F7E150FE4FEF2F04
:10399000FF27E695DC01CB018E0F9F1FA11DB11DF6
:1039A0008E879F87A88BB98B8090A3039090A403E8
:1039B0008114910419F0A12CB12C08C08090B0039F
:1039C0009090B103A090B203B090B303A701960109
:1039D000281B390B4A0B5B0BDA01C901880D991DB5
:1039E000AA1DBB1D04C0B695A795979587950A9506
:1039F000D2F789879A87AB87BC87853F3FE09307DB
:103A0000A105B10510F48CE014C0853F9F4FA105BE
:103A1000B10510F480E10DC08091BC039091BD030D
:103A2000A091BE03B091BF038A8F9B8FAC8FBD8FD7
:103A300080E28F8B81E0DF91CF911F910F91FF90FA
:103A4000EF90DF90CF90BF90AF909F908F900895B0
:103A5000CF93CFB7F89480919305811127C0E4EA02
:103A6000F3E08491E0E9F3E09491E82FF0E0EE0FC9
:103A7000FF1FEE53FC4FA591B4918C91892321F443
:103A800061E08AE00E94A52361E08AE00E946C2345
:103A90008CB580618CBD8CB580648CBD61E08DE09F
:103AA0000E946C2361E08BE00E946C23809193055F
:103AB0008F5F80939305CFBFCF910895FC017183F1
:103AC0006083538342831482108617820895CF93B4
:103AD000DF93EC0160E088810E946C2360E08A81C2
:103AE0000E946C2361E088810E94A52361E08A81A5
:103AF0000E94A5230E94942269877A878B879C87DE
:103B0000DF91CF910895CF92DF92EF92FF920F93C2
:103B10001F93CF93DF93EC018B010E949422C98401
:103B2000DA84EB84FC846C157D058E059F0528F4F2
:103B300069877A878B879C8716C09B01AC012C19FB
:103B40003D094E095F0969017A0130E1C316D104CC
:103B5000E104F10440F018870F8369877A878B8727
:103B60009C8781E001C080E0DF91CF911F910F9190
:103B7000FF90EF90DF90CF900895CF93DF93EC010B
:103B800060E070E00E94831D882371F08D819E812A
:103B90009C01215031092A30310530F40A9711F483
:103BA0001E821D8281E08C83DF91CF9108950F9357
:103BB0001F93CF93DF93EC0188810E94DB238C015C
:103BC0008A810E94DB232F8138852130310579F0ED
:103BD00022303105D9F0232B29F5012B19F561E0AD
:103BE00070E0CE010E94831D811122C01BC00130F4
:103BF000110521F4CE010E94BD1D14C0019791F45E
:103C000062E070E0CE010E94831D0CC001301105FE
:103C100089F3892B39F461E070E0CE010E94831DA5
:103C200081110AC08C81DF91CF911F910F9108956E
:103C30001C821E821D82F6CF8D819E8101969E83FD
:103C40008D83F0CFFC018481882321F0148285814B
:103C5000968108958FEF9FEF08952091B00530E091
:103C6000220F331FF901E75EFE4F0190F081E02D36
:103C7000DC0115968D919C91169791838083F901B3
:103C8000E15EFE4F0190F081E02D82EB8083E091B8
:103C9000B005F0E0EE0FFF1FE35EFE4F0190F081F4
:103CA000E02D89E180830895CF93DF93EB012A8192
:103CB0003B81FC01338322834C815D816E817F8156
:103CC0004483558366837783488559856A857B85D8
:103CD00040875187628773872DE0FE013C96DC01A7
:103CE0001C9601900D922A95E1F7298D3A8DFC01E1
:103CF000328F218FDF91CF91089584E995E00C9464
:103D0000E50A84E995E00E94530B882311F081E0D5
:103D100008950895CF92DF92EF92FF920F931F9331
:103D2000CF93DF93CDB7DEB76B970FB6F894DEBFB6
:103D30000FBECDBF8C01AB0121E06BE373E0CE0180
:103D400001960E946E0DBE016F5F7F4F84E995E082
:103D50000E94541EC8010E94811E882309F451C08C
:103D600048E050E060E070E0C8010E947D1E87E5F9
:103D7000898381E48A8386E58B8385E48C83CE0105
:103D800001967C016E0195E0C90ED11C84E995E095
:103D90000E945A0AF70121917F01332727FD3095B0
:103DA0008217930719F4EC15FD0581F748E150E0FF
:103DB00060E070E0C8010E947D1E84E995E00E94E9
:103DC0005A0AF8019483838384E995E00E945A0A91
:103DD00020E030E0382FF80183819481822B932BEF
:103DE000948383834CE250E060E070E0C8010E945D
:103DF0007D1E80E490E0909337068093360681E044
:103E000001C080E06B960FB6F894DEBF0FBECDBF49
:103E1000DF91CF911F910F91FF90EF90DF90CF90A6
:103E2000089510923406E091B005F0E0EE0FFF1F08
:103E3000EF5DFE4F0190F081E02D20812E7D2083EB
:103E40000E94811E882321F084E995E00C94410BA7
:103E500008951F920F920FB60F9211242F933F9344
:103E60004F935F936F937F938F939F93AF93BF9382
:103E7000EF93FF93E091350691E0E927F0E0ED5EE6
:103E8000FE4F8081882309F466C08091350689271A
:103E900080933306E091B005F0E0EE0FFF1FEF5D79
:103EA000FE4F0190F081E02D80818F7D808378949A
:103EB00084E995E00E94120B209136063091370676
:103EC0002817390738F18091120183FF09C04CE2AD
:103ED00050E060E070E084E995E00E94E50A2EC0C1
:103EE000E091B005F0E0EE0FFF1FEF5DFE4F019097
:103EF000F081E02D80818E7D808384E995E00E94B1
:103F0000530B882321F084E995E00E94410B109225
:103F1000340621C06091330680E4689FB00111240B
:103F20006D547A4F40E450E084E995E00E94DB0A4A
:103F3000E0913306F0E0ED5EFE4F1082E091B005B7
:103F4000F0E0EE0FFF1FEF5DFE4F0190F081E02DDE
:103F5000808180628083FF91EF91BF91AF919F91AB
:103F60008F917F916F915F914F913F912F910F9022
:103F70000FBE0F901F9018951F920F920FB60F92C1
:103F800011242F933F938F939F93AF93BF93CF931E
:103F9000DF93EF93FF938091120186FD2BC0209158
:103FA000B1058091B00527FF30C090E0880F991FC0
:103FB000FC01E55EFE4FA081B181FC01EB5EFE4F8E
:103FC000C081D181E09135068091B20590E4E99FEE
:103FD000F0011124E80FF11DED54FA4F808190E0BB
:103FE000332721950CF4309502C0959587952A9535
:103FF000E2F72BC08091AF0591E089278093AF0550
:104000008091AF05882359F23CC090E0880F991F3A
:10401000FC01E55EFE4FA081B181FC01EB5EFE4F2D
:10402000C081D181E09135068091B20590E4E99F8D
:10403000F0011124E80FF11DED54FA4F808190E05A
:1040400002C0880F991F2A95E2F7998388831196F9
:104050009C938E938091B2058F5F8093B20580917F
:10406000B205803470F01092B205E0913506F0E0B0
:10407000ED5EFE4F91E09083809135068927809315
:104080003506FF91EF91DF91CF91BF91AF919F9155
:104090008F913F912F910F900FBE0F901F90189509
:1040A0006F927F928F929F92AF92BF92CF92DF9248
:1040B000EF92FF920F931F93CF93DF93EC01109237
:1040C0003406E091B005F0E0EE0FFF1FEF5DFE4F0C
:1040D0000190F081E02D80818E7D8083CE010E9451
:1040E000811E882321F084E995E00E94410B4091D4
:1040F000B00550E0440F551FFA01E15EFE4F6080AD
:104100007180D3018C9187FD1DC080911201806266
:1041100080931201FA01E35EFE4F0190F081E02DE1
:104120001082F3011082DF91CF911F910F91FF90C8
:10413000EF90DF90CF90BF90AF909F908F907F9047
:104140006F900895FA01E55EFE4F00811181D8015C
:104150002D913C9180E090E0FA01EB5EFE4F4F0123
:10416000BA01695E7E4F5B016D817E81861797077C
:1041700060F6D401ED90FC9037FD06C0F90162179E
:10418000730720F4FB0102C0E0E0F0E0D7011196D4
:10419000FC93EE9337FD08C0ED81FE81B901E21773
:1041A000F30720F4BF0102C060E070E0F801718302
:1041B0006083D501ED90FC90ED81FE81F2976AE07D
:1041C00070E0D701CD90DC90CE16DF06D0F36150C1
:1041D0007109B9F7019621503109C6CFCF93DF930A
:1041E000EC010E94502061E088810E946C2388814C
:1041F000863031F08E3241F0853041F481E001C0EB
:1042000082E08093B00504C083E0FBCF1092B0053C
:104210008DB581608DBD8CB58C7F8CBDDF91CF91CC
:104220000895CF92DF92EF92FF920F931F93CF9357
:10423000DF9300D000D0CDB7DEB78C017B01FC014D
:1042400090818781981771F0C80129833A834B8345
:104250005C830E94EE20F801808187835C814B8122
:104260003A812981C80129833A834B835C830E9468
:10427000111FB701C8010E948A1E29813A814B8112
:104280005C81882309F4F0C02115310541055105F1
:10429000A1F0F801A381B4810E9473296B017C0114
:1042A00084E995E00E94F20AAB01BC014C0D5D1D52
:1042B0006E1D7F1DC8010E947D1E81E08093340623
:1042C00040911201842F8F7780931201F80183812E
:1042D00094818B3F9F4A28F080EC9DE5F801948300
:1042E0008383F8012381348146FF07C040E050E01A
:1042F00060E075E38CE090E006C040E050E060E0F4
:104300007AE688E190E00E944E296AE0629FC0014F
:10431000639F900D1124F8019683858384E995E0CD
:104320000E945A0A7C0184E995E00E94640A8E0D7D
:104330009F1D97FD0196959587954091B105E09158
:10434000B005F0E0EE0FFF1FE55EFE4F0190F0813B
:10435000E02D20813181141634F402C03695279562
:104360004A95E2F709C0552741950CF4509502C0D3
:10437000220F331F4A95E2F7992740E050E02817B3
:10438000390708F044C0B9016F5F7F4F62177307A8
:1043900028F09B018617970708F49C01FA01ED5459
:1043A000FA4F20834F5F5F4F4034510561F740E083
:1043B00050E0B9016F5F7F4F6217730728F09B01D0
:1043C0008617970708F49C01FA01ED50FA4F2083F5
:1043D0004F5F5F4F4034510561F7109235061092E0
:1043E0001301109214011092B205F894C8010E94B2
:1043F0002D1EE091B005F0E0EE0FFF1FEF5DFE4FC8
:104400000190F081E02D81E2808378942DC0B90184
:10441000615071096817790728F06217730718F45B
:104420009B0101C09C01FA01ED54FA4F20834F5FBC
:104430005F4F4034510559F740E050E0B9016150F9
:1044400071096817790728F06217730718F49B0140
:1044500001C09C01FA01ED50FA4F20834F5F5F4F7E
:104460004034510559F7B9CF0F900F900F900F902E
:10447000DF91CF911F910F91FF90EF90DF90CF9040
:10448000089520E030E0A9010C94112184E995E021
:104490000C94C80A1F920F920FB60F9211242F93FB
:1044A0003F938F939F93AF93BF93809139069091E1
:1044B0003A06A0913B06B0913C063091380623E0C5
:1044C000230F2D3720F40196A11DB11D05C026E84C
:1044D000230F0296A11DB11D209338068093390643
:1044E00090933A06A0933B06B0933C0680913D061C
:1044F00090913E06A0913F06B09140060196A11D05
:10450000B11D80933D0690933E06A0933F06B09365
:104510004006BF91AF919F918F913F912F910F9046
:104520000FBE0F901F9018952FB7F8946091390621
:1045300070913A0680913B0690913C062FBF0895FA
:104540003FB7F89480913D0690913E06A0913F06BA
:10455000B091400626B5A89B05C02F3F19F00196E3
:10456000A11DB11D3FBF6627782F892F9A2F620F9B
:10457000711D811D911D42E0660F771F881F991FD5
:104580004A95D1F708958F929F92AF92BF92CF92A2
:10459000DF92EF92FF926B017C010E94A0224B01FF
:1045A0005C01C114D104E104F104F1F00E94E6279A
:1045B0000E94A022681979098A099B09683E734004
:1045C0008105910570F321E0C21AD108E108F108D4
:1045D00088EE880E83E0981EA11CB11CC114D10482
:1045E000E104F10429F7DDCFFF90EF90DF90CF9049
:1045F000BF90AF909F908F9008958230910538F0D2
:10460000880F991F880F991F05970197F1F7089553
:10461000789484B5826084BD84B5816084BD85B59D
:10462000826085BD85B5816085BDEEE6F0E0808164
:1046300081608083E1E8F0E0108280818260808385
:10464000808181608083E0E8F0E080818160808308
:10465000E1EBF0E0808184608083E0EBF0E080813A
:1046600081608083EAE7F0E08081846080838081DC
:104670008260808380818160808380818068808384
:104680001092C1000895833081F028F4813099F0B0
:104690008230A1F008958730A9F08830B9F08430D5
:1046A000D1F4809180008F7D03C0809180008F774E
:1046B00080938000089584B58F7702C084B58F7D84
:1046C00084BD08958091B0008F7703C08091B000C1
:1046D0008F7D8093B0000895CF93DF9390E0FC012D
:1046E000EA57FC4F2491FC01E656FC4F8491882345
:1046F00049F190E0880F991FFC01EE53FC4FA59102
:10470000B49188549C4FFC01C591D4919FB761111D
:1047100008C0F8948C91209582238C938881822301
:104720000AC0623051F4F8948C91322F3095832373
:104730008C938881822B888304C0F8948C91822B7F
:104740008C939FBFDF91CF9108950F931F93CF93C9
:10475000DF931F92CDB7DEB7282F30E0F901EE5876
:10476000FC4F8491F901EA57FC4F1491F901E65688
:10477000FC4F04910023C9F0882321F069830E9433
:1047800043236981E02FF0E0EE0FFF1FE854FC4F58
:10479000A591B4919FB7F8948C91611103C01095C5
:1047A000812301C0812B8C939FBF0F90DF91CF910C
:1047B0001F910F910895CF93DF93282F30E0F901D7
:1047C000EE58FC4F8491F901EA57FC4FD491F9015E
:1047D000E656FC4FC491CC2391F081110E944323F3
:1047E000EC2FF0E0EE0FFF1FE255FC4FA591B491C6
:1047F0002C912D2381E090E021F480E002C080E044
:1048000090E0DF91CF910895FC01818D228D90E0A1
:10481000805C9F4F821B91098F7399270895FC013B
:10482000918D828D981731F0828DE80FF11D858D65
:1048300090E008958FEF9FEF0895FC01918D828D98
:10484000981761F0828DDF01A80FB11D5D968C91E4
:10485000928D9F5F9F73928F90E008958FEF9FEFEF
:10486000089581EA95E2892B49F080E090E0892B58
:1048700029F00E94A12581110C9400000895FC01EB
:10488000848DDF01A80FB11DA35ABF4F2C91848DD9
:1048900090E001968F739927848FA689B7892C930E
:1048A000A089B1898C9180648C93938D848D9813A9
:1048B00006C00288F389E02D80818F7D8083089572
:1048C000CF93DF93EC01888D8823C9F0EA89FB89B7
:1048D000808185FD05C0A889B9898C9186FD0FC0AE
:1048E0000FB607FCF5CF808185FFF2CFA889B98983
:1048F0008C9185FFEDCFCE010E943F24E7CFDF9161
:10490000CF910895CF92DF92FF920F931F93CF9391
:10491000DF931F92CDB7DEB76C0181E0D6015896C8
:104920008C9358975B969C915B975C968C915C9767
:10493000981307C05096ED91FC915197808185FDA9
:104940002EC0F601038D10E00F5F1F4F0F7311276C
:10495000F02EF601848DF81211C00FB607FCF9CFC6
:10496000D6015096ED91FC915197808185FFF1CF52
:10497000C60169830E943F246981EBCF838DE80FD4
:10498000F11DE35AFF4F6083D6015B960C935B9752
:104990005296ED91FC915397808180620CC0D601B4
:1049A0005696ED91FC91579760835096ED91FC914E
:1049B000519780818064808381E090E00F90DF9147
:1049C000CF911F910F91FF90DF90CF900895BF92EC
:1049D000CF92DF92EF92FF92CF93DF93EC016A01C7
:1049E0007B01B22EE889F98982E08083411581EE4E
:1049F000580761057105A1F060E079E08DE390E072
:104A0000A70196010E942C29215031094109510921
:104A10005695479537952795211580E1380798F0E9
:104A2000E889F989108260E874E88EE190E0A701D6
:104A300096010E942C2921503109410951095695AE
:104A4000479537952795EC85FD853083EE85FF8565
:104A50002083188EEC89FD89B082EA89FB898081E8
:104A600080618083EA89FB89808188608083EA890C
:104A7000FB89808180688083EA89FB8980818F7DC2
:104A80008083DF91CF91FF90EF90DF90CF90BF9028
:104A900008951F920F920FB60F9211242F938F93A8
:104AA0009F93EF93FF93E0915106F091520680811E
:104AB000E0915706F091580682FD12C090818091D6
:104AC0005A068F5F8F7320915B06821751F0E09139
:104AD0005A06F0E0EF5BF94F958F80935A0601C0BC
:104AE0008081FF91EF919F918F912F910F900FBE39
:104AF0000F901F9018951F920F920FB60F921124CE
:104B00002F933F934F935F936F937F938F939F93D5
:104B1000AF93BF93EF93FF9381E496E00E943F240D
:104B2000FF91EF91BF91AF919F918F917F916F9185
:104B30005F914F913F912F910F900FBE0F901F905B
:104B4000189581E496E00E94042421E0892B09F461
:104B500020E0822F0895109244061092430688EEBA
:104B600093E0A0E0B0E08093450690934606A093C2
:104B70004706B093480686EA92E0909342068093F7
:104B8000410685EC90E090934E0680934D0684ECB0
:104B900090E09093500680934F0680EC90E09093C5
:104BA00052068093510681EC90E0909354068093D6
:104BB000530682EC90E0909356068093550686EC5F
:104BC00090E0909358068093570610925A061092E0
:104BD0005B0610925C0610925D060895CF92DF92FC
:104BE000EF92FF920F931F93CF93DF937C016A01A3
:104BF000EB0100E010E00C151D0571F06991D70183
:104C0000ED91FC910190F081E02DC7010995892B70
:104C100019F00F5F1F4FEFCFC801DF91CF911F91A8
:104C20000F91FF90EF90DF90CF900895611571057F
:104C300081F0DB010D900020E9F7AD0141505109F1
:104C4000461B570BDC01ED91FC910280F381E02DB6
:104C5000099480E090E00895EF92FF920F931F93E4
:104C6000CF93DF938C017B01C0E0D0E0F701EC0F24
:104C7000FD1F6491662359F0F801A081B181ED9187
:104C8000FC91C8010995892B11F02196EFCFCE0137
:104C9000DF91CF911F910F91FF90EF9008950C94A9
:104CA000162662EB72E00C9416260F931F93CF9397
:104CB000DF93EC010E942C268C01CE010E9451262C
:104CC000800F911FDF91CF911F910F9108950F9346
:104CD0001F93CF93DF93EC010E9416268C01CE0127
:104CE0000E945126800F911FDF91CF911F910F914C
:104CF0000895FC01808191810C94252ACF93DF9344
:104D0000EC0188819981009711F00E94252A19826F
:104D100018821D821C821B821A82DF91CF91089516
:104D20000F931F93CF93DF93EC018B016F5F7F4F46
:104D3000888199810E94B42A009731F099838883F1
:104D40001B830A8381E001C080E0DF91CF911F9136
:104D50000F910895CF93DF93EC0188819981892B7E
:104D600029F08A819B818617970760F4CE010E9403
:104D70009026882341F08C819D81892B19F4E8814C
:104D8000F981108281E0DF91CF910895EF92FF9237
:104D90000F931F93CF93DF93EC017B018A01BA013C
:104DA0000E94AA26811104C0CE010E947E2607C05F
:104DB0001D830C83B701888199810E94DB2BCE0172
:104DC000DF91CF911F910F91FF90EF900895FC011B
:104DD000118210821382128215821482611571056C
:104DE00059F0FB0101900020E9F7AF014150510952
:104DF000461B570B0C94C6260895CF93DF93EC0106
:104E0000FB018617970761F060817181611571055B
:104E100029F0448155810E94C62602C00E947E2648
:104E2000CE01DF91CF910895FC011182108213828F
:104E30001282158214820C94FD26CF93DF93EC012D
:104E40006115710561F0FB0101900020E9F7AF01E8
:104E500041505109461B570B0E94C62602C00E94B2
:104E60007E26CE01DF91CF910895EF92FF920F93AE
:104E70001F93CF93DF93EC017B010C811D816115A2
:104E8000710511F480E016C04115510591F0040F31
:104E9000151FB8010E94AA268823A1F32881398111
:104EA0008C819D81B701820F931F0E94DB2B1D8394
:104EB0000C8381E0DF91CF911F910F91FF90EF90D4
:104EC0000895CF93DF9300D0CDB7DEB769831A8200
:104ED00041E050E0BE016F5F7F4F0E9435270F9089
:104EE0000F90DF91CF910895CF93DF93EC010E9453
:104EF0006127811103C0CE010E947E26CE01DF9181
:104F0000CF910895FC0124813581232B31F421E0D8
:104F100061157105A1F0FB0108C0FC018081918140
:104F20006115710531F421E0FC018081882339F09D
:104F300005C00E94D22B21E0892B09F020E0822FAE
:104F400008950F931F93CF93DF93EB014115510504
:104F5000E9F02097D9F0FC016481758126173707A5
:104F6000A0F4621B730B8A010150110960177107CD
:104F700008F48B01FC0160817181620F731FA8012D
:104F8000CE010E94E22BC00FD11F1882DF91CF917A
:104F90001F910F910895FC0180819181009711F07C
:104FA0000C94822B60E070E0CB01089508950E947C
:104FB00008230E94D6270E946209C1E3D4E20E941E
:104FC0001A082097E1F30E943124F9CF08956CD09C
:104FD00008F481E00895BCD088F09F5790F0B92F75
:104FE0009927B751A0F0D1F0660F771F881F991F3E
:104FF0001AF0BA95C9F712C0B13081F0C3D0B1E050
:105000000895C0C0672F782F8827B85F39F0B93F5F
:10501000CCF3869577956795B395D9F73EF490953F
:105020008095709561957F4F8F4F9F4F0895E894BD
:1050300009C097FB3EF490958095709561957F4FE0
:105040008F4F9F4F9923A9F0F92F96E9BB2793958E
:10505000F695879577956795B795F111F8CFFAF49E
:10506000BB0F11F460FF1BC06F5F7F4F8F4F9F4FCF
:1050700016C0882311F096E911C0772321F09EE82D
:10508000872F762F05C0662371F096E8862F70E093
:1050900060E02AF09A95660F771F881FDAF7880F6D
:1050A0009695879597F90895990F0008550FAA0BC3
:1050B000E0E8FEEF16161706E807F907C0F012162B
:1050C0001306E407F50798F0621B730B840B950B2E
:1050D00039F40A2661F0232B242B252B21F4089583
:1050E0000A2609F4A140A6958FEF811D811D089520
:1050F00097F99F6780E870E060E008959FEF80EC8B
:10510000089500240A94161617061806090608952D
:1051100000240A9412161306140605060895092E93
:105120000394000C11F4882352F0BB0F40F4BF2B02
:1051300011F460FF04C06F5F7F4F8F4F9F4F089542
:1051400057FD9058440F551F59F05F3F71F0479538
:10515000880F97FB991F61F09F3F79F0879508951D
:10516000121613061406551FF2CF4695F1DF08C03C
:10517000161617061806991FF1CF86957105610559
:1051800008940895E894BB2766277727CB0197F901
:1051900008950BD0C4CFB5DF28F0BADF18F09523FF
:1051A00009F0A6CFABCF1124EECFCADFA0F3959FB5
:1051B000D1F3950F50E0551F629FF001729FBB27FE
:1051C000F00DB11D639FAA27F00DB11DAA1F649FAA
:1051D0006627B00DA11D661F829F2227B00DA11D5D
:1051E000621F739FB00DA11D621F839FA00D611DE3
:1051F000221F749F3327A00D611D231F849F600D04
:10520000211D822F762F6A2F11249F5750408AF03C
:10521000E1F088234AF0EE0FFF1FBB1F661F771FC8
:10522000881F91505040A9F79E3F510570F060CF04
:10523000AACF5F3FECF3983EDCF3869577956795B0
:10524000B795F795E7959F5FC1F7FE2B880F911DE6
:105250009695879597F90895A1E21A2EAA1BBB1B74
:10526000FD010DC0AA1FBB1FEE1FFF1FA217B30732
:10527000E407F50720F0A21BB30BE40BF50B661F48
:10528000771F881F991F1A9469F76095709580950C
:1052900090959B01AC01BD01CF010895052E97FBB0
:1052A0001EF400940E94652957FD07D00E942C2906
:1052B00007FC03D04EF40C94652950954095309529
:1052C00021953F4F4F4F5F4F089590958095709572
:1052D00061957F4F8F4F9F4F0895EE0FFF1F0590F1
:1052E000F491E02D09940E947E29A59F900DB49F12
:1052F000900DA49F800D911D11240895A29FB001CF
:10530000B39FC001A39F700D811D1124911DB29FF9
:10531000700D811D1124911D0895CF93DF9382306C
:10532000910510F482E090E0E091E006F091E10652
:1053300020E030E0A0E0B0E0309739F140815181C9
:1053400048175907B8F04817590771F482819381BB
:10535000109729F013969C938E9312972CC09093DC
:10536000E1068093E00627C02115310531F0421790
:10537000530718F0A901DB0101C0EF019A01BD013B
:10538000DF010280F381E02DD7CF21153105F9F03F
:10539000281B390B2430310580F48A819B816115EB
:1053A000710521F0FB019383828304C09093E10691
:1053B0008093E006FE01329644C0FE01E20FF31F27
:1053C0008193919322503109398328833AC02091E7
:1053D000DE063091DF06232B41F42091020130914B
:1053E00003013093DF062093DE0620910001309107
:1053F00001012115310541F42DB73EB7409104015B
:1054000050910501241B350BE091DE06F091DF067B
:10541000E217F307A0F42E1B3F0B2817390778F08B
:10542000AC014E5F5F4F2417350748F04E0F5F1FEA
:105430005093DF064093DE068193919302C0E0E033
:10544000F0E0CF01DF91CF910895CF93DF930097E4
:1054500009F487C0FC01329713821282C091E006E2
:10546000D091E106209781F420813181280F391FE6
:105470008091DE069091DF068217930779F5F0930D
:10548000DF06E093DE066DC0DE0120E030E0AE17FF
:10549000BF0750F412964D915C9113979D014115F1
:1054A000510509F1DA01F3CFB383A2834081518121
:1054B000840F951F8A179B0771F48D919C9111970A
:1054C000840F951F02969183808312968D919C91F3
:1054D0001397938382832115310529F4F093E10614
:1054E000E093E0063EC0D9011396FC93EE93129729
:1054F0004D915D91A40FB51FEA17FB0779F48081E8
:105500009181840F951F0296D90111969C938E93D9
:105510008281938113969C938E931297E0E0F0E042
:105520008A819B81009719F0FE01EC01F9CFCE0131
:10553000029628813981820F931F2091DE063091D7
:10554000DF062817390769F4309729F41092E1062D
:105550001092E00602C013821282D093DF06C0933D
:10556000DE06DF91CF910895A0E0B0E0EAEBFAE229
:105570000C942230EC01CB01209719F40E948D2964
:10558000B8C0FE01E60FF71F9E0122503109E21755
:10559000F30708F4ACC0D9010D911C9111970617BF
:1055A0001707B8F00530110508F49FC0A801445052
:1055B00051094617570708F498C002501109061BF5
:1055C000170B019311936D937C93CF010E94252AB1
:1055D0008CC05B01A01AB10A4E01800E911EA091F1
:1055E000E006B091E106612C712C60E070E010974C
:1055F00009F449C0A815B905C9F5ED90FC901197BB
:10560000670142E0C40ED11CCA14DB0478F14701E3
:105610008A189B08640142E0C40ED11C1296BC900B
:1056200012971396AC91B5E0CB16D10440F0B2823C
:10563000A38391828082D9018D939C9309C00E5FD0
:105640001F4F0E0D1F1DF90111830083EB2DFA2F43
:105650006115710531F0DB011396FC93EE931297FF
:1056600044C0F093E106E093E0063FC06D917C9169
:1056700011976616770608F43B01BD0112960D904E
:10568000BC91A02DB4CF6091DE067091DF06681545
:105690007905E9F468167906D0F44091000150913B
:1056A00001014115510541F44DB75EB76091040108
:1056B00070910501461B570BE417F507C0F4F093F2
:1056C000DF06E093DE06F901918380830EC00E941D
:1056D0008D297C01009759F0A801BE010E94BE2BC4
:1056E000CE010E94252AC70104C0CE0102C080E07D
:1056F00090E0CDB7DEB7EEE00C943E30662777271A
:105700000C94FA2D1F93FC0199278827BC01E8947B
:1057100011911032E9F3193010F01E30C8F31B322A
:1057200051F01D3249F4689406C00E94F12B610FBC
:10573000711D811D911D119110531A30B0F33EF46B
:1057400090958095709561957F4F8F4F9F4F1F91DA
:1057500008959111B2C3803219F089508550D0F765
:105760000895FB01DC0104C08D910190801921F4A2
:1057700041505040C8F7881B990B0895FB01DC018C
:1057800002C001900D9241505040D8F70895FC019D
:105790008191861721F08823D9F7992708953197A9
:1057A000CF010895FB01DC018D910190801901105A
:1057B000D9F3990B0895FB01DC0101900D920020B3
:1057C000E1F70895FB01DC014150504048F00190A1
:1057D0000D920020C9F701C01D9241505040E0F7E2
:1057E0000895592F482F372F262F660F771F881FB0
:1057F000991F660F771F881F991F620F731F841FE1
:10580000951F660F771F881F991F0895AEE0B0E0BF
:10581000ECE0FCE20C942C300D891E8986E08C8330
:105820001A8309838FEF9FE79E838D83AE01475EC6
:105830005F4F6F89788DCE0101960E94282CEF81F1
:10584000F885E00FF11F10822E96E4E00C944830AA
:10585000ACE0B0E0EEE2FCE20C941E307C016B01A7
:105860008A01FC0117821682838181FFBDC1CE01AE
:1058700001964C01F7019381F60193FD859193FF09
:1058800081916F01882309F4ABC1853239F493FD0E
:10589000859193FF81916F01853229F4B70190E0E2
:1058A0000E948E2FE7CF512C312C20E02032A0F423
:1058B0008B3269F030F4803259F0833269F4206120
:1058C0002CC08D3239F0803339F4216026C022603B
:1058D000246023C0286021C027FD27C030ED380F89
:1058E0003A3078F426FF06C0FAE05F9E300D1124AE
:1058F000532E13C08AE0389E300D1124332E2062BF
:105900000CC08E3221F426FD6BC1206406C08C369B
:1059100011F4206802C0883641F4F60193FD8591A8
:1059200093FF81916F018111C1CF982F9F7D955475
:10593000933028F40C5F1F4FFFE3F9830DC08336CB
:1059400031F0833771F0833509F05BC022C0F80174
:10595000808189830E5F1F4F44244394512C54014E
:1059600015C03801F2E06F0E711CF801A080B18003
:1059700026FF03C0652D70E002C06FEF7FEFC50109
:105980002C870E94832F2C0183012C852F77222EB8
:1059900017C03801F2E06F0E711CF801A080B180D1
:1059A00026FF03C0652D70E002C06FEF7FEFC501D9
:1059B0002C870E94782F2C012C852068222E8301B1
:1059C00023FC1BC0832D90E048165906B0F4B701A4
:1059D00080E290E00E948E2F3A94F4CFF50127FCEC
:1059E000859127FE81915F01B70190E00E948E2F83
:1059F00031103A94F1E04F1A51084114510471F7F3
:105A0000E5C0843611F0893639F5F80127FF07C063
:105A100060817181828193810C5F1F4F08C060811A
:105A20007181882777FD8095982F0E5F1F4F2F7605
:105A3000B22E97FF09C090958095709561957F4F24
:105A40008F4F9F4F2068B22E2AE030E0A4010E94C1
:105A5000C02FA82EA81844C0853729F42F7EB22E57
:105A60002AE030E025C0F22FF97FBF2E8F36C1F03B
:105A700018F4883579F0B4C0803719F0883721F0F0
:105A8000AFC02F2F2061B22EB4FE0DC08B2D8460CD
:105A9000B82E09C024FF0AC09F2F9660B92E06C0F9
:105AA00028E030E005C020E130E002C020E132E033
:105AB000F801B7FE07C060817181828193810C5F1C
:105AC0001F4F06C06081718180E090E00E5F1F4F24
:105AD000A4010E94C02FA82EA818FB2DFF77BF2E6F
